:100000000C9447050C940E160C94E7150C946F0590
:100010000C946F050C946F050C946F050C946F0590
:100020000C946F050C946F050C946F050C946F0580
:100030000C946F050C946F050C946F050C946F0570
:100040000C949D150C946F050C945B160C9435164E
:100050000C946F050C946F050C946F050C946F0550
:100060000C948D160C946F0500000000003E5B4F51
:100070005B3E3E6B4F6B3E1C3E7C3E1C183C7E3C08
:10008000181C577D571C1C5E7F5E1C00183C180016
:10009000FFE7C3E7FF0018241800FFE7DBE7FF30A6
:1000A000483A060E2629792926407F050507407F14
:1000B00005253F5A3CE73C5A7F3E1C1C08081C1C87
:1000C0003E7F14227F22145F5F005F5F06097F017D
:1000D0007F006689956A606060606094A2FFA29468
:1000E00008047E040810207E201008082A1C080836
:1000F0001C2A08081E101010100C1E0C1E0C303884
:100100003E3830060E3E0E06000000000000005F84
:1001100000000007000700147F147F14242A7F2AA0
:100120001223130864623649562050000807030062
:10013000001C2241000041221C002A1C7F1C2A08AE
:10014000083E080800807030000808080808000011
:1001500060600020100804023E5149453E00427F85
:10016000400072494949462141494D331814127FD4
:100170001027454545393C4A494931412111090774
:100180003649494936464949291E000014000000F5
:1001900040340000000814224114141414140041C7
:1001A00022140802015909063E415D594E7C121184
:1001B000127C7F494949363E414141227F414141BC
:1001C0003E7F494949417F090909013E4141517337
:1001D0007F0808087F00417F41002040413F017FA8
:1001E000081422417F404040407F021C027F7F0470
:1001F00008107F3E4141413E7F090909063E4151B9
:10020000215E7F09192946264949493203017F01A8
:10021000033F4040403F1F2040201F3F4038403FA9
:10022000631408146303047804036159494D4300BF
:100230007F4141410204081020004141417F0402F6
:10024000010204404040404000030708002054548D
:1002500078407F284444383844444428384444286B
:100260007F385454541800087E090218A4A49C78BE
:100270007F0804047800447D40002040403D007F1A
:100280001028440000417F40007C047804787C08FA
:100290000404783844444438FC18242418182424CE
:1002A00018FC7C08040408485454542404043F44B3
:1002B000243C4040207C1C2040201C3C4030403CE2
:1002C00044281028444C9090907C4464544C440042
:1002D00008364100000077000000413608000201A6
:1002E0000204023C2623263C1EA1A161123A404092
:1002F000207A38545455592155557941225454780F
:1003000042215554784020545579400C1E527212A7
:100310003955555559395454545939555454580030
:1003200000457C410002457D420001457C407D1234
:1003300011127DF0282528F07C5455450020545496
:100340007C547C0A097F4932494949323A44444441
:100350003A324A4848303A4141217A3A424020787C
:10036000009DA0A07D3D4242423D3D4040403D3C7D
:1003700024FF2424487E4943662B2FFC2F2BFF09A2
:1003800029F620C0887E0903205454794100004496
:100390007D413048484A32384040227A007A0A0A81
:1003A000727D0D19317D2629292F282629292926F4
:1003B00030484D4020380808080808080808382F39
:1003C00010C8ACBA2F102834FA00007B00000814C3
:1003D0002A142222142A14085500550055AA55AA99
:1003E00055AAFF55FF55FF000000FF00101010FF39
:1003F00000141414FF001010FF00FF1010F010F094
:10040000141414FC001414F700FF0000FF00FF1484
:1004100014F404FC141417101F10101F101F1414D0
:10042000141F00101010F0000000001F101010101A
:100430001F10101010F010000000FF10101010100E
:1004400010101010FF10000000FF140000FF00FF4C
:1004500000001F10170000FC04F4141417101714E8
:1004600014F404F40000FF00F7141414141414140A
:10047000F700F7141414171410101F101F1414147D
:10048000F4141010F010F000001F101F0000001FE7
:1004900014000000FC140000F010F01010FF10FF1A
:1004A000141414FF141010101F00000000F010FFAF
:1004B000FFFFFFFFF0F0F0F0F0FFFFFF0000000093
:1004C00000FFFF0F0F0F0F0F3844443844FC4A4A17
:1004D0004A347E02020606027E027E0263554941CC
:1004E000633844443C04407E201E2006027E020203
:1004F00099A5E7A5991C2A492A1C4C7201724C3017
:100500004A4D4D303048784830BC625A463D3E49ED
:100510004949007E0101017E2A2A2A2A2A44445F91
:10052000444440514A444040444A51400000FF0185
:1005300003E080FF000008086B6B08361236243693
:10054000060F090F060000181800000010100030F8
:1005500040FF0101001F01011E00191D1712003C80
:100560003C3C3C0000000000000103070F1F3F7FE0
:100570000080C0E0F0F8FCFEDB40A4A62EAF200017
:10058000A1C8D300408DAED580A800006000000057
:100590000000000000000000000000E0000000007B
:1005A00000000000000000000001E000000000006A
:1005B000000000000000000001F00000000000004A
:1005C0000000000000000003F00000000000000038
:1005D00000000000000007F0000000000000000024
:1005E000000000000007F80000000000000000000C
:1005F000000000000FF800000003C0007E000001B2
:10060000E0007F0FF800000003C000FE000001E0E2
:1006100000FFEFF800000003C000FE000001E00052
:10062000FFFFF800000003C000F00000000F007F93
:10063000FE7FC0000003C000F00000000F003FFE7E
:100640007FF83FF1FBCFFCFEF3BC3DEFE01FFE7FE8
:10065000FF7FFBFFDFFEFEFFBC3DEFE01FC6FFFF9D
:100660007FFBFFDFFEFEFFBC3DEFE00FE3C7FE7840
:100670007BC3DE1EF0FFBC3DEF0007FF87FC787BED
:10068000C3DE1EF0F83C3DEF0001FFFFF0007BC32E
:10069000C01EF0F03C3DEF0001F37FE03FFBC3CF15
:1006A000FEF0F03C3DEF0003E33F807FFBC3DFFE45
:1006B000F0F03C3DEF0007E73C00787BC3DE1EF026
:1006C000F03C3DEF0007FFBE00787BC3DE1EF0F07C
:1006D0003C3DEF0007FFFE00787BC3DE1EF0F03CE0
:1006E0003DEF000FFFFE007FFBFFDFFEF0F03FFD60
:1006F000EFE00FFFFF007FFBFFDFFEF0F03FFDEFBD
:10070000E00FF9FF003E79F9CF9EF0F01F3DE7E0E2
:100710001FF1FF0000000000000000000000001FAB
:1007200080FF007FFFFFFFFFFFFFFFFFFFE01C00D8
:100730007F007FFFFFFFFEB46D888D18E000001F73
:10074000007FFFFFFFFE95AD7DB577E000000F0055
:100750007FFFFFFFFEA5AD9D8D19E0000006007F25
:10076000FFFFFFFEB5ADEDB57EE00000000000012B
:100770008000000000000000000003800000000076
:10078000000000000007C0000000000000000000A2
:1007900007C00000000000000000000FC0000000C3
:1007A0000000000000001FE000000000000000004A
:1007B000001FE00000000000000000003FE000001B
:1007C000000000000000003FF000000000000000FA
:1007D00000007FF0000000000000001FF87FF00024
:1007E0000000000000003FFE7FF00000000000005D
:1007F000003FFF7FF0000000000000001FFFFBE053
:10080000000000000000000FFFF9FFC00000000022
:1008100000000FFFF9FFF800000000000007FFF1E3
:10082000FFFF00000000000003FC73FFFF800000DA
:1008300000000001FE3FFFFF80000000000000FFFD
:100840001E0FFF000000000000007FFE1FFC0000E4
:1008500000000000003FFFFFF80000000000000063
:100860000FDFFFE0000000000000001F19FFC000C4
:100870000000000000003F3CFF00000000000000FE
:10088000007E7CF800000000000000007FFE7C007D
:1008900000000000000000FFFFFC0000000000005E
:1008A0000000FFFFFE0000000000000000FFFFFE50
:1008B0000000000000000001FFEFFE00000000004B
:1008C000000001FFCFFE0000000000000003FF0752
:1008D000FE0000000000000003FC07FE0000000016
:1008E00000000003F003FE00000000000000018093
:1008F00000FE000000000000000000007E0000007C
:10090000000000000000003E0000000000000000A9
:1009100000000C000000000000078000FC00000345
:10092000C0000000078001FC000003C000000007B9
:100930008001FC000003C0000000078001E000000F
:10094000001E000000078001E00000001E007FE3A1
:10095000F79FF9FDE7787BDFC0FFF7FFBFFDFDFFE5
:10096000787BDFC0FFF7FFBFFDFDFF787BDFC0F0C6
:10097000F787BC3DE1FF787BDE00F0F787BC3DE107
:10098000F0787BDE0000F787803DE1E0787BDE00D9
:100990007FF7879FFDE1E0787BDE00FFF787BFFDF3
:1009A000E1E0787BDE00F0F787BC3DE1E0787BDEBC
:1009B00000F0F787BC3DE1E0787BDE00F0F787BC14
:1009C0003DE1E0787BDE00FFF7FFBFFDE1E07FFB6C
:1009D000DFC0FFF7FFBFFDE1E07FFBDFC07CF3F38B
:1009E0009F3DE1E03E7BCFC0000000000000000022
:1009F000000000FFFFFFFFFFFFFFFFFFFFC0FFFF43
:100A0000FFFFFD68DB111A31C0FFFFFFFFFD2B5A0E
:100A1000FB6AEFC0FFFFFFFFFD4B5B3B1A33C0FFDC
:100A2000FFFFFFFD6B5BDB6AFDC0000000002400E0
:100A300027002A0000000000250028002B000000ED
:100A40000000230026002900040404040404040414
:100A50000202020202020303030303030102040869
:100A60001020408001020408102001020408102018
:100A7000000000080002010000030407000000005D
:100A8000000000002200FF210000AC17551C1124BB
:100A90001FBECFEFD8E0DEBFCDBF24E0ACE5B2E0B3
:100AA00001C01D92A231B207E1F712E0A0E0B1E06F
:100AB000E8EFF2E402C005900D92AC35B107D9F72A
:100AC00015E0C6E4D5E004C02197FE010E94BD1CDC
:100AD000C534D107C9F70E944B180C946F210C94B0
:100AE00000000895833081F028F4813099F082303D
:100AF000A9F008958730A9F08830C9F08430B1F4A6
:100B0000809180008F7D03C0809180008F778093DB
:100B10008000089584B58F7784BD089584B58F7D56
:100B2000FBCF8091B0008F778093B00008958091C3
:100B3000B0008F7DF9CF1F93CF93DF93282F30E044
:100B4000F901E059F54F8491F901E45AF54FD49138
:100B5000F901E85BF54FC491CC23A9F0162F811160
:100B60000E947205EC2FF0E0EE0FFF1FEC5CF54FDA
:100B7000A591B4918FB7F894EC91111108C0D0955C
:100B8000DE23DC938FBFDF91CF911F910895DE2B81
:100B9000F8CFCF93DF9390E0FC01E45AF54F249116
:100BA000885B954FFC0184918823C9F090E0880F01
:100BB000991FFC01E65DF54FA591B491FC01EC5C39
:100BC000F54FC591D49161110DC09FB7F8948C91E8
:100BD000209582238C938881282328839FBFDF91CF
:100BE000CF910895623051F49FB7F8943C91822FD1
:100BF000809583238C93E8812E2BEFCF8FB7F894C9
:100C0000EC912E2B2C938FBFEACF3FB7F8948091B5
:100C10001A0390911B03A0911C03B0911D0326B5EC
:100C2000A89B05C02F3F19F00196A11DB11D3FBF24
:100C3000BA2FA92F982F8827BC01CD01620F711DF3
:100C4000811D911D42E0660F771F881F991F4A95ED
:100C5000D1F708958F929F92AF92BF92CF92DF9279
:100C6000EF92FF924B015C010E9405066B017C0133
:100C70000E9405066C197D098E099F09683E734024
:100C800081059105A8F321E0821A9108A108B10815
:100C900088EEC80E83E0D81EE11CF11C811491047B
:100CA000A104B10429F7FF90EF90DF90CF90BF909F
:100CB000AF909F908F900895089508950895AF92F2
:100CC000BF92CF92DF92EF92FF920F931F93CF9339
:100CD000DF936C017B018B01040F151FEB015E019B
:100CE000AE18BF08C017D10759F06991D601ED9130
:100CF000FC910190F081E02DC6010995892B79F7CF
:100D0000C501DF91CF911F910F91FF90EF90DF9080
:100D1000CF90BF90AF900895FC01538D448D252F47
:100D200030E0842F90E0821B930B541710F0CF9685
:100D3000089501970895FC01918D828D981761F0B7
:100D4000A28DAE0FBF2FB11D5D968C91928D9F5FCE
:100D50009F73928F90E008958FEF9FEF0895FC01AD
:100D6000918D828D981731F0828DE80FF11D858D60
:100D700090E008958FEF9FEF0895FC01918D228DF3
:100D8000892F90E0805C9F4F821B91098F73992778
:100D9000089582E293E00E94BD0621E0892B09F4C8
:100DA00020E0822F089580E090E0892B29F00E94B6
:100DB000C90681110C9400000895FC01A48DA80FB0
:100DC000B92FB11DA35ABF4F2C91848D90E001968D
:100DD0008F739927848FA689B7892C93A089B189AD
:100DE0008C91837080648C93938D848D981306C04E
:100DF0000288F389E02D80818F7D80830895EF92B2
:100E0000FF920F931F93CF93DF93EC0181E0888FC4
:100E10009B8D8C8D98131AC0E889F989808185FF94
:100E200015C09FB7F894EE89FF896083E889F98936
:100E300080818370806480839FBF81E090E0DF9138
:100E4000CF911F910F91FF90EF900895F62E0B8D8B
:100E500010E00F5F1F4F0F731127E02E8C8D8E1146
:100E60000CC00FB607FCFACFE889F989808185FFAD
:100E7000F5CFCE010E94DD06F1CFEB8DEC0FFD2FFB
:100E8000F11DE35AFF4FF0829FB7F8940B8FEA8968
:100E9000FB8980818062CFCFCF93DF93EC01888D77
:100EA0008823B9F0AA89BB89E889F9898C9185FDE5
:100EB00003C0808186FD0DC00FB607FCF7CF8C9173
:100EC00085FFF2CF808185FFEDCFCE010E94DD0648
:100ED000E9CFDF91CF910895EF92FF920F931F9387
:100EE000CF93DF93EC01EC80FD806E157F050CF055
:100EF00070C057FF04C0240F351F50E040E08E81C2
:100F00009F81FA01E20FF31F8E179F071CF49C01CB
:100F1000241B350B121613060CF05BC0922F842F86
:100F20008695869586958E9DD0018F9DB00D112456
:100F30006A0F7B1FAF8DB8A1A60FB71F477049F18D
:100F400088E0841B482F682F70E0FB01E059FA4FBE
:100F5000E491281708F063C0621B71092FEF30E09D
:100F600002C0359527956A95E2F7E2230130110515
:100F700039F0B0F10230110561F58C91E82702C01B
:100F80008C91E82BEC93941720F12C813D81A20FDA
:100F9000B31FE92FE41BE83078F00230110521F58A
:100FA0008E2F9C9190959C932C813D81A20FB31F15
:100FB00088508830B0F7E770EE2359F0F0E0E85938
:100FC000FA4FE49101301105F9F010F102301105EA
:100FD00019F1DF91CF911F910F91FF90EF9008953C
:100FE000E0958C91E823CECF81E00115110509F43D
:100FF00080E081959E2F8C932C813D81A20FB31FA1
:1010000098509830C0F7D7CF8C91E82BEC93E1CF74
:10101000E0958C91E823FACF8C91E827F7CF013047
:10102000110509F4ADCFE0F20230110509F4A5CFA6
:10103000AE0DBF1DAECF0F931F93CF93DF9377FFFE
:1010400004C0260F371F70E060E0DC011496CD91DC
:10105000DC91FB01E20FF31FCE17DF071CF49E01AA
:10106000261B370B121613064CF5FA0157FD37965F
:10107000A3E0F595E795AA95E1F7EC9FD001ED9FE8
:10108000B00DFC9FB00D11246A0F7B1FDC015F9631
:10109000ED91FC91E60FF71F4770552781E090E036
:1010A00001C0880F4A95EAF7482F0130110559F021
:1010B000A8F02E0F3F1F02301105E1F0DF91CF9114
:1010C0001F910F9108952E0F3F1FE217F307B1F301
:1010D0008191DF011197842B8C93F7CF80952E0F90
:1010E0003F1FE217F30751F39191DF011197982306
:1010F0009C93F7CFE217F30709F38191DF01119772
:1011000084278C93F7CF0F931F93FA01DC01569637
:101110004C9156974230E9F04330A1F1413061F5EE
:1011200014964D915C91DA01AE1BBF0BFD01E21BE1
:10113000F30B77FD0BC0DC0116964D915C916417A3
:10114000750724F4AB01BF010E941B081F910F918A
:10115000089514964D915C91DA01A61BB70BBD0161
:1011600061507109DC0116964D915C91DA01AE1B5C
:10117000BF0BFD01E21BF30B77FDE8CFAF010E942F
:101180006C07E4CF16964D915C91DA01A61BB70B64
:10119000BD0161507109CDCF0F931F93FA01DC019E
:1011A00056964C9156974230A9F0433091F1413018
:1011B00019F514964D915C91DA01AE1BBF0BFD0140
:1011C0003197F7FD04C0AB01BF010E946C071F916E
:1011D0000F91089514964D915C91DA01A61BB70BFF
:1011E000BD01DC0116964D915C91DA01AE1BBF0B7F
:1011F000FD013197621B730BF7FDE9CFDC011696F9
:101200004D915C91E417F50714F7AF010E941B089C
:10121000DECF16964D915C91DA01A61BB70BBD018E
:10122000621B730BCECFFC0177FD64C08085918576
:10123000681779070CF05EC057FD5CC08285938506
:10124000481759070CF056C086898230B1F08330B8
:1012500029F1813041F484819581841B950BAB0188
:10126000BC01615071092130310509F108F443C016
:101270002230310509F463C0089584819581DC0131
:10128000A61BB70BBD016150710986819781DC01F6
:10129000A41BB50BAD0141505109E5CF8681978163
:1012A000861B970BBA01AC0141505109DCCFCA0132
:1012B00057FD0796A3E095958795AA95E1F7A48138
:1012C000B5818A9F90018B9F300D9A9F300D11241C
:1012D000620F731F078CF0A1E02DE60FF71F477018
:1012E000552721E030E001C0220F4A95EAF78081BE
:1012F000822B80830895CA0157FD079633E09595A8
:1013000087953A95E1F7A481B5818A9F90018B9FDB
:10131000300D9A9F300D1124620F731F078CF0A1BE
:10132000E02DE60FF71F4770552781E090E001C0E0
:10133000880F4A95EAF7809590818923DACFCA0110
:1013400057FD079623E0959587952A95E1F7A481A7
:10135000B5818A9F90018B9F300D9A9F300D11248B
:10136000620F731F078CF0A1E02DE60FF71F477087
:10137000552721E030E001C0220F4A95EAF780812D
:101380008227B7CF08958EBD00000DB407FEFDCFB4
:101390008EB508958CBD9DBD08950895FC016370C0
:1013A000668B8481958126813781613039F0633085
:1013B00029F0918780873387228708953187208796
:1013C0009387828708952F923F924F925F926F92F8
:1013D0007F928F929F92AF92BF92CF92DF92EF92C5
:1013E000FF920F931F93CF93DF93CDB7DEB76A972A
:1013F0000FB6F894DEBF0FBECDBF9A8F898F7A8368
:1014000069834A01D22E18870F833701BC2CDC0177
:1014100059962D913C915A972115310509F015C126
:1014200018968D919C911997681779070CF0D7C180
:101430001A968D919C91481759070CF0D0C14C2CED
:10144000512CB6E0CB9E600D711D11247C876B87FB
:10145000161617060CF0C3C1EA2DF0E0FA87E987EB
:1014600093E0EE0FFF1F9A95E1F7F88BEF87CF011E
:10147000840F951F181619060CF0B1C1A98DBA8DED
:1014800058968C91811104C0BFEABD1508F4D3941D
:10149000A98DBA8DED91FC9111970284F385E02D11
:1014A000CD010995B5E0DB9EC0011124E981FA81E7
:1014B000FC83EB83312C212C9C0128593F4F388F22
:1014C0002F8B4A2D50E05E8B4D8BEF89F88DE20D0E
:1014D000F31D44919E828D82D12CC12C69817A8129
:1014E000620D731D7A8B698B842F90E09C8B8B8BA4
:1014F000E98DFA8DA081B18140FF82C0F1E0BF1279
:101500006FC0AF126DC01C96ED91FC912F81388594
:10151000A4014C0D5D1D69897A89898D9A8D099583
:10152000EB89FC89F595E7954E2F5FEFC51AD50A33
:101530006D817E818D899E89680F791F7E836D8381
:1015400098E0C916D10481F6AFEF2A1A3A0AEB8166
:10155000FC81E40DF51DFC83EB83F5E02F163104CF
:1015600009F0B3CF2F81388526153705B9F0A98D3D
:10157000BA8DED91FC91B1E0BB1257C0AB1255C0D2
:1015800069817A816B5F7F4F0088F189E02D83014B
:1015900028E030E0A401898D9A8D0995A98DBA8D36
:1015A000ED91FC9111970688F789E02DCD016A969F
:1015B0000FB6F894DEBF0FBECDBFDF91CF911F9164
:1015C0000F91FF90EF90DF90CF90BF90AF909F90E2
:1015D0008F907F906F905F904F903F902F900994E5
:1015E0001E96ED91FC91EF80F88409851A85920191
:1015F0004D815E816B817C81898D9A8D099590CF1B
:101600002F8138852615370509F48ACF31E0B312CA
:1016100007C0A31205C01C96ED91FC91930178CFF1
:101620001E96ED91FC917301E0CF6B857C8564196A
:1016300075090684F785E02D73010F8518899201DD
:10164000A401898D9A8D0995A9CFF90134969491B9
:10165000329745915491D91AB7E0DB9E400D511D48
:101660001124F901259134913C8B2B8BFA012590A3
:101670003490FA013296749031963491398B3296C7
:1016800064903196449041E04C1518F04A1508F0EA
:101690007FC0662D062C000C770B7C836B83842D1A
:1016A000042C000C990B9E838D83A98DBA8DED912E
:1016B000FC9111970284F385E02DCD010995512C01
:1016C000D12CC12CEA2DF0E0FA87E9872B2D30E0F0
:1016D0003C872B87A401440D511D47FC5A95588F18
:1016E0004F8B69817A81660D711D67FC7A957E87C3
:1016F0006D877989C71608F051CF2C2D30E04D81C8
:101700005E81420F531FA985BA854A9FC0014B9F36
:10171000900D5A9F900D1124FC01E80DF91DF88BD6
:10172000EF87852D612C4F89588D420F531F5E8B9B
:101730004D8B671408F050C044244394480E8770C2
:1017400041F4C1010196EB89FC89E20DF31DD490AF
:101750001C01D7FE19C0A98DBA8DED91FC91662DA3
:1017600070E0B1E0BB1219C0AB1217C02D853E85E9
:10177000620F731F0484F585E02D2F8138854D8914
:101780005E89898D9A8D0995DD0C6394842DD1CF66
:101790001E821D821C821B8288CF4B815C81640F5C
:1017A000751FAB85BC856A9FC0016B9F900D7A9FAA
:1017B000900D112469817A81680F791F0684F7855D
:1017C000E02DEF80F88409851A859D014F855889A1
:1017D000898D9A8D0995D8CF570CC3948ACF6A9674
:1017E0000FB6F894DEBF0FBECDBFDF91CF911F9132
:1017F0000F91FF90EF90DF90CF90BF90AF909F90B0
:101800008F907F906F905F904F903F902F900895B2
:101810008F929F92AF92CF92EF92FF920F931F936E
:10182000CF93DF93EC01262F898D9A8D009709F0D5
:1018300051C06A30D1F41D861C868D8948E0849F92
:10184000900111248E859F85820F931F9F878E871D
:1018500081E090E0DF91CF911F910F91FF90EF9089
:10186000CF90AF909F908F9008956D3089F3CC8882
:10187000AD888F898823C1F08C859D8536E0C39E15
:10188000800D911D1124488559854817590764F426
:101890004E855F851D861C8638E0A39EC0011124FD
:1018A000840F951F9F878E87EA88FB88088919898E
:1018B0004E855F856C857D85CE010E94E3092C896C
:1018C0008C859D8546E0249F800D911D11249D8768
:1018D0008C87BECF6A3069F41D861C86FC01389661
:1018E000E4912D898E859F85E29F800D911D1124A5
:1018F000ADCF6D3009F4ACCFFC0134963491631751
:1019000008F4A6CF3296E491E61708F4A1CFFC01C3
:10191000329685909490462F431B342F47E0349F96
:10192000800C911C1124F401329634913196E4918B
:101930003323A9F1EE2399F1CC88F4013596E49193
:10194000AD884F89442301F10E2E000CFF0BE30FED
:10195000F11DCE9EA001CF9E500D11246C857D857A
:10196000460F571F68857985641775076CF44E8597
:101970005F851D861C86FC013896E491AE9E400D65
:10198000511D11245F874E87EA88FB8808891989D1
:101990004E855F856C857D85CE010E94E309F4014B
:1019A0003496E4912C898C859D85E29F800D911D54
:1019B00011248DCF6F927F928F929F92AF92BF92A0
:1019C000CF92DF92EF92FF920F931F93CF93DF930B
:1019D000EC016B015A0139014801E881F981028467
:1019E000F385E02D0995E881F9810288F389E02DDE
:1019F00087019301A501B601CE010995A501480D06
:101A0000591D41505109E881F9810288F389E02D7F
:101A10009301B601CE010995E881F9810088F18929
:101A2000E02D9401A501B601CE010995C60CD71C85
:101A3000B60161507109E881F9810088F189E02DD2
:101A40009401A501CE010995E881F9810688F789FD
:101A5000E02DCE01DF91CF911F910F91FF90EF907C
:101A6000DF90CF90BF90AF909F908F907F906F90BE
:101A700009946F927F928F929F92AF92BF92CF9272
:101A8000DF92EF92FF920F931F93CF93DF935C014E
:101A9000EB016A01490138018701DC01ED91FC91FC
:101AA0006217730719F5641675062CF0962D872DAD
:101AB0003A01C92ED82E9601261937092F5F3F4FBC
:101AC000048CF58DE02DA301BE01C5010995DF91C0
:101AD000CF911F910F91FF90EF90DF90CF90BF902B
:101AE000AF909F908F907F906F9008954615570507
:101AF00091F42617370724F0892D4B01C22FD82FD8
:101B00009E01281939092F5F3F4F068CF78DE02D74
:101B1000A601B401DACF0284F385E02D0995D50141
:101B2000ED91FC910488F589E02D83019401A601D3
:101B3000BE01C5010995D501ED91FC910688F78993
:101B4000E02DC501DF91CF911F910F91FF90EF9094
:101B5000DF90CF90BF90AF909F908F907F906F90CD
:101B60000994EF92FF920F931F93DC011A960D9147
:101B70001C911B9718962D913C911997ED91FC9112
:101B800000A0F1A1E02D7B0150E040E070E060E0BA
:101B900009951F910F91FF90EF9008954F925F92DA
:101BA0006F927F928F929F92AF92BF92CF92DF926D
:101BB000EF92FF920F931F93CF93DF936C012B0152
:101BC0005A0139014801DC01ED91FC910284F38551
:101BD000E02D0995E201640C751CD601ED91FC9194
:101BE000C615D7055CF40088F189E02D87019401C2
:101BF000A501BE01C60109952196EFCF0688F78998
:101C0000E02DC601DF91CF911F910F91FF90EF90D2
:101C1000DF90CF90BF90AF909F908F907F906F900C
:101C20005F904F9009948F929F92AF92BF92CF9204
:101C3000DF92EF92FF920F931F93CF93DF93EC010C
:101C40005B014A016901E881F9810284F385E02D95
:101C5000099595012C0D3D1D21503109E881F9812F
:101C60000488F589E02D78018401A401B501CE0135
:101C70000995E881F9810688F789E02DCE01DF9189
:101C8000CF911F910F91FF90EF90DF90CF90BF9079
:101C9000AF909F908F9009948F929F92AF92BF9236
:101CA000CF92DF92EF92FF920F931F93CF93DF9328
:101CB000EC015B014A0169017801E881F981028444
:101CC000F385E02D0995C80CD91C86010150110936
:101CD000E881F9810488F589E02D9501A401B50119
:101CE000CE010995E881F9810688F789E02DCE01BA
:101CF000DF91CF911F910F91FF90EF90DF90CF90E8
:101D0000BF90AF909F908F900994EF92FF920F93A6
:101D10001F93DC01ED91FC9100A0F1A1E02D09954C
:101D20001F910F91FF90EF9008950F931F93DC0187
:101D3000ED91FC91068CF78DE02D09951F910F9187
:101D400008950F931F93DC01ED91FC91048CF58DA8
:101D5000E02D09951F910F910895DC01ED91FC9103
:101D60000084F185E02D09943F924F925F926F922B
:101D70007F928F929F92AF92BF92CF92DF92EF921B
:101D8000FF920F931F93CF93DF935C017B014A0176
:101D90006901390187E0680E711C93E075946794BE
:101DA0009A95E1F72B01400E511E10E000E0312C16
:101DB000D0E0C0E0CE0187709927330C892B59F40D
:101DC000FE0183E0F595E7958A95E1F7E00FF11FB5
:101DD000E80DF91D349037FE0AC021E030E0A7017C
:101DE000B5016C0F7D1F8EEC93E00E94AD0E219625
:101DF000CC16DD06F9F68FEFE81AF80A060D171D66
:101E0000E414F504A9F6DF91CF911F910F91FF9093
:101E1000EF90DF90CF90BF90AF909F908F907F908A
:101E20006F905F904F903F9008952F923F924F9206
:101E30005F926F927F928F929F92AF92BF92CF925A
:101E4000DF92EF92FF920F931F93CF93DF9300D017
:101E500000D000D0CDB7DEB73C016A013E832D83B0
:101E6000FC82EB825801A41AB50AB7FE03C0B194F4
:101E7000A194B1088D809E80861A970A97FE03C0B0
:101E80009194819491088A149B045CF0902F812F87
:101E90000D811E819D838E839C2D8D2D6B01692F5D
:101EA000782F0C151D055CF09D818E817E836D83DE
:101EB000692F782F902F812F8601C92ED82E1601D9
:101EC000201A310A2B012D813E81421A530A57FEF6
:101ED00003C0519441945108710137FE03C03FEF94
:101EE000E31AF30AF594E7948D819E81861797078C
:101EF0005CF5A1E0B0E0BA83A983C016D1064CF12D
:101F0000D301ED91FC910484F585E02D2B813C817A
:101F1000A8016D817E818A149B041CF04D815E8135
:101F2000B801C3010995E418F508F7FE0AC02D8130
:101F30003E8189819A81280F391F3E832D83E20CCF
:101F4000F31C0F5F1F4FD9CF2FEF3FEF3A83298349
:101F5000D4CF26960FB6F894DEBF0FBECDBFDF916B
:101F6000CF911F910F91FF90EF90DF90CF90BF9096
:101F7000AF909F908F907F906F905F904F903F9029
:101F80002F90089508952091C402260F3327331F00
:101F900021323105ECF42091E802FC0190E080E070
:101FA000243069F082E00895A091C4022191AC012F
:101FB0004C555D4FA40FB52FB11D2C93019686177C
:101FC00098F38091C402680F6093C40280E0089582
:101FD00081E008951092E80281E08093EA02109275
:101FE000E90261E082E10E949B0561E083E10E94D9
:101FF0009B05E9EBF0E080818E7F808380818D7F7F
:10200000808388E48093B80085E48093BC000895C1
:10201000CF93DF9391E09093A3028823B9F0C0910E
:10202000B800D091BA008091BC008A7B8093BC003C
:1020300060E082E10E949B0560E083E10E949B05D5
:102040000E94EA0FD093BA00C093B800DF91CF91FD
:102050000895E091140380911303E81730F4F0E041
:10206000E258FD4F808190E008958FEF9FEF089533
:1020700090911403809113032FEF3FEF981748F4CA
:10208000E92FF0E0E258FD4F208130E09F5F909310
:102090001403C90108958091130390911403891BBF
:1020A000990B0895CF92DF92EF92FF920F931F93B7
:1020B000CF93DF937C01CB018A012091210322235E
:1020C00089F0EB016B01C40ED51ECC15DD0569F05E
:1020D0006991D701ED91FC910190F081E02DC7014C
:1020E0000995F3CF642F0E94C30FC801DF91CF91F0
:1020F0001F910F91FF90EF90DF90CF900895CF93B5
:10210000DF931F92CDB7DEB769832091210322238D
:10211000F9F020911E03203258F021E030E0FC015C
:102120003383228390E080E00F90DF91CF91089578
:1021300080911F03E82FF0E0E25AFD4F99819083D0
:102140008F5F80931F0380931E0381E090E0ECCFAC
:1021500061E0CE0101960E94C30FF7CFCF92DF92CC
:10216000EF92FF920F931F93CF93DF93D0911E03B3
:1021700081E0D13208F09CC0C09120030E94050686
:102180006B017C018091E80281116CC082E0809338
:10219000E80281E08093EA028FEF8093E7021092D9
:1021A0000C03D0930B03AEE5B2E0EBEEF2E080E07F
:1021B000D8138DC010920D0380910D03CC0FC82B46
:1021C000C0930D038091E902813009F084C0109220
:1021D000E9020E9405066B017C0180910D0380934A
:1021E000BB0080919F029091A002A091A102B091AA
:1021F000A202892B8A2B8B2BA1F00E94050600914D
:102200009F021091A0022091A1023091A2026C19AC
:102210007D098E099F09061717072807390708F453
:1022200042C08091BC0083FDD8CF85EC8093BC0078
:102230000E9405066B017C018091E802823009F45E
:102240004CC08091E7028F3F09F469C08091E7029A
:10225000803209F466C08091E702803309F463C0DC
:1022600084E026C080919F029091A002A091A102DB
:10227000B091A202892B8A2B8B2B09F483CF0E9469
:10228000050600919F021091A0022091A1023091B9
:10229000A2026C197D098E099F09061717072807E6
:1022A000390708F06FCF80919E020E94081085E0E8
:1022B00010921F0310921E0310922103DF91CF9101
:1022C0001F910F91FF90EF90DF90CF9008959D9117
:1022D00091938F5F6DCF85EEA9CF80919F029091F2
:1022E000A002A091A102B091A202892B8A2B8B2B74
:1022F00009F4A2CF0E94050600919F021091A0024E
:102300002091A1023091A2026C197D098E099F09CA
:10231000061717072807390708F08ECFC4CF80E0CB
:10232000C7CF82E0C5CF83E0C3CFEF92FF920F9378
:102330001F93CF93DF937C01C62F8091EB03909185
:10234000EC03009709F459C02091EF0331E030937A
:1023500021032093200310921F0310921E03DC011F
:10236000ED91FC910190F081E02D60E009958701ED
:10237000EE24E394F12CD1E0C1508091EB039091D5
:10238000EC03CF3F91F1B0E2EB16F104D8F00E94DC
:10239000AE108091EB039091EC032091EF03D0936A
:1023A00021032093200310921F0310921E03DC01CF
:1023B000ED91FC910190F081E02D60E00995EE2413
:1023C000E394F12C8091EB039091EC03F80164917C
:1023D000DC01ED91FC910190F081E02D0995BFEFBA
:1023E000EB1AFB0A0F5F1F4FC7CFDF91CF911F91F1
:1023F0000F91FF90EF900C94AE10E091FB03F091E1
:10240000FC0390818091010480958923808387015A
:10241000C15008F438C0F80184912091E90330914B
:10242000EA03232B29F00E94C3090F5F1F4FF0CF4F
:1024300028E030E040E8E091F703F091F803909154
:10244000FF03582F5423D9F05081952B9083E091AE
:10245000F903F091FA03908150910004952B908339
:10246000E091F903F091FA03508190910004909566
:1024700095239083469521503109E9F6D6CF5081B6
:1024800090959523E3CFDF91CF911F910F91FF900E
:10249000EF9008951F93CF93DF93EC018D8D9E8D68
:1024A000009721F1162F29A131E0309321032093C9
:1024B000200310921F0310921E03DC01ED91FC918A
:1024C0000190F081E02D60E009958D8D9E8DDC01FD
:1024D000ED91FC910190F081E02D612F09958D8D9A
:1024E0009E8DDF91CF911F910C94AE10ADA5BEA52E
:1024F0009C918BA9809589238C938B8D9C8D892BA6
:1025000031F0862FDF91CF911F910C94C30928E001
:1025100030E080E8A9A5BAA599A9462F4823C1F0C3
:102520004C91942B9C93ABA5BCA59C914AA9942B50
:102530009C93ABA5BCA54C919AA9909594239C9390
:1025400086952150310931F7DF91CF911F91089580
:102550004C9190959423E6CFDF92EF92FF920F93E8
:102560001F93CF93DF938091EB039091EC03892B22
:1025700009F498C0209103043091040440910504AB
:102580005091060460E074E284EF90E00E949B1C8E
:10259000205131094109510956954795379527959D
:1025A0002093B80065E084E89AE00E94951160915C
:1025B000D20361508EEC93E00E944A122091D40322
:1025C0003091D503C901079697FD079633E095959D
:1025D00087953A95E1F72091D2033091D303829FFA
:1025E0008001839F100D929F100D1124C091ED0367
:1025F000D091EE038091EB039091EC030C0F1D1F23
:10260000009709F48FC02091EF0331E0309321034C
:102610002093200310921F0310921E03DC01ED9102
:10262000FC910190F081E02D60E40995EE24E394A3
:10263000F12CDD24D3948091EB039091EC030C17E3
:102640001D0709F446C0B0E2EB16F104D8F00E9471
:10265000AE108091EB039091EC032091EF03D092A8
:1026600021032093200310921F0310921E03DC010C
:10267000ED91FC910190F081E02D60E40995EE244C
:10268000E394F12C8091EB039091EC036991DC01D0
:10269000ED91FC910190F081E02D0995BFEFEB1ACF
:1026A000FB0AC9CF8091E9039091EA03892B31F0AD
:1026B00080910C0490910D040E94CA09E091FD03E1
:1026C000F091FE039081809102048095892380839C
:1026D00069CF0E94AE108091EB039091EC03892B9F
:1026E00009F461C020910704309108044091090465
:1026F00050910A0460E074E284EF90E00E949B1C19
:10270000205131094109510956954795379527952B
:102710002093B800DF91CF911F910F91FF90EF9020
:10272000DF900895E091FB03F091FC03808190918C
:102730000104892B80830C171D0769F28991209170
:10274000E9033091EA03232B19F00E94C309F3CF68
:1027500028E030E040E8E091F703F091F803909131
:10276000FF03582F5423D9F05081952B9083E0918B
:10277000F903F091FA03908150910004952B908316
:10278000E091F903F091FA03508190910004909543
:1027900095239083469521503109E9F6CCCF50819D
:1027A00090959523E3CFE091FD03F091FE038081A6
:1027B00090910204892B8083ADCF1F93CF93DF9339
:1027C000EC01162F8D8D9E8D892BB1F12DA93EA97F
:1027D0004FA958AD60E074E284EF90E00E949B1C2A
:1027E000205131094109510956954795379527954B
:1027F0002093B80066EA111167EACE010E944A12DE
:102800008D8D9E8D892B41F129AD3AAD4BAD5CADDF
:1028100060E074E284EF90E00E949B1C205131093B
:102820004109510956954795379527952093B8004A
:10283000DF91CF911F9108958B8D9C8D892B21F075
:102840008EAD9FAD0E94CA09EFA5F8A990818CA911
:10285000809589238083CECFEFA5F8A980819CA99C
:10286000892B8083E5CF90E080E00895FF920F935D
:102870001F93CF93DF9360E08091C0030E94C9054E
:1028800000E0D0E0C0E061E08091C1030E949B05C0
:1028900060E08091C1030E949B052091C00330E05D
:1028A000F901E059F54F8491F901E45AF54FF4909C
:1028B000F901E85BF54F1491112319F181110E9480
:1028C0007205E12FF0E0EE0FFF1FE25CF54FA591DE
:1028D000B491EC91FE2231E009F430E0832F0C2E0C
:1028E00001C0880F0A94EAF7082B2196C830D10559
:1028F00009F0C9CF802FDF91CF911F910F91FF90E9
:10290000089580E0ECCF2091D4033091D503C90124
:10291000079697FD079623E0959587952A95E1F709
:102920002091D2033091D303829FA001839F500D49
:10293000929F500D112470E060E08091ED03909122
:10294000EE030C94B31E0E94A51EFB010190002013
:10295000E9F73197AF01461B570BDC01ED91FC9174
:102960000280F381E02D09940F931F93CF93DF939F
:102970008C01D0E0C0E06115710519F00E94A5142A
:10298000EC0166EE71E0C8010E94A5148C0F9D1F3A
:10299000DF91CF911F910F91089580915C029091EA
:1029A0005D02883091054CF522E02093E2032093EC
:1029B000E3032FE030E03093DB032093DA032EE1D2
:1029C00030E03093DD032093DC0324E1289FB00145
:1029D000299F700D112460507F4F8EEC93E00E9470
:1029E000B4140E94AC1280915C0290915D02019639
:1029F00090935D0280935C02089581E090E0909353
:102A00005D0280935C0282E08093E2038093E303A3
:102A10008FE090E09093DB038093DA038EE190E007
:102A20009093DD038093DC0360E071E08EEC93E033
:102A30000E94B4140C94AC12EF92FF920F931F9368
:102A4000CF93DF93EC017B01198218821B821A82DB
:102A50001D821C82FB0101900020E9F731978F0154
:102A6000061B170BB8016F5F7F4F90E080E00E945C
:102A7000E81D0097B9F0998388831B830A832C8112
:102A80003D81232B11F4FC0110821D830C83B701BF
:102A900088819981DF91CF911F910F91FF90EF90E5
:102AA0000C94BA1E88819981009711F00E945F1DD5
:102AB000198218821D821C821B821A82DF91CF919B
:102AC0001F910F91FF90EF90089585ED8093BC00CA
:102AD00080919F029091A002A091A102B091A202C8
:102AE0000796A11DB11D23E0B695A79597958795EB
:102AF0002A95D1F72091BC0024FD03C01092E80272
:102B0000089540919F025091A0026091A10270919E
:102B1000A202452B462B472B69F30097A105B1056F
:102B200041F02AE22A95F1F700C00197A109B10905
:102B3000E1CF80919E020C9408101F920F920FB665
:102B40000F9211242F933F938F939F93AF93BF9333
:102B50008091160390911703A0911803B091190367
:102B60003091150323E0230F2D3758F50196A11D51
:102B7000B11D209315038093160390931703A09320
:102B80001803B093190380911A0390911B03A0912D
:102B90001C03B0911D030196A11DB11D80931A0362
:102BA00090931B03A0931C03B0931D03BF91AF919F
:102BB0009F918F913F912F910F900FBE0F901F907B
:102BC000189526E8230F0296A11DB11DD2CF1F92A2
:102BD0000F920FB60F9211242F933F934F935F9351
:102BE0006F937F938F939F93AF93BF93EF93FF93D5
:102BF000E0918E01F0918F010995FF91EF91BF91C6
:102C0000AF919F918F917F916F915F914F913F9184
:102C10002F910F900FBE0F901F9018951F920F923B
:102C20000FB60F9211242F933F934F935F936F939F
:102C30007F938F939F93AF93BF93EF93FF93E09115
:102C40008C01F0918D010995FF91EF91BF91AF91AA
:102C50009F918F917F916F915F914F913F912F91B4
:102C60000F900FBE0F901F9018951F920F920FB6E6
:102C70000F9211242F933F934F935F936F937F9302
:102C80008F939F93AF93BF93EF93FF9382E293E071
:102C90000E94DD06FF91EF91BF91AF919F918F91BF
:102CA0007F916F915F914F913F912F910F900FBE48
:102CB0000F901F9018951F920F920FB60F9211242C
:102CC0002F938F939F93EF93FF93E0913203F091B3
:102CD00033038081E0913803F091390382FD1BC0FA
:102CE000908180913B038F5F8F7320913C0382170B
:102CF00041F0E0913B03F0E0EE5DFC4F958F809357
:102D00003B03FF91EF919F918F912F910F900FBEF9
:102D10000F901F9018958081F4CF1F920F920FB6DD
:102D20000F9211242F933F934F935F936F937F9351
:102D30008F939F93AF93BF93EF93FF938091B900CD
:102D4000887F803609F44AC0F0F5883209F4A7C0BC
:102D500018F5803109F49BC0B8F4882309F4F9C050
:102D6000883009F494C0FF91EF91BF91AF919F918A
:102D70008F917F916F915F914F913F912F910F9024
:102D80000FBE0F901F901895883109F488C08032CB
:102D900051F78093E70214C0803409F49DC040F4D9
:102DA0008033B9F38833F9F68093E70285ECB0C03D
:102DB000803509F485C0883509F496C0883499F6C1
:102DC0000E946515D0CF883909F48CC038F5883752
:102DD00029F050F4883611F0803729F683E080938B
:102DE000E8021092E60257C0883809F47BC08039A7
:102DF00019F0803809F0B7CF8091E602803208F0F0
:102E000071C0E091E60281E08E0F8093E60280912E
:102E1000BB00F0E0EA53FD4F80833DC0803B39F0BA
:102E2000E0F4803A09F479C0883A09F09CCF84E054
:102E30008093E8021092C5021092C402E09111033F
:102E4000F091120309958091C40281110FC081E0B5
:102E50008093C4021092A40209C0803C09F4A6CF5A
:102E6000883C09F4A3CF883B09F07DCFE091C502EF
:102E700081E08E0F8093C502F0E0EC55FD4F80811C
:102E80008093BB009091C5028091C40229C08091BB
:102E90000D038093BB0085EC8093BC0064CF9091C0
:102EA0000C0380910B03981758F5E0910C0381E017
:102EB0008E0F80930C03F0E0E551FD4F8081E9CF48
:102EC000E0910C0381E08E0F80930C038091BB0096
:102ED000F0E0E551FD4F808390910C0380910B034E
:102EE0009817C8F285E8D8CFE0910C0381E08E0FE7
:102EF00080930C038091BB00F0E0E551FD4F80838F
:102F00008091EA0281115CCF81E08093E90284EA3A
:102F10008093BC001092E80226CF85EC8093BC0021
:102F20001092E8028091E602803230F4E091E602ED
:102F3000F0E0EA53FD4F10826091E60270E0E0910C
:102F40000F03F091100386EC92E009951092E602CF
:102F50000ACF1092E70234CFE2E2F3E0138212824A
:102F600048EE53E060E070E04483558366837783E6
:102F70008AE991E09183808385EC90E0958784874E
:102F800084EC90E09787868780EC90E0918B808B33
:102F900081EC90E0938B828B82EC90E0958B848B1C
:102FA00086EC90E0978B868B118E128E138E148E8A
:102FB000A2ECB3E013961C921E92129714964D93B6
:102FC0005D936D937C9317978CEA91E011969C9397
:102FD0008E93EEECF3E01382128220E830E035832A
:102FE000248380E490E097838683318720879387CA
:102FF0008287168A158614861786168681E0858B49
:10300000848B2FEF3FEF338B228B318B208B878B81
:10301000108E128E118E8EEB91E091838083148E30
:10302000138EB68FA58F10A2178E8FEF84A385A362
:1030300086A387A384E080A780E89AE1A6E0B0E0B9
:1030400085AB96ABA7ABB0AF80EA96E8A1E0B0E065
:1030500081AF92AFA3AFB4AF80E586AF17AEEFEB11
:10306000F3E085E0808386E0818387E0828360E00F
:1030700085E00E949B0561E085E00E94C90560E053
:1030800086E00E94C90560E087E00E949B0561E040
:1030900087E00C94C905CF93DF93CDB7DEB7EC97EB
:1030A0000FB6F894DEBF0FBECDBF789484B58260B2
:1030B00084BD84B5816084BD85B5826085BD85B5DC
:1030C000816085BD80916E00816080936E0010925A
:1030D00081008091810082608093810080918100D5
:1030E0008160809381008091800081608093800066
:1030F0008091B10084608093B1008091B0008160C4
:103100008093B00080917A00846080937A008091EF
:103110007A00826080937A0080917A008160809347
:103120007A0080917A00806880937A001092C100C2
:10313000E0913203F091330382E08083E0912E032B
:10314000F0912F031082E0913003F09131038FEC66
:10315000808310923A03E0913603F091370386E0C2
:103160008083E0913403F091350380818061808316
:10317000E0913403F0913503808188608083E09191
:103180003403F0913503808180688083E0913403BB
:10319000F091350380818F7D80838091ED03909144
:1031A000EE03892B11F10E9483142091D4033091F6
:1031B000D5038091D2039091D303213231050CF0D5
:1031C00018C1B9016052710977FF02C06F5F7F4F6C
:1031D000759567958357910997FD019600E210E078
:1031E00023E730E04AE855E017C12091D40330913D
:1031F000D503C901079697FD0796B3E09595879586
:10320000BA95E1F72091D2033091D303AC01429FEC
:10321000C001439F900D529F900D11240E94C31C2A
:103220009093EE038093ED03892B09F0BCCF01E06E
:1032300010E01093E1030093E0031093DF03009389
:10324000DE030E94831482E08093E2038093E30311
:103250001093DB030093DA031093DD030093DC0388
:1032600069EE71E08EEC93E00E94B4140E94AC12FF
:1032700062E082E00E94C9058DEC94E190938D019B
:1032800080938C01809169008C7F826080936900BB
:10329000E89A2BE0E22EF12C3FEB632E712C4AE0F2
:1032A000542E5BE3C52E52E0D52ECE0101965C0173
:1032B00060E0862E60E0962E4090BF0360E0809133
:1032C000C1030E949B0561E0842D0E949B05C701FC
:1032D0000197F1F761E08091C0030E94C90510E0F9
:1032E00000E0B301002E02C0759567950A94E2F7DD
:1032F00061708091C0030E949B0561E08091C103D1
:103300000E949B0560E00730110509F068C28091BA
:10331000C0030E94C9050F5F1F4F0830110509F750
:103320000E943614982F929597708F70282E959D35
:10333000200C11240E943614982F92959F708F7044
:10334000959D800D11248CAF0E943614282F30E0FB
:1033500087FF4AC285FB222720F99CE0299F202D68
:1033600011248F70820F8BAF0E943614982F929584
:103370009F708F70959D800D11248AAF0E94361426
:10338000982F92959F708F70959D800D112489AF15
:103390000E943614982F92959F708F70382E959DAD
:1033A000300C11240E943614982F92959F708F70C4
:1033B000959D800D1124082F10E00053184F60E0F8
:1033C000842D0E949B05C7010197F1F7EFEFE30DF4
:1033D0006DE272E0E73008F013C2F0E0EE50F64E16
:1033E0000C94BD1CFE1B431C461C491C4C1C4F1C52
:1033F000521CB9016054710977FF02C06F5F7F4FA3
:10340000759567958255910997FD019600E410E046
:1034100022E530E04AE657E0959587950E94B40E84
:1034200082E08093F0038091EB039091EC03892B71
:1034300009F4DFC08CE38093EF0310921403109221
:10344000130310921F0310921E030E94EA0F8CE5D3
:1034500096E090931203809311038DE596E090938C
:10346000100380930F038091F60387FD1EC061E077
:103470000E94C90561E08091F6030E949B0561E00E
:1034800070E080E090E00E942A0660E08091F60300
:103490000E949B056AE070E080E090E00E942A06AE
:1034A00061E08091F6030E949B058091EB0390916F
:1034B000EC03892B09F45CC12091030430910404CE
:1034C000409105045091060460E074E284EF90E0BE
:1034D0000E949B1C2051310941095109569547957D
:1034E000379527952093B80064E086E895E00E9420
:1034F00095116091D40361508EEC93E00E944A12C2
:1035000064E082E895E00E9495118091F00364E107
:10351000813009F460E18EEC93E00E944A1264E08D
:103520008EE795E00E9495118FE880930B048091BF
:10353000D2039091D3038038910509F032C1809174
:10354000D4039091D5038034910509F03AC180915C
:10355000F003813009F423C18FEC80930B0412E156
:103560006AED8EEC93E00E944A12612F8EEC93E09C
:103570000E944A1261E88EEC93E00E944A12609128
:103580000B048EEC93E00E944A1269ED8EEC93E0FE
:103590000E944A128091F00361EF813009F462E2E7
:1035A0008EEC93E00E944A1266E088E795E00E9464
:1035B00095118091EB039091EC03892B09F405C1DF
:1035C00020910704309108044091090450910A04A5
:1035D00060E074E284EF90E00E949B1C205131096E
:1035E0004109510956954795379527952093B8007D
:1035F0001ECE61E08091F4030E94C90561E08091D4
:10360000F5030E94C9058091F403082E000C990B64
:10361000FC01E85BF54FE491F0E0EE0FFF1FEC5C7E
:10362000F54F259134913093FC032093FB03FC016B
:10363000E45AF54FE491E09301048091F503082EDC
:10364000000C990BFC01E85BF54FE491F0E0EE0F04
:10365000FF1FEC5CF54FA591B491B093FE03A093CE
:10366000FD03FC01E45AF54FE491E09302048C91D0
:10367000E82BEC938091E9039091EA03892B09F4FC
:1036800034C01FB7F89480910E03811127C0E2E582
:10369000FAE08491E6E6FAE09491E82FF0E0EE0F8C
:1036A000FF1FE65DF54FA591B491EC91E92321F45C
:1036B00061E08AE00E949B0561E08AE00E94C90502
:1036C0008CB580618CBD8CB580648CBD61E08DE073
:1036D0000E94C90561E08BE00E94C90580910E033C
:1036E0008F5F80930E031FBFBECE61E08091F20317
:1036F0000E94C90561E08091F3030E94C905809191
:10370000F203082E000C990BFC01E85BF54FE491E5
:10371000F0E0EE0FFF1FEC5CF54F259134913093F4
:10372000F8032093F703FC01E45AF54FE491E0938A
:10373000FF038091F303082E000C990BFC01E85B5A
:10374000F54FE491F0E0EE0FFF1FEC5CF54FA59113
:10375000B491B093FA03A093F903FC01E45AF54F36
:10376000E491E09300048C91E095E823EC937BCE08
:103770008091E9039091EA03892B31F080910C0448
:1037800090910D040E94CA09E091FD03F091FE039F
:10379000908180910204809589238083A5CE8FE952
:1037A000DCCE8036910569F48091D4039091D503E5
:1037B000409739F48091F003813029F08FEA8093AB
:1037C0000B0412E0CDCE80E1FACFE091FD03F09141
:1037D000FE03808190910204892B808328CD809103
:1037E000C1030E949B0597CD94E0359527959A9546
:1037F000E1F72370259D202D1124B3CD64EF71E0F6
:10380000CE01C3960E941C151F922F921F922CADC1
:103810002F931F923BAD3F931F924AAD4F931F9240
:1038200059AD5F931F930F938CA98F938BA98F939F
:10383000DF92CF921F9282E38F93BF92AF920E944A
:10384000C11EB50182E293E00E94B4148BA99CA929
:103850000FB6F894DEBF0FBECDBF009711F00E94E7
:103860005F1D68EE73E080E090E00E942A068114FC
:10387000910409F421CD0E94C906882309F41CCDC6
:103880000E94000019CD6BEF71E0BACF62E072E0E8
:10389000B7CF6AE072E0B4CF64E172E0B1CF6DE11E
:1038A00072E0AECF64E272E0ABCF8EEB91E090932A
:1038B000CF038093CE038091ED039091EE030097A8
:1038C00011F00C945F1D08952F923F924F925F92DA
:1038D0006F927F928F929F92AF92BF92CF92DF9220
:1038E000EF92FF920F931F93CF93DF93CDB7DEB785
:1038F000CA1BDB0B0FB6F894DEBF0FBECDBF099419
:103900002A88398848885F846E847D848C849B846F
:10391000AA84B984C884DF80EE80FD800C811B817D
:10392000AA81B981CE0FD11D0FB6F894DEBF0FBEAC
:10393000CDBFED010895A1E21A2EAA1BBB1BFD010C
:103940000DC0AA1FBB1FEE1FFF1FA217B307E4077E
:10395000F50720F0A21BB30BE40BF50B661F771FD6
:10396000881F991F1A9469F76095709580959095B6
:103970009B01AC01BD01CF010895EE0FFF1F059023
:10398000F491E02D09940F931F93CF93DF9382302E
:10399000910510F482E090E0E0911004F0911104A0
:1039A00030E020E0B0E0A0E0309799F42115310537
:1039B00009F44AC0281B390B24303105D8F58A8117
:1039C0009B816115710589F1FB0193838283FE015F
:1039D00011C0408151810281138148175907E0F0DD
:1039E0004817590799F4109761F012960C931297A3
:1039F00013961C933296CF01DF91CF911F910F91B7
:103A000008950093100410931104F4CF211531058B
:103A100051F04217530738F0A901DB019A01BD01AB
:103A2000DF01F801C1CFEF01F9CF9093110480932A
:103A30001004CDCFFE01E20FF31F8193919322502A
:103A4000310939832883D7CF20910E0430910F0498
:103A5000232B41F4209192013091930130930F0474
:103A600020930E0420919001309191012115310590
:103A700041F42DB73EB74091940150919501241B1C
:103A8000350BE0910E04F0910F04E217F307A0F458
:103A90002E1B3F0B2817390778F0AC014E5F5F4FA4
:103AA0002417350748F04E0F5F1F50930F044093C3
:103AB0000E04819391939FCFF0E0E0E09CCFCF93F1
:103AC000DF930097E9F0FC01329713821282A091F4
:103AD0001004B0911104ED0130E020E01097A1F442
:103AE00020813181820F931F20910E0430910F04A9
:103AF0002817390709F061C0F0930F04E0930E0412
:103B0000DF91CF910895EA01CE17DF07E8F54A81EA
:103B10005B819E0141155105B1F7E901FB83EA8301
:103B200049915991C40FD51FEC17FD0761F48081AD
:103B300091810296840F951FE90199838883828180
:103B400093819B838A83F0E0E0E012968D919C91B3
:103B500013970097B9F52D913C911197CD010296DD
:103B6000820F931F20910E0430910F0428173907FC
:103B700039F6309751F51092110410921004B09359
:103B80000F04A0930E04BCCFD383C2834081518124
:103B9000840F951FC817D90761F44E5F5F4F888166
:103BA0009981480F591F518340838A819B81938358
:103BB00082832115310509F0B0CFF0931104E09311
:103BC00010049ECFFD01DC01C0CF13821282D7CF3B
:103BD000B0E0A0E0EEEEFDE10C94661C8C010097D5
:103BE00051F4CB010E94C31C8C01C801CDB7DEB7D4
:103BF000E0E10C94821CFC01E60FF71F9C012250AF
:103C00003109E217F30708F49DC0D901CD91DC9189
:103C10001197C617D70798F0C530D10530F3CE01FC
:103C200004978617970708F3C61BD70B2297C193F3
:103C3000D1936D937C93CF010E945F1DD6CF5B0122
:103C4000AC1ABD0A4C018C0E9D1EA0911004B091BF
:103C50001104512C412CF12CE12C109731F580915D
:103C60000E0490910F048815990509F05CC0461662
:103C7000570608F058C080919001909191010097EB
:103C800041F48DB79EB74091940150919501841BEA
:103C9000950BE817F90708F055C0F0930F04E0936F
:103CA0000E04F90171836083A0CF8D919C911197CF
:103CB00012966C90129713967C901397A815B905DD
:103CC00059F56C0142E0C40ED11CCA14DB0420F18A
:103CD000AC014A195B09DA011296159780F06282ED
:103CE000738251834083D9016D937C93E114F10475
:103CF00071F0D7011396FC93EE93129776CF22962C
:103D00008C0F9D1FF90191838083F301EFCFF09316
:103D10001104E093100469CF4816590608F42C01E9
:103D20007D01D3019ACFCB010E94C31C7C01009777
:103D300049F0AE01B8010E94AA1EC8010E945F1D91
:103D4000870153CF10E000E050CF81E090E0F8947D
:103D50000C946F21FB01DC0102C001900D924150D7
:103D60005040D8F70895DC0101C06D934150504098
:103D7000E0F70895FB01DC0101900D920020E1F7CE
:103D80000895AEE0B0E0E7ECFEE10C94721C0D8902
:103D90001E898F89988D26E02C831A83098397FFCB
:103DA00002C080E090E801979E838D83AE01455E5E
:103DB0005F4F698D7A8DCE0101960E94F11E4D8173
:103DC0005E8157FD0AC02F813885421753070CF4D6
:103DD0009A01020F131FF80110822E96E4E00C9452
:103DE0008E1CABE0B0E0E7EFFEE10C94641C7C01BC
:103DF0003B018A01FC0117821682838181FFC8C1C1
:103E0000CE0101965C01F7019381F30193FD859149
:103E100093FF81913F01882309F453C1853239F41E
:103E200093FD859193FF81913F01853229F4B7017C
:103E300090E00E94E120E7CF912C212C312CFFE172
:103E4000F31538F08B3211F190F4803209F183329E
:103E500029F137FC3CC020ED280F2A3050F536FE02
:103E600020C08AE0989E200D1124922E06C08D322B
:103E700091F0803371F7689430F8F30193FD8591E8
:103E800093FF81913F018111DACF21C0689431F80D
:103E9000689432F8F2CF689433F8EFCF689434F82E
:103EA000ECCFEAE02E9E200D1124222E689435F8E6
:103EB000E4CF8E3229F436FC04C1689436F8DDCFA5
:103EC0008C3619F4689437F8D8CF8836B1F2982F29
:103ED0009F7D95549330E0F08336A1F18337C1F193
:103EE000833509F063C02801F2E04F0E511CF80140
:103EF000C080D180692D70E036FC02C06FEF7FEF8B
:103F0000C6010E94CB204C01689437F882010AC098
:103F10000C5F1F4FFFE3F98388248394912C650184
:103F2000E89437F833FE2DC0522C8114910471F5BA
:103F3000552009F468CFB70180E290E00E94E120AB
:103F40005A94F6CFF801808189830E5F1F4FE4CF2A
:103F50002801F2E04F0E511CF801C080D180692D7C
:103F600070E036FC02C06FEF7FEFC6010E94D620E2
:103F70004C018201D5CFB70180E290E00E94E120A0
:103F80002A942814190409F0B0F7CECFF60137FCB3
:103F9000859137FE81916F01B70190E00E94E12089
:103FA00051105A94F1E08F1A9108BFCF843619F05E
:103FB000893609F077C0F80137FE6BC060817181E6
:103FC000828193810C5F1F4FF32DFF763F2E97FF69
:103FD00009C090958095709561957F4F8F4F9F4F49
:103FE000689437F82AE030E0A5010E941121C82E1C
:103FF000CA188C2C432C36FE0CC0E89440F8C91427
:1040000040F434FE05C032FC03C0F32DFE7E4F2E7B
:10401000892C44FE95C0FE01EC0DF11D808180339A
:1040200009F087C0242D297E422E842D8870582EB9
:1040300043FC95C040FE8FC09C2C821418F42C0CBD
:10404000922C981844FE91C0B70180E390E00E9442
:10405000E12042FE09C088E790E041FE02C088E509
:1040600090E0B7010E94E120C91408F48AC0CA9404
:10407000D12C9FEFC91AD90ACA0CDB1CF601829118
:104080006F01B70190E00E94E120AC14BD04B1F7CC
:104090004FCF60817181072E000C880B990B0E5F4A
:1040A0001F4F92CFD32CE894D4F82AE030E0853724
:1040B00039F1232D297FD22E8F3601F148F488352E
:1040C000A9F0F701868197812B96E2E10C94801C80
:1040D000803749F08837A9F7D4FE02C06894D2F837
:1040E00020E130E00DC06894D4F8F6CF34FE03C070
:1040F000822F8660D82E20E132E002C028E030E036
:10410000F801D7FE0FC060817181828193810C5FBD
:104110001F4FA5010E941121C82ECA183D2CE894FA
:1041200037F867CF6081718190E080E00E5F1F4FAC
:10413000F0CF42FC02C0839478CF8394839475CFF0
:10414000842D867809F471CFF6CFB70180E290E034
:104150000E94E12083948214C0F3512C73CF522C1F
:104160005818821408F46ECFF8CF842D867809F49D
:104170007BCF8BE241FE80E247FC8DE2B70190E00D
:1041800071CFB70180E390E00E94E1209A946CCF58
:104190008FEF9FEF99CFFC010590615070400110A7
:1041A000D8F7809590958E0F9F1F0895FC01615060
:1041B000704001900110D8F7809590958E0F9F1F49
:1041C00008950F931F93CF93DF93182F092FEB01BF
:1041D0008B8181FD09C01FEF0FEF812F902FDF91A1
:1041E000CF911F910F91089582FF14C02E813F81BE
:1041F0008C819D81281739073CF4E881F981CF0132
:1042000001969983888310838E819F8101969F8375
:104210008E83E3CFE885F985812F0995892BA1F35A
:10422000DACFFA01AA27283051F1203181F1E89440
:104230006F936E7F6E5F7F4F8F4F9F4FAF4FB1E099
:104240003ED0B4E03CD0670F781F891F9A1FA11D94
:10425000680F791F8A1F911DA11D6A0F711D811D95
:10426000911DA11D20D009F468943F912AE0269F5A
:1042700011243019305D3193DEF6CF010895462FB9
:104280004770405D4193B3E00FD0C9F7F6CF462F9A
:104290004F70405D4A3318F0495D31FD4052419303
:1042A00002D0A9F7EACFB4E0A695979587957795C0
:1042B0006795BA95C9F700976105710508959B0147
:1042C000AC010A2E06945795479537952795BA95D0
:1042D000C9F7620F731F841F951FA01D089515E075
:1042E000C6E4D5E004C0FE010E94BD1C2196C7347F
:0842F000D107C9F7F894FFCFD4
:1042F8004131000000000000000000000000000044
:104308000000000042320000000000000000000031
:10431800000000000000000043330000000000001F
:10432800000000000000000000000000443400000D
:104338000000000000000000000000000000000075
:1043480045350000000000000000000000000000EB
:1043580000000000463600000000000000000000D9
:1043680000000000000000004737000000000000C7
:104378000000000000000000000000005E065E066D
:1043880000001204800000000000FF065F068C0693
:104398004C07BD069B06AF06000000007F105210B8
:1043A800331471054B103810291000000000080C58
:1043B8005F063314C20F13097105AD0E850EA10EE9
:1043C800950E150F7105CE09DD138308CC08CE0DA7
:1043D800B10D390DDA0C0D0A002D4E616D654C6971
:1043E80073742D0053756E646179004D6F6E64614E
:1043F800790054756573646179005765646E6573F7
:1044080064617900546875727364617900467269F1
:104418006461790053617475726461790028756EFE
:104428006B6E6F776E2064617929002573202530C3
:1044380034642D253032642D253032642025303205
:0C444800643A253032643A2530326400BA
:00000001FF
