:100000000C94EB020C9413030C9413030C94130341
:100010000C9413030C9413030C9413030C94130308
:100020000C9413030C9413030C9413030C945710A7
:100030000C9413030C9413030C9413030C941303E8
:100040000C94B50F0C9413030C9425100C94FF0F13
:100050000C9413030C9413030C9413030C941303C8
:100060000C9413110C94130300000000003E5B4F2E
:100070005B3E3E6B4F6B3E1C3E7C3E1C183C7E3C08
:10008000181C577D571C1C5E7F5E1C00183C180016
:10009000FFE7C3E7FF0018241800FFE7DBE7FF30A6
:1000A000483A060E2629792926407F050507407F14
:1000B00005253F5A3CE73C5A7F3E1C1C08081C1C87
:1000C0003E7F14227F22145F5F005F5F06097F017D
:1000D0007F006689956A606060606094A2FFA29468
:1000E00008047E040810207E201008082A1C080836
:1000F0001C2A08081E101010100C1E0C1E0C303884
:100100003E3830060E3E0E06000000000000005F84
:1001100000000007000700147F147F14242A7F2AA0
:100120001223130864623649562050000807030062
:10013000001C2241000041221C002A1C7F1C2A08AE
:10014000083E080800807030000808080808000011
:1001500060600020100804023E5149453E00427F85
:10016000400072494949462141494D331814127FD4
:100170001027454545393C4A494931412111090774
:100180003649494936464949291E000014000000F5
:1001900040340000000814224114141414140041C7
:1001A00022140802015909063E415D594E7C121184
:1001B000127C7F494949363E414141227F414141BC
:1001C0003E7F494949417F090909013E4141517337
:1001D0007F0808087F00417F41002040413F017FA8
:1001E000081422417F404040407F021C027F7F0470
:1001F00008107F3E4141413E7F090909063E4151B9
:10020000215E7F09192946264949493203017F01A8
:10021000033F4040403F1F2040201F3F4038403FA9
:10022000631408146303047804036159494D4300BF
:100230007F4141410204081020004141417F0402F6
:10024000010204404040404000030708002054548D
:1002500078407F284444383844444428384444286B
:100260007F385454541800087E090218A4A49C78BE
:100270007F0804047800447D40002040403D007F1A
:100280001028440000417F40007C047804787C08FA
:100290000404783844444438FC18242418182424CE
:1002A00018FC7C08040408485454542404043F44B3
:1002B000243C4040207C1C2040201C3C4030403CE2
:1002C00044281028444C9090907C4464544C440042
:1002D00008364100000077000000413608000201A6
:1002E0000204023C2623263C1EA1A161123A404092
:1002F000207A38545455592155557941225454780F
:1003000042215554784020545579400C1E527212A7
:100310003955555559395454545939555454580030
:1003200000457C410002457D420001457C407D1234
:1003300011127DF0282528F07C5455450020545496
:100340007C547C0A097F4932494949323A44444441
:100350003A324A4848303A4141217A3A424020787C
:10036000009DA0A07D3D4242423D3D4040403D3C7D
:1003700024FF2424487E4943662B2FFC2F2BFF09A2
:1003800029F620C0887E0903205454794100004496
:100390007D413048484A32384040227A007A0A0A81
:1003A000727D0D19317D2629292F282629292926F4
:1003B00030484D4020380808080808080808382F39
:1003C00010C8ACBA2F102834FA00007B00000814C3
:1003D0002A142222142A14085500550055AA55AA99
:1003E00055AAFF55FF55FF000000FF00101010FF39
:1003F00000141414FF001010FF00FF1010F010F094
:10040000141414FC001414F700FF0000FF00FF1484
:1004100014F404FC141417101F10101F101F1414D0
:10042000141F00101010F0000000001F101010101A
:100430001F10101010F010000000FF10101010100E
:1004400010101010FF10000000FF140000FF00FF4C
:1004500000001F10170000FC04F4141417101714E8
:1004600014F404F40000FF00F7141414141414140A
:10047000F700F7141414171410101F101F1414147D
:10048000F4141010F010F000001F101F0000001FE7
:1004900014000000FC140000F010F01010FF10FF1A
:1004A000141414FF141010101F00000000F010FFAF
:1004B000FFFFFFFFF0F0F0F0F0FFFFFF0000000093
:1004C00000FFFF0F0F0F0F0F3844443844FC4A4A17
:1004D0004A347E02020606027E027E0263554941CC
:1004E000633844443C04407E201E2006027E020203
:1004F00099A5E7A5991C2A492A1C4C7201724C3017
:100500004A4D4D303048784830BC625A463D3E49ED
:100510004949007E0101017E2A2A2A2A2A44445F91
:10052000444440514A444040444A51400000FF0185
:1005300003E080FF000008086B6B08361236243693
:10054000060F090F060000181800000010100030F8
:1005500040FF0101001F01011E00191D1712003C80
:100560003C3C3C0000000000000103070F1F3F7FE0
:100570000080C0E0F0F8FCFE000000002300260030
:10058000290000000000240027002A0000000000CD
:10059000250028002B0004040404040404040202BF
:1005A00002020202030303030303010204081020F2
:1005B00040800102040810200102040810200000FD
:1005C0000008000201000003040700000000000012
:1005D00000007312141511241FBECFEFD8E0DEBF48
:1005E000CDBF11E0A0E0B1E0E0E0F0E302C0059093
:1005F0000D92A436B107D9F723E0A4E6B1E001C01B
:100600001D92A831B207E1F712E0CAEED2E004C0B1
:100610002197FE010E94C316C93ED107C9F70E9467
:1006200057130C94F3170C9400008F929F92AF9283
:10063000BF92FF920F931F93CF93DF93F090C50269
:100640002BE02F1508F44CC02091C70208E512E0FA
:10065000021B110927FD1395000F111F000F111F19
:100660002091C602C8E8D0E0C21BD10927FDD3956E
:10067000CC0FDD1FCC0FDD1F4E010D2E000CAA0884
:10068000BB089801012E000C440B550B28193909A1
:100690004A095B09DC010E944D1524EB30E040E083
:1006A00050E00E942315820E931EA41EB51E8C16C8
:1006B0009D062CF0E801801691060CF4E4012297C7
:1006C000CC0FDD1F2FB7F8948F2D90E0FC01EE0FBB
:1006D000FF1FE80FF91FE056FD4FD283C1832FBFE4
:1006E000DF91CF911F910F91FF90BF90AF909F909E
:1006F0008F90089590E0FC01E254FA4F2491FC01A0
:10070000E655FA4F3491FC01EA56FA4FE491EE2394
:10071000C9F0222339F0233001F1A8F4213019F176
:10072000223029F1F0E0EE0FFF1FE457FA4FA591B8
:10073000B4918FB7F894EC91611126C030953E23A7
:100740003C938FBF08952730A9F02830C9F024309A
:1007500049F7809180008F7D03C0809180008F7762
:1007600080938000DFCF84B58F7784BDDBCF84B5E5
:100770008F7DFBCF8091B0008F778093B000D2CF78
:100780008091B0008F7DF9CF3E2BDACFCF93DF93EE
:1007900090E0FC01E655FA4F24918A569A4FFC01ED
:1007A00084918823D1F090E0880F991FFC01EE57C7
:1007B000FA4FA591B491FC01E457FA4FC591D49139
:1007C00061110EC09FB7F8948C91E22FE0958E23B3
:1007D0008C932881E223E8839FBFDF91CF91089516
:1007E0008FB7F894EC91E22BEC938FBFF6CF3FB725
:1007F000F8948091FF0190910002A0910102B091C4
:10080000020226B5A89B05C02F3F19F00196A11D35
:10081000B11D3FBFBA2FA92F982F8827BC01CD014A
:10082000620F711D811D911D42E0660F771F881FA9
:10083000991F4A95D1F70895AF92BF92CF92DF9258
:10084000EF92FF920F931F93CF93DF936C017B0185
:100850008B01040F151FEB015E01AE18BF08C01716
:10086000D10759F06991D601ED91FC910190F08189
:10087000E02DC6010995892B79F7C501DF91CF914C
:100880001F910F91FF90EF90DF90CF90BF90AF90AE
:100890000895FC01538D448D252F30E0842F90E086
:1008A000821B930B541710F0CF960895019708956B
:1008B000FC01918D828D981761F0A28DAE0FBF2F34
:1008C000B11D5D968C91928D9F5F9F73928F90E08A
:1008D00008958FEF9FEF0895FC01918D828D9817F9
:1008E00031F0828DE80FF11D858D90E008958FEF36
:1008F0009FEF0895FC01918D228D892F90E0805CFF
:100900009F4F821B91098F739927089583E092E08E
:100910000E947A0421E0892B09F420E0822F0895B7
:1009200080E090E0892B29F00E94860481110C94CC
:1009300000000895FC01A48DA80FB92FB11DA35A82
:10094000BF4F2C91848D90E001968F739927848FEF
:10095000A689B7892C93A089B1898C918370806412
:100960008C93938D848D981306C00288F389E02DB3
:1009700080818F7D80830895EF92FF920F931F9364
:10098000CF93DF93EC0181E0888F9B8D8C8D981342
:100990001AC0E889F989808185FF15C09FB7F8944E
:1009A000EE89FF896083E889F9898081837080649A
:1009B00080839FBF81E090E0DF91CF911F910F91E5
:1009C000FF90EF900895F62E0B8D10E00F5F1F4FF4
:1009D0000F731127E02E8C8D8E110CC00FB607FC03
:1009E000FACFE889F989808185FFF5CFCE010E9491
:1009F0009A04F1CFEB8DEC0FFD2FF11DE35AFF4F61
:100A0000F0829FB7F8940B8FEA89FB89808180621E
:100A1000CFCFCF93DF93EC01888D8823B9F0AA89DB
:100A2000BB89E889F9898C9185FD03C0808186FDA9
:100A30000DC00FB607FCF7CF8C9185FFF2CF8081F8
:100A400085FFEDCFCE010E949A04E9CFDF91CF91CF
:100A50000895EF92FF920F931F93CF93DF93EC01D2
:100A6000EC80FD806E157F050CF070C057FF04C050
:100A7000240F351F50E040E08E819F81FA01E20F84
:100A8000F31F8E179F071CF49C01241B350B1216B5
:100A900013060CF05BC0922F842F86958695869561
:100AA0008E9DD0018F9DB00D11246A0F7B1FAF8DDD
:100AB000B8A1A60FB71F477049F188E0841B482FE3
:100AC000682F70E0FB01E059FA4FE491281708F015
:100AD00063C0621B71092FEF30E002C03595279586
:100AE0006A95E2F7E2230130110539F0B0F10230E6
:100AF000110561F58C91E82702C08C91E82BEC93ED
:100B0000941720F12C813D81A20FB31FE92FE41B24
:100B1000E83078F00230110521F58E2F9C919095E8
:100B20009C932C813D81A20FB31F88508830B0F771
:100B3000E770EE2359F0F0E0E859FA4FE491013004
:100B40001105F9F010F10230110519F1DF91CF9183
:100B50001F910F91FF90EF900895E0958C91E823FD
:100B6000CECF81E00115110509F480E081959E2F1B
:100B70008C932C813D81A20FB31F98509830C0F701
:100B8000D7CF8C91E82BEC93E1CFE0958C91E823C3
:100B9000FACF8C91E827F7CF0130110509F4ADCFDA
:100BA000E0F20230110509F4A5CFAE0DBF1DAECFA6
:100BB0000F931F93CF93DF9377FF04C0260F371F48
:100BC00070E060E0DC011496CD91DC91FB01E20F56
:100BD000F31FCE17DF071CF49E01261B370B1216DE
:100BE00013064CF5FA0157FD3796A3E0F595E79506
:100BF000AA95E1F7EC9FD001ED9FB00DFC9FB00DE1
:100C000011246A0F7B1FDC015F96ED91FC91E60FCA
:100C1000F71F4770552781E090E001C0880F4A9583
:100C2000EAF7482F0130110559F0A8F02E0F3F1FA9
:100C300002301105E1F0DF91CF911F910F910895DE
:100C40002E0F3F1FE217F307B1F38191DF011197D8
:100C5000842B8C93F7CF80952E0F3F1FE217F3075D
:100C600051F39191DF01119798239C93F7CFE217ED
:100C7000F30709F38191DF01119784278C93F7CF54
:100C80000F931F93FA01DC0156964C915697423010
:100C9000E9F04330A1F1413061F514964D915C913A
:100CA000DA01AE1BBF0BFD01E21BF30B77FD0BC09E
:100CB000DC0116964D915C916417750724F4AB0125
:100CC000BF010E94D8051F910F91089514964D9170
:100CD0005C91DA01A61BB70BBD0161507109DC0103
:100CE00016964D915C91DA01AE1BBF0BFD01E21B24
:100CF000F30B77FDE8CFAF010E942905E4CF1696EC
:100D00004D915C91DA01A61BB70BBD0161507109D1
:100D1000CDCF0F931F93FA01DC0156964C91569755
:100D20004230A9F0433091F1413019F514964D91BC
:100D30005C91DA01AE1BBF0BFD013197F7FD04C0DA
:100D4000AB01BF010E9429051F910F9108951496D0
:100D50004D915C91DA01A61BB70BBD01DC01169623
:100D60004D915C91DA01AE1BBF0BFD013197621B07
:100D7000730BF7FDE9CFDC0116964D915C91E417FA
:100D8000F50714F7AF010E94D805DECF16964D91F6
:100D90005C91DA01A61BB70BBD01621B730BCECFB2
:100DA000FC0177FD64C080859185681779070CF098
:100DB0005EC057FD5CC082859385481759070CF0CB
:100DC00056C086898230B1F0833029F1813041F4F8
:100DD00084819581841B950BAB01BC016150710925
:100DE0002130310509F108F443C02230310509F4FE
:100DF00063C0089584819581DC01A61BB70BBD01FA
:100E00006150710986819781DC01A41BB50BAD018E
:100E100041505109E5CF86819781861B970BBA0116
:100E2000AC0141505109DCCFCA0157FD0796A3E040
:100E300095958795AA95E1F7A481B5818A9F900140
:100E40008B9F300D9A9F300D1124620F731F078CFA
:100E5000F0A1E02DE60FF71F4770552721E030E0A5
:100E600001C0220F4A95EAF78081822B8083089582
:100E7000CA0157FD079633E0959587953A95E1F7B6
:100E8000A481B5818A9F90018B9F300D9A9F300D70
:100E90001124620F731F078CF0A1E02DE60FF71FDE
:100EA0004770552781E090E001C0880F4A95EAF726
:100EB000809590818923DACFCA0157FD079623E0F8
:100EC000959587952A95E1F7A481B5818A9F900130
:100ED0008B9F300D9A9F300D1124620F731F078C6A
:100EE000F0A1E02DE60FF71F4770552721E030E015
:100EF00001C0220F4A95EAF780818227B7CF089573
:100F0000FC016370668B8481958126813781613015
:100F100039F0633029F091878087338722870895DD
:100F2000318720879387828708952F923F924F922F
:100F30005F926F927F928F929F92AF92BF92CF9269
:100F4000DF92EF92FF920F931F93CF93DF93CDB772
:100F5000DEB76A970FB6F894DEBF0FBECDBF9A8F8B
:100F6000898F7A8369834A01D22E18870F833701CC
:100F7000BC2CDC0159962D913C915A9721153105D5
:100F800009F015C118968D919C91199768177907EA
:100F90000CF0D7C11A968D919C91481759070CF007
:100FA000D0C14C2C512CB6E0CB9E600D711D11248C
:100FB0007C876B87161617060CF0C3C1EA2DF0E08C
:100FC000FA87E98793E0EE0FFF1F9A95E1F7F88B18
:100FD000EF87CF01840F951F181619060CF0B1C1C9
:100FE000A98DBA8D58968C91811104C0BFEABD15A8
:100FF00008F4D394A98DBA8DED91FC9111970284D8
:10100000F385E02DCD010995B5E0DB9EC0011124EB
:10101000E981FA81FC83EB83312C212C9C01285936
:101020003F4F388F2F8B4A2D50E05E8B4D8BEF89D1
:10103000F88DE20DF31D44919E828D82D12CC12C3E
:1010400069817A81620D731D7A8B698B842F90E0A0
:101050009C8B8B8BE98DFA8DA081B18140FF82C082
:10106000F1E0BF126FC0AF126DC01C96ED91FC9104
:101070002F813885A4014C0D5D1D69897A89898D80
:101080009A8D0995EB89FC89F595E7954E2F5FEFD1
:10109000C51AD50A6D817E818D899E89680F791F59
:1010A0007E836D8398E0C916D10481F6AFEF2A1ACA
:1010B0003A0AEB81FC81E40DF51DFC83EB83F5E03E
:1010C0002F16310409F0B3CF2F8138852615370547
:1010D000B9F0A98DBA8DED91FC91B1E0BB1257C06A
:1010E000AB1255C069817A816B5F7F4F0088F189AF
:1010F000E02D830128E030E0A401898D9A8D0995C7
:10110000A98DBA8DED91FC9111970688F789E02D94
:10111000CD016A960FB6F894DEBF0FBECDBFDF914A
:10112000CF911F910F91FF90EF90DF90CF90BF90E4
:10113000AF909F908F907F906F905F904F903F9077
:101140002F9009941E96ED91FC91EF80F88409850B
:101150001A8592014D815E816B817C81898D9A8D8A
:10116000099590CF2F8138852615370509F48ACF48
:1011700031E0B31207C0A31205C01C96ED91FC919B
:10118000930178CF1E96ED91FC917301E0CF6B85B2
:101190007C85641975090684F785E02D73010F8538
:1011A00018899201A401898D9A8D0995A9CFF90119
:1011B00034969491329745915491D91AB7E0DB9EB9
:1011C000400D511D1124F901259134913C8B2B8B3D
:1011D000FA0125903490FA01329674903196349148
:1011E000398B329664903196449041E04C1518F05A
:1011F0004A1508F07FC0662D062C000C770B7C8307
:101200006B83842D042C000C990B9E838D83A98DF8
:10121000BA8DED91FC9111970284F385E02DCD01FB
:101220000995512CD12CC12CEA2DF0E0FA87E987E1
:101230002B2D30E03C872B87A401440D511D47FC2A
:101240005A95588F4F8B69817A81660D711D67FCA5
:101250007A957E876D877989C71608F051CF2C2D36
:1012600030E04D815E81420F531FA985BA854A9FA8
:10127000C0014B9F900D5A9F900D1124FC01E80D69
:10128000F91DF88BEF87852D612C4F89588D420F02
:10129000531F5E8B4D8B671408F050C04424439459
:1012A000480E877041F4C1010196EB89FC89E20D7B
:1012B000F31DD4901C01D7FE19C0A98DBA8DED91F4
:1012C000FC91662D70E0B1E0BB1219C0AB1217C0E3
:1012D0002D853E85620F731F0484F585E02D2F81D7
:1012E00038854D895E89898D9A8D0995DD0C6394C9
:1012F000842DD1CF1E821D821C821B8288CF4B8100
:101300005C81640F751FAB85BC856A9FC0016B9FB4
:10131000900D7A9F900D112469817A81680F791F51
:101320000684F785E02DEF80F88409851A859D01F4
:101330004F855889898D9A8D0995D8CF570CC394BC
:101340008ACF6A960FB6F894DEBF0FBECDBFDF918D
:10135000CF911F910F91FF90EF90DF90CF90BF90B2
:10136000AF909F908F907F906F905F904F903F9045
:101370002F9008958F929F92AF92CF92EF92FF920B
:101380000F931F93CF93DF93EC01262F898D9A8DB6
:10139000009709F051C06A30D1F41D861C868D89F2
:1013A00048E0849F900111248E859F85820F931FB2
:1013B0009F878E8781E090E0DF91CF911F910F9101
:1013C000FF90EF90CF90AF909F908F9008956D30E9
:1013D00089F3CC88AD888F898823C1F08C859D8561
:1013E00036E0C39E800D911D11244885598548170C
:1013F000590764F44E855F851D861C8638E0A39EE0
:10140000C0011124840F951F9F878E87EA88FB886F
:10141000088919894E855F856C857D85CE010E947E
:1014200095072C898C859D8546E0249F800D911D14
:1014300011249D878C87BECF6A3069F41D861C8677
:10144000FC013896E4912D898E859F85E29F800D61
:10145000911D1124ADCF6D3009F4ACCFFC01349651
:101460003491631708F4A6CF3296E491E61708F496
:10147000A1CFFC01329685909490462F431B342FC8
:1014800047E0349F800C911C1124F4013296349172
:101490003196E4913323A9F1EE2399F1CC88F4013C
:1014A0003596E491AD884F89442301F10E2E000C4E
:1014B000FF0BE30FF11DCE9EA001CF9E500D112416
:1014C0006C857D85460F571F68857985641775077C
:1014D0006CF44E855F851D861C86FC013896E49170
:1014E000AE9E400D511D11245F874E87EA88FB8810
:1014F000088919894E855F856C857D85CE010E949E
:101500009507F4013496E4912C898C859D85E29FA2
:10151000800D911D11248DCF6F927F928F929F929B
:10152000AF92BF92CF92DF92EF92FF920F931F93F1
:10153000CF93DF93EC016B015A0139014801E88137
:10154000F9810284F385E02D0995E881F98102880B
:10155000F389E02D87019301A501B601CE0109951C
:10156000A501480D591D41505109E881F9810288B2
:10157000F389E02D9301B601CE010995E881F98147
:101580000088F189E02D9401A501B601CE010995ED
:10159000C60CD71CB60161507109E881F981008839
:1015A000F189E02D9401A501CE010995E881F98129
:1015B0000688F789E02DCE01DF91CF911F910F9121
:1015C000FF90EF90DF90CF90BF90AF909F908F9063
:1015D0007F906F9009946F927F928F929F92AF92BB
:1015E000BF92CF92DF92EF92FF920F931F93CF9310
:1015F000DF935C01EB016A01490138018701DC01DD
:10160000ED91FC916217730719F5641675062CF0BD
:10161000962D872D3A01C92ED82E96012619370905
:101620002F5F3F4F048CF58DE02DA301BE01C50156
:101630000995DF91CF911F910F91FF90EF90DF906F
:10164000CF90BF90AF909F908F907F906F900895B4
:101650004615570591F42617370724F0892D4B01BD
:10166000C22FD82F9E01281939092F5F3F4F068CB2
:10167000F78DE02DA601B401DACF0284F385E02DC9
:101680000995D501ED91FC910488F589E02D830140
:101690009401A601BE01C5010995D501ED91FC910A
:1016A0000688F789E02DC501DF91CF911F910F9139
:1016B000FF90EF90DF90CF90BF90AF909F908F9072
:1016C0007F906F900994EF92FF920F931F93DC012C
:1016D0001A960D911C911B9718962D913C91199774
:1016E000ED91FC9100A0F1A1E02D7B0150E040E0E4
:1016F00070E060E009951F910F91FF90EF900895C1
:101700004F925F926F927F928F929F92AF92BF9211
:10171000CF92DF92EF92FF920F931F93CF93DF93BD
:101720006C012B015A0139014801DC01ED91FC915A
:101730000284F385E02D0995E201640C751CD60145
:10174000ED91FC91C615D7055CF40088F189E02D78
:1017500087019401A501BE01C60109952196EFCF2D
:101760000688F789E02DC601DF91CF911F910F9177
:10177000FF90EF90DF90CF90BF90AF909F908F90B1
:101780007F906F905F904F9009948F929F92AF924D
:10179000BF92CF92DF92EF92FF920F931F93CF935E
:1017A000DF93EC015B014A016901E881F981028460
:1017B000F385E02D099595012C0D3D1D2150310932
:1017C000E881F9810488F589E02D78018401A4017C
:1017D000B501CE010995E881F9810688F789E02DE8
:1017E000CE01DF91CF911F910F91FF90EF90DF908D
:1017F000CF90BF90AF909F908F9009948F929F92BF
:10180000AF92BF92CF92DF92EF92FF920F931F930E
:10181000CF93DF93EC015B014A0169017801E88114
:10182000F9810284F385E02D0995C80CD91C860145
:1018300001501109E881F9810488F589E02D9501AD
:10184000A401B501CE010995E881F9810688F789DF
:10185000E02DCE01DF91CF911F910F91FF90EF907E
:10186000DF90CF90BF90AF909F908F900994089594
:10187000EF92FF920F931F93DC01ED91FC9100A07A
:10188000F1A1E02D09951F910F91FF90EF90089520
:101890000F931F93DC01ED91FC91068CF78DE02DE9
:1018A00009951F910F9108950F931F93DC01ED91FE
:1018B000FC91048CF58DE02D09951F910F910895F1
:1018C000DC01ED91FC910084F185E02D09942F92CB
:1018D0003F924F925F926F927F928F929F92AF92C0
:1018E000BF92CF92DF92EF92FF920F931F93CF930D
:1018F000DF9300D000D000D0CDB7DEB73C016A0145
:101900003E832D83FC82EB825801A41AB50AB7FEF0
:1019100003C0B194A194B1088D809E80861A970A65
:1019200097FE03C09194819491088A149B045CF003
:10193000902F812F0D811E819D838E839C2D8D2D57
:101940006B01692F782F0C151D055CF09D818E8130
:101950007E836D83692F782F902F812F8601C92E6A
:10196000D82E1601201A310A2B012D813E81421AF0
:10197000530A57FE03C0519441945108710137FE38
:1019800003C03FEFE31AF30AF594E7948D819E813B
:10199000861797075CF5A1E0B0E0BA83A983C0166B
:1019A000D1064CF1D301ED91FC910484F585E02D35
:1019B0002B813C81A8016D817E818A149B041CF0DF
:1019C0004D815E81B801C3010995E418F508F7FE61
:1019D0000AC02D813E8189819A81280F391F3E835B
:1019E0002D83E20CF31C0F5F1F4FD9CF2FEF3FEF7A
:1019F0003A832983D4CF26960FB6F894DEBF0FBE64
:101A0000CDBFDF91CF911F910F91FF90EF90DF90AD
:101A1000CF90BF90AF909F908F907F906F905F908E
:101A20004F903F902F90089508951F93CF93DF9389
:101A3000C1E0C0936501882399F1D091B80010915D
:101A4000BA008091BC008A7B8093BC0060E082E198
:101A50000E947A0360E083E10E947A031092CF0132
:101A6000C093CE011092A90161E082E10E947A0345
:101A700061E083E10E947A038091B9008E7F8093B8
:101A8000B9008091B9008D7F8093B90088E480937C
:101A9000B80085E48093BC001093BA00D093B800DE
:101AA000DF91CF911F9108958F929F92AF92BF9235
:101AB000CF92DF92EF92FF920F931F93CF93DF931A
:101AC000EC01162F8D8D9E8D892B09F4AEC02DA9AA
:101AD0003EA94FA958AD60E074E284EF90E00E9407
:101AE00055152051310941095109569547953795AA
:101AF00027952093B800112309F4A7C017EA8D8D0C
:101B00009E8D009709F41CC129A131E03093D501C5
:101B10002093F7011092D6011092F801DC01ED91AB
:101B2000FC910190F081E02D60E009958D8D9E8DF6
:101B3000DC01ED91FC910190F081E02D612F099580
:101B40000091F801013208F0A7C01091F7010E943E
:101B5000F7036B017C018091CF01811178C082E095
:101B60008093CF0181E08093CE018FEF8093CD01F0
:101B70001092CC010093CB01A7EDB1E0EBEAF1E0CC
:101B800080E00813B5C01092AA018091AA01110F3C
:101B9000182B1093AA018091A901813009F0ACC0E3
:101BA0001092A9010E94F7036B017C018091AA01A8
:101BB0008093BB008091D1019091D201A091D3017B
:101BC000B091D401892B8A2B8B2BA1F00E94F703B3
:101BD0000091D1011091D2012091D3013091D40113
:101BE0006C197D098E099F09061717072807390701
:101BF00008F44EC08091BC0083FDD8CF85EC809363
:101C0000BC000E94F7036B017C018091CF01823000
:101C100009F474C08091CD018F3FF1F18091CD0125
:101C20008032D1F18091CD0137C08B8D9C8D892B75
:101C300021F09EAD8FAD9CBD8DBDEFA5F8A9908123
:101C40008CA980958923808356CF16EA58CF80913E
:101C5000D1019091D201A091D301B091D401892BEF
:101C60008A2B8B2B09F477CF0E94F7038090D10148
:101C70009090D201A090D301B090D4016C197D094D
:101C80008E099F0986169706A806B90608F063CF45
:101C90008091D0010E94150D1092D6011092F8018A
:101CA0001092D5018D8D9E8D892B09F47DC029ADB3
:101CB0003AAD4BAD5CAD60E074E284EF90E00E9421
:101CC00055152051310941095109569547953795C8
:101CD00027952093B800DF91CF911F910F91FF902E
:101CE000EF90DF90CF90BF90AF909F908F9008952E
:101CF0009D9191938F5F45CF85EE81CF8091D101EA
:101D00009091D201A091D301B091D401892B8A2B5B
:101D10008B2B09F47ACF0E94F7030091D101109127
:101D2000D2012091D3013091D4016C197D098E0923
:101D30009F09061717072807390708F066CFA8CFAD
:101D4000EDA5FEA590818BA98095892380838B8D3D
:101D50009C8D892B39F01EBD00000DB407FEFDCF10
:101D60008EB5A0CF28E030E090E8E9A5FAA589A9D2
:101D7000412F4923A9F04081842B8083EBA5FCA54A
:101D800080814AA9842B8083EBA5FCA540818AA988
:101D900080958423808396952150310931F782CF35
:101DA000408180958423E9CFEFA5F8A980819CA983
:101DB000892B808390CF20918601260F3327331FF4
:101DC00021323105ECF42091CF01FC0190E080E05C
:101DD000243069F082E00895A09186012191AC0140
:101DE0004A595E4FA40FB52FB11D2C93019686174B
:101DF00098F380918601680F6093860180E00895D2
:101E000081E008958FEF9FEF08958FEF9FEF089582
:101E10008091640190E09195819591090895CF9208
:101E2000DF92EF92FF920F931F93CF93DF937C018A
:101E3000CB018A012091D501222389F0EB016B01AE
:101E4000C40ED51ECC15DD0569F06991D701ED9161
:101E5000FC910190F081E02DC7010995F3CF642F2B
:101E60000E94DB0EC801DF91CF911F910F91FF906F
:101E7000EF90DF90CF900895CF93DF931F92CDB76F
:101E8000DEB769832091D5012223F9F02091F80172
:101E9000203258F021E030E0FC013383228390E0CF
:101EA00080E00F90DF91CF9108958091D601E82FC7
:101EB000F0E0E952FE4F998190838F5F8093D601C5
:101EC0008093F80181E090E0ECCF61E0CE010196D3
:101ED0000E94DB0EF7CF90E080E00895FC010190B6
:101EE0000020E9F73197AF01481B590BBC0183E093
:101EF00092E00C941C040E94EE1785ED8093BC00C8
:101F00008091D1019091D201A091D301B091D401DF
:101F10000796A11DB11D23E0B695A79597958795C6
:101F20002A95D1F72091BC0024FD03C01092CF0167
:101F300008954091D1015091D2016091D3017091E7
:101F4000D401452B462B472B69F30097A105B1051A
:101F500041F02AE22A95F1F700C00197A109B109E1
:101F6000E1CF8091D0010C94150D1F920F920FB606
:101F70000F9211242F933F938F939F93AF93BF930F
:101F80008091FB019091FC01A091FD01B091FE01B7
:101F90003091FA0123E0230F2D3758F50196A11D4A
:101FA000B11D2093FA018093FB019093FC01A09353
:101FB000FD01B093FE018091FF0190910002A0917C
:101FC0000102B09102020196A11DB11D8093FF0193
:101FD00090930002A0930102B0930202BF91AF91CF
:101FE0009F918F913F912F910F900FBE0F901F9057
:101FF000189526E8230F0296A11DB11DD2CF1F927E
:102000000F920FB60F9211242F933F934F935F932C
:102010006F937F938F939F93AF93BF93EF93FF93B0
:1020200083E092E00E949A04FF91EF91BF91AF91FB
:102030009F918F917F916F915F914F913F912F91E0
:102040000F900FBE0F901F9018951F920F920FB612
:102050000F9211242F938F939F93EF93FF93E0910F
:102060001302F09114028081E0911902F0911A029A
:1020700082FD1BC0908180911C028F5F8F73209125
:102080001D02821741F0E0911C02F0E0ED5FFD4F70
:10209000958F80931C02FF91EF919F918F912F91CB
:1020A0000F900FBE0F901F9018958081F4CF1F9254
:1020B0000F920FB60F9211242F933F934F935F937C
:1020C0006F937F938F939F93AF93BF93CF93DF9340
:1020D000EF93FF938091F901C091C402D0E087FF94
:1020E00024C010928500109284008091F9018F5FC6
:1020F0008093F9018091F901082E000C990B8C173F
:102100009D0724F48091F9018C30C4F18091840002
:1021100090918500049680349C4908F47AC080919F
:10212000840090918500049676C08091F901082E74
:10213000000C990B8C179D07C4F6E091F9018E2FC6
:10214000EE0F990BFC01EE0FFF1FE80FF91FE05691
:10215000FD4F808186FFC9CFE091F9018E2FEE0FF0
:10216000990BFC01EE0FFF1FE80FF91FE056FD4F22
:10217000808160E08F730E947A03B7CF2091840042
:1021800030918500E091F9018E2FEE0F990BFC0143
:10219000EE0FFF1FE80FF91FE056FD4F818192817E
:1021A000820F931F9093890080938800E091F9013A
:1021B0008E2FEE0F990BFC01EE0FFF1FE80FF91F9A
:1021C000E056FD4F808186FF11C0E091F9018E2F0E
:1021D000EE0F990BFC01EE0FFF1FE80FF91FE05601
:1021E000FD4F808161E08F730E947A03FF91EF9130
:1021F000DF91CF91BF91AF919F918F917F916F911F
:102200005F914F913F912F910F900FBE0F901F90B4
:10221000189580E49CE990938900809388008FEF63
:102220008093F901E3CF1F920F920FB60F92112402
:102230002F933F934F935F936F937F938F939F93CE
:10224000AF93BF93EF93FF938091B900887F80365F
:1022500009F44AC0F0F5883209F4A5C018F58031B8
:1022600009F499C0B8F4882309F4F5C0883009F45A
:1022700092C0FF91EF91BF91AF919F918F917F910C
:102280006F915F914F913F912F910F900FBE0F90E3
:102290001F901895883109F486C0803251F78093D9
:1022A000CD0114C0803409F49BC040F48033B9F3ED
:1022B0008833F9F68093CD0185ECAEC0803509F402
:1022C00083C0883509F494C0883499F60E947D0F44
:1022D000D0CF883909F48AC038F5883729F050F40E
:1022E000883611F0803729F683E08093CF01109271
:1022F000A80155C0883809F479C0803919F08038B0
:1023000009F0B7CF8091A801803208F06FC0E0914A
:10231000A80181E08E0F8093A8018091BB00F0E0BE
:10232000E857FE4F80833BC0803B39F0D0F4803AC1
:1023300009F477C0883A09F09CCF84E08093CF01FC
:102340001092870110928601F0E0E0E009958091FB
:10235000860181110FC081E0809386011092660191
:1023600009C0803C09F4A8CF883C09F4A5CF883B7C
:1023700009F07FCFE091870181E08E0F8093870184
:10238000F0E0EA59FE4F80818093BB009091870175
:102390008091860129C08091AA018093BB0085ECC1
:1023A0008093BC0066CF9091CC018091CB019817AF
:1023B00058F5E091CC0181E08E0F8093CC01F0E0E4
:1023C000E555FE4F8081E9CFE091CC0181E08E0F91
:1023D0008093CC018091BB00F0E0E555FE4F8083F7
:1023E0009091CC018091CB019817C8F285E8D8CFA5
:1023F000E091CC0181E08E0F8093CC018091BB00F5
:10240000F0E0E555FE4F80838091CE0181115ECFD3
:1024100081E08093A90184EA8093BC001092CF01EF
:1024200028CF85EC8093BC001092CF018091A80149
:10243000803230F4E091A801F0E0E857FE4F1082BE
:102440006091A80170E088E891E0F0E0E0E0099593
:102450001092A8010ECF1092CD0138CFCF92DF920B
:10246000EF92FF920F931F93E82FF92F05C00150B1
:1024700011092109310961F1908196239417B9F36B
:1024800005C0015011092109310911F190819623EC
:102490009413F7CFC12CD12CE12CF12C0AC08FEF73
:1024A000C81AD80AE80AF80A0C151D052E053F05BA
:1024B00079F080818623841791F36C2D7D2D8E2DEC
:1024C0009F2D1F910F91FF90EF90DF90CF90089577
:1024D00060E070E080E090E01F910F91FF90EF903E
:1024E000DF90CF900895109206021092050288EEB8
:1024F00093E0A0E0B0E08093070290930802A093DD
:102500000902B0930A022AE031E0309304022093DA
:10251000030225EC30E03093100220930F0224ECEC
:1025200030E0309312022093110220EC30E030931F
:1025300014022093130221EC30E030931602209312
:10254000150222EC30E0309318022093170226EC9B
:1025500030E030931A022093190210921C0210925C
:102560001D0210921E0210921F021092CB021092B6
:10257000CA028093CC029093CD02A093CE02B09376
:10258000CF028CE191E09093C9028093C80210922F
:10259000D7021092D60220E830E03093D90220937F
:1025A000D80280E490E09093DB028093DA023093CB
:1025B000DD022093DC029093DF028093DE02109212
:1025C000EA021092E1021092E0021092E3021092ED
:1025D000E20281E08093E9028093E8022FEF3FEF6F
:1025E0003093E7022093E6023093E5022093E40261
:1025F0008093EB021092EC021092EE021092ED0228
:102600008EE291E09093D5028093D4021092F00272
:102610001092EF0288EC92E09093F2028093F10224
:102620001092F4021092F3029FEF9093F8029093AD
:10263000F9029093FA029093FB0284E08093FC02EB
:1026400040E85AE166E070E04093090350930A03C2
:1026500060930B0370930C0340EA56E861E070E06E
:1026600040930D0350930E0360930F037093100378
:1026700080E580931203109213038091C4028C3082
:1026800098F491E0980F9093C4028093C50290E073
:10269000FC01EE0FFF1FE80FF91FE056FD4F88EB1E
:1026A0009BE09283818308959093C5020895CF9310
:1026B000DF93CDB7DEB7A1970FB6F894DEBF0FBE9C
:1026C000CDBF789484B5826084BD84B5816084BDBB
:1026D00085B5826085BD85B5816085BD80916E00C0
:1026E000816080936E0010928100809181008260F1
:1026F000809381008091810081608093810080912E
:1027000080008160809380008091B100846080931C
:10271000B1008091B00081608093B00080917A0018
:10272000846080937A0080917A00826080937A003E
:1027300080917A00816080937A0080917A0080682D
:1027400080937A001092C100E0911302F09114027C
:1027500082E08083E0910F02F09110021082E091FC
:102760001102F09112028FEC808310921B02E09113
:102770001702F091180286E08083E0911502F09133
:102780001602808180618083E0911502F09116022B
:10279000808188608083E0911502F091160280812B
:1027A00080688083E0911502F091160280818F7D10
:1027B000808361E089E00E94C60360E08AE00E94B5
:1027C000C6038091C5028C3008F051C061E086E0FC
:1027D0000E94C6038091C502282F30E0F901EE0F58
:1027E000FF1FE20FF31FE056FD4F9081907C966033
:1027F00090831092C6021092C7022CE0622F0E94B2
:10280000B716829FB001112430E020E0AB01420FE7
:10281000531FFA01EE0FFF1FE40FF51FE056FD4FA7
:10282000908196FD16C02F5F3F4F2C30310571F718
:1028300081110FC01092800082E08093810010927D
:10284000850010928400B19A80916F00826080931D
:102850006F00E091C5028E2F90E0FC01EE0FFF1F8C
:10286000E80FF91FE056FD4F80818064808323E0EC
:10287000222E312C3AE0432E512C612C712C60E039
:1028800089E00E947A03C1010197F1F761E089E0D4
:102890000E947A0383E290E00197F1F760E089E01B
:1028A0000E947A03E4EBF5E06491E0EAF5E08491BC
:1028B000E82FF0E0EE0FFF1FE858FA4F8591949152
:1028C00000E412E42FE030E0462F0E942E12611542
:1028D00071058105910529F06F5F7F4F8F4F9F4FE5
:1028E0009F700E94BE1526E933E44BE05DE30E9431
:1028F000221620E030E040E05FE30E9422160E94B2
:1029000086156B017C0186E591E00E946E0FF7FE53
:1029100072C06DE283E092E00E94BC04222733275C
:10292000A9012C193D094E095F0919A28E010F5DFD
:102930001F4FCA01B901A30192010E945515605DA4
:10294000F80162938F01211531054105510589F781
:102950000115110519F0C8010E946E0F81E691E082
:102960000E946E0F90E080E0FBE0CF16D104E104FE
:10297000F10474F02BE0C21AD108E108F1088AE0F2
:10298000C816D104E104F10408F04BC08AE590E0D8
:102990000E9415030E94F7034B015C0184E6C82ED8
:1029A000D12CE12CF12C0E94F703681979098A09CE
:1029B0009B09683E734081059105A8F391E0C91A0F
:1029C000D108E108F108E8EE8E0EE3E09E1EA11C9E
:1029D000B11CC114D104E104F10429F780E090E0B6
:1029E000892B09F44CCF0E948604882309F447CF31
:1029F0000E94000044CFA701960119A28E010F5D2D
:102A00001F4FCA01B901A30192010E945515605DD3
:102A1000F80162938F01211531054105510589F7B0
:102A200097CF84EB90E0B4CF8EE291E09093D50203
:102A30008093D4028091F3029091F402009711F0F8
:102A40000C9465170895052E97FB1EF400940E94C0
:102A50003A1557FD07D00E94551507FC03D04EF4D8
:102A60000C943A1550954095309521953F4F4F4F16
:102A70005F4F089590958095709561957F4F8F4F2A
:102A80009F4F08950E947715A59F900DB49F900DBC
:102A9000A49F800D911D11240895B7FF0C94421539
:102AA0000E944215821B930B0895A1E21A2EAA1BC5
:102AB000BB1BFD010DC0AA1FBB1FEE1FFF1FA217EE
:102AC000B307E407F50720F0A21BB30BE40BF50BEB
:102AD000661F771F881F991F1A9469F76095709574
:102AE000809590959B01AC01BD01CF010895A29FF7
:102AF000B001B39FC001A39F700D811D1124911DD2
:102B0000B29F700D811D1124911D08950E948D1595
:102B10006894B1110C941C1608950E94011688F057
:102B20009F5798F0B92F9927B751B0F0E1F0660F91
:102B3000771F881F991F1AF0BA95C9F714C0B130D2
:102B400091F00E941B16B1E008950C941B16672F9C
:102B5000782F8827B85F39F0B93FCCF38695779501
:102B60006795B395D9F73EF49095809570956195EA
:102B70007F4F8F4F9F4F0895E89409C097FB3EF415
:102B800090958095709561957F4F8F4F9F4F9923BA
:102B9000A9F0F92F96E9BB279395F6958795779538
:102BA0006795B795F111F8CFFAF4BB0F11F460FFF8
:102BB0001BC06F5F7F4F8F4F9F4F16C0882311F050
:102BC00096E911C0772321F09EE8872F762F05C064
:102BD000662371F096E8862F70E060E02AF09A95FF
:102BE000660F771F881FDAF7880F9695879597F9F4
:102BF000089557FD9058440F551F59F05F3F71F0ED
:102C00004795880F97FB991F61F09F3F79F0879553
:102C10000895121613061406551FF2CF4695F1DFDC
:102C200008C0161617061806991FF1CF869571056C
:102C3000610508940895E894BB2766277727CB01A0
:102C400097F908950E9435160C94A6160E949816BE
:102C500038F00E949F1620F0952311F00C948F16E7
:102C60000C94951611240C941C160E94F91570F3FF
:102C7000959FC1F3950F50E0551F629FF001729F21
:102C8000BB27F00DB11D639FAA27F00DB11DAA1F30
:102C9000649F6627B00DA11D661F829F2227B00D7D
:102CA000A11D621F739FB00DA11D621F839FA00D08
:102CB000611D221F749F3327A00D611D231F849F58
:102CC000600D211D822F762F6A2F11249F575040AF
:102CD0009AF0F1F088234AF0EE0FFF1FBB1F661F2A
:102CE000771F881F91505040A9F79E3F510580F0F3
:102CF0000C948F160C941C165F3FE4F3983ED4F3AB
:102D0000869577956795B795F795E7959F5FC1F796
:102D1000FE2B880F911D9695879597F9089597F941
:102D20009F6780E870E060E008959FEF80EC089571
:102D300000240A941616170618060906089500249A
:102D40000A9412161306140605060895092E039414
:102D5000000C11F4882352F0BB0F40F4BF2B11F488
:102D600060FF04C06F5F7F4F8F4F9F4F0895991B87
:102D700079E004C0991F961708F0961B881F7A9572
:102D8000C9F780950895EE0FFF1F0590F491E02D8F
:102D900009940F931F93CF93DF938230910510F422
:102DA00082E090E0E0911603F091170330E020E01C
:102DB000B0E0A0E0309799F42115310509F44AC03C
:102DC000281B390B24303105D8F58A819B81611588
:102DD000710589F1FB0193838283FE0111C040815B
:102DE00051810281138148175907E0F048175907AC
:102DF00099F4109761F012960C93129713961C9306
:102E00003296CF01DF91CF911F910F9108950093DA
:102E1000160310931703F4CF2115310551F0421713
:102E2000530738F0A901DB019A01BD01DF01F80168
:102E3000C1CFEF01F9CF9093170380931603CDCF45
:102E4000FE01E20FF31F81939193225031093983E0
:102E50002883D7CF2091140330911503232B41F4FD
:102E60002091020130910301309315032093140344
:102E700020910001309101012115310541F42DB758
:102E80003EB74091040150910501241B350BE091A0
:102E90001403F0911503E217F307A0F42E1B3F0B68
:102EA0002817390778F0AC014E5F5F4F24173507BC
:102EB00048F04E0F5F1F5093150340931403819306
:102EC00091939FCFF0E0E0E09CCFCF93DF9300970A
:102ED000E9F0FC01329713821282A0911603B0919F
:102EE0001703ED0130E020E01097A1F4208131813B
:102EF000820F931F2091140330911503281739076F
:102F000009F061C0F0931503E0931403DF91CF91B2
:102F10000895EA01CE17DF07E8F54A815B819E013B
:102F200041155105B1F7E901FB83EA8349915991B4
:102F3000C40FD51FEC17FD0761F4808191810296C3
:102F4000840F951FE90199838883828193819B83F4
:102F50008A83F0E0E0E012968D919C9113970097A0
:102F6000B9F52D913C911197CD010296820F931FD7
:102F700020911403309115032817390739F630973B
:102F800051F51092170310921603B0931503A093F6
:102F90001403BCCFD383C28340815181840F951F1A
:102FA000C817D90761F44E5F5F4F88819981480F38
:102FB000591F518340838A819B819383828321158A
:102FC000310509F0B0CFF0931703E09316039ECFBD
:102FD000FD01DC01C0CF13821282D7CF81E090E0E7
:102FE000F8940C94F31712E0CAEED2E004C0FE018C
:102FF0000E94C3162196CB3ED107C9F7F894FFCFA4
:1030000000001803800000000000BC041C044904F8
:1030100009057A0458046C04000000003C0F0F0FEF
:103020006B0F370C080F050F020F00000000BA09E4
:103030001C046B0F140DD006370C600C380C540CAC
:10304000480C670C370C8007540D40068906800B2E
:10305000630BEB0A8C0A44697374616E63653A20F2
:04306000000D0A0055
:00000001FF
