:100000000C9447050C94D7140C94B0140C946F0501
:100010000C946F050C946F050C946F050C946F0590
:100020000C946F050C946F050C946F050C94751669
:100030000C946F050C946F050C946F050C946F0570
:100040000C9466140C946F050C9424150C94FE14F7
:100050000C946F050C946F050C946F050C946F0550
:100060000C9456150C946F05000000002300260028
:10007000290000000000003E5B4F5B3E3E6B4F6B73
:100080003E1C3E7C3E1C183C7E3C181C577D571C79
:100090001C5E7F5E1C00183C1800FFE7C3E7FF00F2
:1000A00018241800FFE7DBE7FF30483A060E262940
:1000B000792926407F050507407F05253F5A3CE703
:1000C0003C5A7F3E1C1C08081C1C3E7F14227F22C9
:1000D000145F5F005F5F06097F017F006689956A94
:1000E000606060606094A2FFA29408047E0408101F
:1000F000207E201008082A1C08081C2A08081E1048
:100100001010100C1E0C1E0C30383E3830060E3EFF
:100110000E06000000000000005F0000000700075E
:1001200000147F147F14242A7F2A12231308646288
:1001300036495620500008070300001C22410000E9
:1001400041221C002A1C7F1C2A08083E0808008047
:1001500070300008080808080000606000201008DF
:1001600004023E5149453E00427F400072494949E0
:10017000462141494D331814127F10274545453912
:100180003C4A494931412111090736494949364616
:100190004949291E000014000000403400000008F6
:1001A0001422411414141414004122140802015999
:1001B00009063E415D594E7C1211127C7F49494926
:1001C000363E414141227F4141413E7F49494941BB
:1001D0007F090909013E414151737F0808087F00EA
:1001E000417F41002040413F017F081422417F4070
:1001F0004040407F021C027F7F0408107F3E414147
:10020000413E7F090909063E4151215E7F091929B6
:1002100046264949493203017F01033F4040403FA0
:100220001F2040201F3F4038403F631408146303E1
:10023000047804036159494D43007F414141020460
:10024000081020004141417F040201020440404067
:100250004040000307080020545478407F2844445D
:10026000383844444428384444287F385454541877
:1002700000087E090218A4A49C787F080404780072
:10028000447D40002040403D007F10284400004154
:100290007F40007C047804787C0804047838444467
:1002A0004438FC1824241818242418FC7C0804045E
:1002B00008485454542404043F44243C4040207CC7
:1002C0001C2040201C3C4030403C44281028444C1A
:1002D0009090907C4464544C4400083641000000E7
:1002E000770000004136080002010204023C262388
:1002F000263C1EA1A161123A4040207A3854545540
:100300005921555579412254547842215554784009
:1003100020545579400C1E52721239555555593991
:100320005454545939555454580000457C410002E6
:10033000457D420001457C407D1211127DF028254B
:1003400028F07C545545002054547C547C0A097F85
:100350004932494949323A4444443A324A48483099
:100360003A4141217A3A42402078009DA0A07D3D4B
:100370004242423D3D4040403D3C24FF2424487ED3
:100380004943662B2FFC2F2BFF0929F620C0887EBE
:10039000090320545479410000447D413048484AC3
:1003A00032384040227A007A0A0A727D0D19317D76
:1003B0002629292F28262929292630484D4020384A
:1003C0000808080808080808382F10C8ACBA2F1009
:1003D0002834FA00007B000008142A142222142A70
:1003E00014085500550055AA55AA55AAFF55FF55A2
:1003F000FF000000FF00101010FF00141414FF0095
:100400001010FF00FF1010F010F0141414FC001472
:1004100014F700FF0000FF00FF1414F404FC141490
:1004200017101F10101F101F1414141F001010108D
:10043000F0000000001F101010101F10101010F01E
:1004400010000000FF101010101010101010FF10FE
:10045000000000FF140000FF00FF00001F10170045
:1004600000FC04F414141710171414F404F400001E
:10047000FF00F714141414141414F700F7141414D0
:10048000171410101F101F141414F4141010F0106F
:10049000F000001F101F0000001F14000000FC14DB
:1004A0000000F010F01010FF10FF141414FF1410CF
:1004B00010101F00000000F010FFFFFFFFFFF0F022
:1004C000F0F0F0FFFFFF0000000000FFFF0F0F0F34
:1004D0000F0F3844443844FC4A4A4A347E0202062C
:1004E00006027E027E0263554941633844443C045F
:1004F000407E201E2006027E020299A5E7A5991CD7
:100500002A492A1C4C7201724C304A4D4D303048F9
:10051000784830BC625A463D3E494949007E010157
:10052000017E2A2A2A2A2A44445F444440514A44EC
:100530004040444A51400000FF0103E080FF0000BA
:1005400008086B6B083612362436060F090F0600B2
:100550000018180000001010003040FF0101001FBB
:1005600001011E00191D1712003C3C3C3C0000001C
:100570000000000103070F1F3F7F0080C0E0F0F87C
:10058000FCFEDB40A4A62EAF2000A1C8D300408D06
:10059000AED580A800006000000000000000000050
:1005A0000000000000E0000000000000000000006B
:1005B00000000001E000000000000000000000005A
:1005C000000001F00000000000000000000000003A
:1005D0000003F00000000000000000000000000028
:1005E00007F000000000000000000000000000070D
:1005F000F8000000000000000000000000000FF8FC
:1006000000000003C0007E000001E0007F0FF80042
:10061000000003C000FE000001E000FFEFF8000052
:100620000003C000FE000001E000FFFFF800000032
:1006300003C000F00000000F007FFE7FC000000339
:10064000C000F00000000F003FFE7FF83FF1FBCF3D
:10065000FCFEF3BC3DEFE01FFE7FFF7FFBFFDFFEF4
:10066000FEFFBC3DEFE01FC6FFFF7FFBFFDFFEFE8E
:10067000FFBC3DEFE00FE3C7FE787BC3DE1EF0FF5B
:10068000BC3DEF0007FF87FC787BC3DE1EF0F83C23
:100690003DEF0001FFFFF0007BC3C01EF0F03C3DCA
:1006A000EF0001F37FE03FFBC3CFFEF0F03C3DEFF6
:1006B0000003E33F807FFBC3DFFEF0F03C3DEF0033
:1006C00007E73C00787BC3DE1EF0F03C3DEF0007FF
:1006D000FFBE00787BC3DE1EF0F03C3DEF0007FF5D
:1006E000FE00787BC3DE1EF0F03C3DEF000FFFFE06
:1006F000007FFBFFDFFEF0F03FFDEFE00FFFFF00AC
:100700007FFBFFDFFEF0F03FFDEFE00FF9FF003E63
:1007100079F9CF9EF0F01F3DE7E01FF1FF000000E8
:100720000000000000000000001F80FF007FFFFFAE
:10073000FFFFFFFFFFFFFFE01C007F007FFFFFFFC9
:10074000FEB46D888D18E000001F007FFFFFFFFEE4
:1007500095AD7DB577E000000F007FFFFFFFFEA5A0
:10076000AD9D8D19E0000006007FFFFFFFFEB5ADD7
:10077000EDB57EE0000000000001800000000000F8
:1007800000000000038000000000000000000007DF
:10079000C000000000000000000007C000000000D2
:1007A00000000000000FC00000000000000000007A
:1007B0001FE00000000000000000001FE00000003B
:1007C0000000000000003FE000000000000000000A
:1007D000003FF00000000000000000007FF000007B
:1007E00000000000001FF87FF00000000000000083
:1007F0003FFE7FF0000000000000003FFF7FF000A0
:100800000000000000001FFFFBE0000000000000EF
:10081000000FFFF9FFC00000000000000FFFF9FF0C
:10082000F800000000000007FFF1FFFF00000000DB
:10083000000003FC73FFFF80000000000001FE3F8A
:10084000FFFF80000000000000FF1E0FFF000000FF
:10085000000000007FFE1FFC000000000000003FC1
:10086000FFFFF8000000000000000FDFFFE00000C5
:1008700000000000001F19FFC00000000000000081
:100880003F3CFF00000000000000007E7CF80000FC
:100890000000000000007FFE7C000000000000005F
:1008A00000FFFFFC0000000000000000FFFFFE0052
:1008B00000000000000000FFFFFE0000000000003C
:1008C0000001FFEFFE0000000000000001FFCFFE6E
:1008D0000000000000000003FF07FE000000000011
:1008E000000003FC07FE0000000000000003F0030E
:1008F000FE00000000000000018000FE000000007B
:100900000000000000007E00000000000000000069
:10091000003E000000000000000000000C0000008D
:10092000000000078000FC000003C00000000780FA
:1009300001FC000003C0000000078001FC00000370
:10094000C0000000078001E00000001E000000075A
:100950008001E00000001E007FE3F79FF9FDE778CB
:100960007BDFC0FFF7FFBFFDFDFF787BDFC0FFF738
:10097000FFBFFDFDFF787BDFC0F0F787BC3DE1FFE7
:10098000787BDE00F0F787BC3DE1F0787BDE00008D
:10099000F787803DE1E0787BDE007FF7879FFDE110
:1009A000E0787BDE00FFF787BFFDE1E0787BDE00CB
:1009B000F0F787BC3DE1E0787BDE00F0F787BC3DD7
:1009C000E1E0787BDE00F0F787BC3DE1E0787BDE9C
:1009D00000FFF7FFBFFDE1E07FFBDFC0FFF7FFBFD8
:1009E000FDE1E07FFBDFC07CF3F39F3DE1E03E7B78
:1009F000CFC00000000000000000000000FFFFFF6B
:100A0000FFFFFFFFFFFFFFC0FFFFFFFFFD68DB11E0
:100A10001A31C0FFFFFFFFFD2B5AFB6AEFC0FFFF3B
:100A2000FFFFFD4B5B3B1A33C0FFFFFFFFFD6B5B1E
:100A3000DB6AFDC02200FF21000000000024002727
:100A4000002A0000000000250028002B00040404F8
:100A50000404040404020202020202030303030367
:100A60000301020408102040800102040810200144
:100A70000204081020000000080002010000030426
:100A8000070000000000000000007617571D112429
:100A90001FBECFEFD8E0DEBFCDBF12E0A0E0B1E0D7
:100AA000E4E9F0E402C005900D92A230B107D9F755
:100AB00023E0A2E0B2E001C01D92A33EB207E1F73D
:100AC00015E0C6E4D5E004C02197FE010E94061F90
:100AD000C534D107C9F70E945C180C943D200C94D2
:100AE00000008F929F92AF92BF92FF920F931F933D
:100AF000CF93DF93F090DC032BE02F1508F44CC06C
:100B00002091DE0308E512E0021B110927FD139571
:100B1000000F111F000F111F2091DD03C8E8D0E066
:100B2000C21BD10927FDD395CC0FDD1FCC0FDD1FD4
:100B30004E010D2E000CAA08BB089801012E000CD6
:100B4000440B550B281939094A095B09DC010E943D
:100B5000901D24EB30E040E050E00E94661D820EC4
:100B6000931EA41EB51E8C169D062CF0E80180165F
:100B700091060CF4E4012297CC0FDD1F2FB7F894F7
:100B80008F2D90E0FC01EE0FFF1FE80FF91FE559D4
:100B9000FC4FD283C1832FBFDF91CF911F910F9163
:100BA000FF90BF90AF909F908F900895089590E030
:100BB000FC01EB58F54F2491FC01EF59F54F3491AE
:100BC000FC01E35BF54FE491EE23C9F0222339F0F9
:100BD000233001F1A8F4213019F1223029F1F0E09D
:100BE000EE0FFF1FED5BF54FA591B4918FB7F89411
:100BF000EC91611126C030953E233C938FBF089540
:100C00002730A9F02830C9F0243049F780918000BE
:100C10008F7D03C0809180008F7780938000DFCF2D
:100C200084B58F7784BDDBCF84B58F7DFBCF80917A
:100C3000B0008F778093B000D2CF8091B0008F7DCD
:100C4000F9CF3E2BDACFCF93DF9390E0FC01EF5941
:100C5000F54F2491835B954FFC0184918823C9F063
:100C600090E0880F991FFC01E75CF54FA591B491C6
:100C7000FC01ED5BF54FC591D49161110DC09FB79B
:100C8000F8948C91209582238C9388812823288343
:100C90009FBFDF91CF910895623051F49FB7F894D0
:100CA0003C91822F809583238C93E8812E2BEFCF6C
:100CB0008FB7F894EC912E2B2C938FBFEACF3FB7D0
:100CC000F8948091C6029091C702A091C802B09199
:100CD000C90226B5A89B05C02F3F19F00196A11D9A
:100CE000B11D3FBFBA2FA92F982F8827BC01CD0176
:100CF000620F711D811D911D42E0660F771F881FD5
:100D0000991F4A95D1F708958F929F92AF92BF9203
:100D1000CF92DF92EF92FF924B015C010E945F063F
:100D20006B017C010E945F066C197D098E099F0989
:100D3000683E734081059105A8F321E0821A91086D
:100D4000A108B10888EEC80E83E0D81EE11CF11C92
:100D500081149104A104B10429F7FF90EF90DF9072
:100D6000CF90BF90AF909F908F9008950895089571
:100D70000895AF92BF92CF92DF92EF92FF920F93BE
:100D80001F93CF93DF936C017B018B01040F151F21
:100D9000EB015E01AE18BF08C017D10759F0699189
:100DA000D601ED91FC910190F081E02DC6010995ED
:100DB000892B79F7C501DF91CF911F910F91FF909A
:100DC000EF90DF90CF90BF90AF900895FC01538DCE
:100DD000448D252F30E0842F90E0821B930B541715
:100DE00010F0CF96089501970895FC01918D828DA2
:100DF000981761F0A28DAE0FBF2FB11D5D968C913B
:100E0000928D9F5F9F73928F90E008958FEF9FEF79
:100E10000895FC01918D828D981731F0828DE80F35
:100E2000F11D858D90E008958FEF9FEF0895FC01EF
:100E3000918D228D892F90E0805C9F4F821B9109BC
:100E40008F73992708958EEC92E00E94170721E096
:100E5000892B09F420E0822F089580E090E0892B0F
:100E600029F00E94230781110C9400000895FC01D1
:100E7000A48DA80FB92FB11DA35ABF4F2C91848DFB
:100E800090E001968F739927848FA689B7892C9358
:100E9000A089B1898C91837080648C93938D848DAB
:100EA000981306C00288F389E02D80818F7D8083AE
:100EB0000895EF92FF920F931F93CF93DF93EC016E
:100EC00081E0888F9B8D8C8D98131AC0E889F989F1
:100ED000808185FF15C09FB7F894EE89FF896083F4
:100EE000E889F98980818370806480839FBF81E075
:100EF00090E0DF91CF911F910F91FF90EF900895B7
:100F0000F62E0B8D10E00F5F1F4F0F731127E02E91
:100F10008C8D8E110CC00FB607FCFACFE889F989C9
:100F2000808185FFF5CFCE010E943707F1CFEB8D91
:100F3000EC0FFD2FF11DE35AFF4FF0829FB7F8949D
:100F40000B8FEA89FB8980818062CFCFCF93DF93BB
:100F5000EC01888D8823B9F0AA89BB89E889F989D1
:100F60008C9185FD03C0808186FD0DC00FB607FC06
:100F7000F7CF8C9185FFF2CF808185FFEDCFCE0139
:100F80000E943707E9CFDF91CF910895EF92FF924A
:100F90000F931F93CF93DF93EC01EC80FD806E15D0
:100FA0007F050CF070C057FF04C0240F351F50E0C0
:100FB00040E08E819F81FA01E20FF31F8E179F0799
:100FC0001CF49C01241B350B121613060CF05BC09D
:100FD000922F842F8695869586958E9DD0018F9D24
:100FE000B00D11246A0F7B1FAF8DB8A1A60FB71FDC
:100FF000477049F188E0841B482F682F70E0FB019F
:10100000E658FA4FE491281708F063C0621B710993
:101010002FEF30E002C0359527956A95E2F7E2237D
:101020000130110539F0B0F10230110561F58C91F4
:10103000E82702C08C91E82BEC93941720F12C81C7
:101040003D81A20FB31FE92FE41BE83078F0023096
:10105000110521F58E2F9C9190959C932C813D81BB
:10106000A20FB31F88508830B0F7E770EE2359F015
:10107000F0E0EE58FA4FE49101301105F9F010F16B
:101080000230110519F1DF91CF911F910F91FF905F
:10109000EF900895E0958C91E823CECF81E0011583
:1010A000110509F480E081959E2F8C932C813D8160
:1010B000A20FB31F98509830C0F7D7CF8C91E82B70
:1010C000EC93E1CFE0958C91E823FACF8C91E8275F
:1010D000F7CF0130110509F4ADCFE0F20230110570
:1010E00009F4A5CFAE0DBF1DAECF0F931F93CF93C5
:1010F000DF9377FF04C0260F371F70E060E0DC014C
:101100001496CD91DC91FB01E20FF31FCE17DF07A0
:101110001CF49E01261B370B121613064CF5FA0120
:1011200057FD3796A3E0F595E795AA95E1F7EC9F73
:10113000D001ED9FB00DFC9FB00D11246A0F7B1FF5
:10114000DC015F96ED91FC91E60FF71F4770552784
:1011500081E090E001C0880F4A95EAF7482F0130FE
:10116000110559F0A8F02E0F3F1F02301105E1F0D4
:10117000DF91CF911F910F9108952E0F3F1FE2171E
:10118000F307B1F38191DF011197842B8C93F7CF93
:1011900080952E0F3F1FE217F30751F39191DF0166
:1011A000119798239C93F7CFE217F30709F38191E6
:1011B000DF01119784278C93F7CF0F931F93FA01C8
:1011C000DC0156964C9156974230E9F04330A1F13C
:1011D000413061F514964D915C91DA01AE1BBF0B65
:1011E000FD01E21BF30B77FD0BC0DC0116964D9160
:1011F0005C916417750724F4AB01BF010E94750868
:101200001F910F91089514964D915C91DA01A61BE0
:10121000B70BBD0161507109DC0116964D915C91CF
:10122000DA01AE1BBF0BFD01E21BF30B77FDE8CF2C
:10123000AF010E94C607E4CF16964D915C91DA018A
:10124000A61BB70BBD0161507109CDCF0F931F9342
:10125000FA01DC0156964C9156974230A9F0433082
:1012600091F1413019F514964D915C91DA01AE1B64
:10127000BF0BFD013197F7FD04C0AB01BF010E9418
:10128000C6071F910F91089514964D915C91DA0154
:10129000A61BB70BBD01DC0116964D915C91DA01DE
:1012A000AE1BBF0BFD013197621B730BF7FDE9CF3E
:1012B000DC0116964D915C91E417F50714F7AF0128
:1012C0000E947508DECF16964D915C91DA01A61B3F
:1012D000B70BBD01621B730BCECFFC0177FD64C061
:1012E00080859185681779070CF05EC057FD5CC05A
:1012F00082859385481759070CF056C0868982303D
:10130000B1F0833029F1813041F484819581841BCF
:10131000950BAB01BC01615071092130310509F118
:1013200008F443C02230310509F463C00895848174
:101330009581DC01A61BB70BBD0161507109868147
:101340009781DC01A41BB50BAD0141505109E5CFDC
:1013500086819781861B970BBA01AC0141505109D8
:10136000DCCFCA0157FD0796A3E095958795AA950E
:10137000E1F7A481B5818A9F90018B9F300D9A9FE0
:10138000300D1124620F731F078CF0A1E02DE60FC2
:10139000F71F4770552721E030E001C0220F4A9522
:1013A000EAF78081822B80830895CA0157FD079652
:1013B00033E0959587953A95E1F7A481B5818A9FA9
:1013C00090018B9F300D9A9F300D1124620F731F77
:1013D000078CF0A1E02DE60FF71F4770552781E03D
:1013E00090E001C0880F4A95EAF7809590818923A3
:1013F000DACFCA0157FD079623E0959587952A9580
:10140000E1F7A481B5818A9F90018B9F300D9A9F4F
:10141000300D1124620F731F078CF0A1E02DE60F31
:10142000F71F4770552721E030E001C0220F4A9591
:10143000EAF780818227B7CF08958EBD00000DB4F2
:1014400007FEFDCF8EB508958CBD9DBD089508950E
:10145000FC016370668B84819581268137816130C0
:1014600039F0633029F09187808733872287089588
:10147000318720879387828708952F923F924F92DA
:101480005F926F927F928F929F92AF92BF92CF9214
:10149000DF92EF92FF920F931F93CF93DF93CDB71D
:1014A000DEB76A970FB6F894DEBF0FBECDBF9A8F36
:1014B000898F7A8369834A01D22E18870F83370177
:1014C000BC2CDC0159962D913C915A972115310580
:1014D00009F015C118968D919C9119976817790795
:1014E0000CF0D7C11A968D919C91481759070CF0B2
:1014F000D0C14C2C512CB6E0CB9E600D711D112437
:101500007C876B87161617060CF0C3C1EA2DF0E036
:10151000FA87E98793E0EE0FFF1F9A95E1F7F88BC2
:10152000EF87CF01840F951F181619060CF0B1C173
:10153000A98DBA8D58968C91811104C0BFEABD1552
:1015400008F4D394A98DBA8DED91FC911197028482
:10155000F385E02DCD010995B5E0DB9EC001112496
:10156000E981FA81FC83EB83312C212C9C012E58DC
:101570003F4F388F2F8B4A2D50E05E8B4D8BEF897C
:10158000F88DE20DF31D44919E828D82D12CC12CE9
:1015900069817A81620D731D7A8B698B842F90E04B
:1015A0009C8B8B8BE98DFA8DA081B18140FF82C02D
:1015B000F1E0BF126FC0AF126DC01C96ED91FC91AF
:1015C0002F813885A4014C0D5D1D69897A89898D2B
:1015D0009A8D0995EB89FC89F595E7954E2F5FEF7C
:1015E000C51AD50A6D817E818D899E89680F791F04
:1015F0007E836D8398E0C916D10481F6AFEF2A1A75
:101600003A0AEB81FC81E40DF51DFC83EB83F5E0E8
:101610002F16310409F0B3CF2F81388526153705F1
:10162000B9F0A98DBA8DED91FC91B1E0BB1257C014
:10163000AB1255C069817A816B5F7F4F0088F18959
:10164000E02D830128E030E0A401898D9A8D099571
:10165000A98DBA8DED91FC9111970688F789E02D3F
:10166000CD016A960FB6F894DEBF0FBECDBFDF91F5
:10167000CF911F910F91FF90EF90DF90CF90BF908F
:10168000AF909F908F907F906F905F904F903F9022
:101690002F9009941E96ED91FC91EF80F8840985B6
:1016A0001A8592014D815E816B817C81898D9A8D35
:1016B000099590CF2F8138852615370509F48ACFF3
:1016C00031E0B31207C0A31205C01C96ED91FC9146
:1016D000930178CF1E96ED91FC917301E0CF6B855D
:1016E0007C85641975090684F785E02D73010F85E3
:1016F00018899201A401898D9A8D0995A9CFF901C4
:1017000034969491329745915491D91AB7E0DB9E63
:10171000400D511D1124F901259134913C8B2B8BE7
:10172000FA0125903490FA013296749031963491F2
:10173000398B329664903196449041E04C1518F004
:101740004A1508F07FC0662D062C000C770B7C83B1
:101750006B83842D042C000C990B9E838D83A98DA3
:10176000BA8DED91FC9111970284F385E02DCD01A6
:101770000995512CD12CC12CEA2DF0E0FA87E9878C
:101780002B2D30E03C872B87A401440D511D47FCD5
:101790005A95588F4F8B69817A81660D711D67FC50
:1017A0007A957E876D877989C71608F051CF2C2DE1
:1017B00030E04D815E81420F531FA985BA854A9F53
:1017C000C0014B9F900D5A9F900D1124FC01E80D14
:1017D000F91DF88BEF87852D612C4F89588D420FAD
:1017E000531F5E8B4D8B671408F050C04424439404
:1017F000480E877041F4C1010196EB89FC89E20D26
:10180000F31DD4901C01D7FE19C0A98DBA8DED919E
:10181000FC91662D70E0B1E0BB1219C0AB1217C08D
:101820002D853E85620F731F0484F585E02D2F8181
:1018300038854D895E89898D9A8D0995DD0C639473
:10184000842DD1CF1E821D821C821B8288CF4B81AA
:101850005C81640F751FAB85BC856A9FC0016B9F5F
:10186000900D7A9F900D112469817A81680F791FFC
:101870000684F785E02DEF80F88409851A859D019F
:101880004F855889898D9A8D0995D8CF570CC39467
:101890008ACF6A960FB6F894DEBF0FBECDBFDF9138
:1018A000CF911F910F91FF90EF90DF90CF90BF905D
:1018B000AF909F908F907F906F905F904F903F90F0
:1018C0002F9008958F929F92AF92CF92EF92FF92B6
:1018D0000F931F93CF93DF93EC01262F898D9A8D61
:1018E000009709F051C06A30D1F41D861C868D899D
:1018F00048E0849F900111248E859F85820F931F5D
:101900009F878E8781E090E0DF91CF911F910F91AB
:10191000FF90EF90CF90AF909F908F9008956D3093
:1019200089F3CC88AD888F898823C1F08C859D850B
:1019300036E0C39E800D911D1124488559854817B6
:10194000590764F44E855F851D861C8638E0A39E8A
:10195000C0011124840F951F9F878E87EA88FB881A
:10196000088919894E855F856C857D85CE010E9429
:101970003D0A2C898C859D8546E0249F800D911D14
:1019800011249D878C87BECF6A3069F41D861C8622
:10199000FC013896E4912D898E859F85E29F800D0C
:1019A000911D1124ADCF6D3009F4ACCFFC013496FC
:1019B0003491631708F4A6CF3296E491E61708F441
:1019C000A1CFFC01329685909490462F431B342F73
:1019D00047E0349F800C911C1124F401329634911D
:1019E0003196E4913323A9F1EE2399F1CC88F401E7
:1019F0003596E491AD884F89442301F10E2E000CF9
:101A0000FF0BE30FF11DCE9EA001CF9E500D1124C0
:101A10006C857D85460F571F688579856417750726
:101A20006CF44E855F851D861C86FC013896E4911A
:101A3000AE9E400D511D11245F874E87EA88FB88BA
:101A4000088919894E855F856C857D85CE010E9448
:101A50003D0AF4013496E4912C898C859D85E29FA2
:101A6000800D911D11248DCF6F927F928F929F9246
:101A7000AF92BF92CF92DF92EF92FF920F931F939C
:101A8000CF93DF93EC016B015A0139014801E881E2
:101A9000F9810284F385E02D0995E881F9810288B6
:101AA000F389E02D87019301A501B601CE010995C7
:101AB000A501480D591D41505109E881F98102885D
:101AC000F389E02D9301B601CE010995E881F981F2
:101AD0000088F189E02D9401A501B601CE01099598
:101AE000C60CD71CB60161507109E881F9810088E4
:101AF000F189E02D9401A501CE010995E881F981D4
:101B00000688F789E02DCE01DF91CF911F910F91CB
:101B1000FF90EF90DF90CF90BF90AF909F908F900D
:101B20007F906F9009946F927F928F929F92AF9265
:101B3000BF92CF92DF92EF92FF920F931F93CF93BA
:101B4000DF935C01EB016A01490138018701DC0187
:101B5000ED91FC916217730719F5641675062CF068
:101B6000962D872D3A01C92ED82E960126193709B0
:101B70002F5F3F4F048CF58DE02DA301BE01C50101
:101B80000995DF91CF911F910F91FF90EF90DF901A
:101B9000CF90BF90AF909F908F907F906F9008955F
:101BA0004615570591F42617370724F0892D4B0168
:101BB000C22FD82F9E01281939092F5F3F4F068C5D
:101BC000F78DE02DA601B401DACF0284F385E02D74
:101BD0000995D501ED91FC910488F589E02D8301EB
:101BE0009401A601BE01C5010995D501ED91FC91B5
:101BF0000688F789E02DC501DF91CF911F910F91E4
:101C0000FF90EF90DF90CF90BF90AF909F908F901C
:101C10007F906F900994EF92FF920F931F93DC01D6
:101C20001A960D911C911B9718962D913C9119971E
:101C3000ED91FC9100A0F1A1E02D7B0150E040E08E
:101C400070E060E009951F910F91FF90EF9008956B
:101C50004F925F926F927F928F929F92AF92BF92BC
:101C6000CF92DF92EF92FF920F931F93CF93DF9368
:101C70006C012B015A0139014801DC01ED91FC9105
:101C80000284F385E02D0995E201640C751CD601F0
:101C9000ED91FC91C615D7055CF40088F189E02D23
:101CA00087019401A501BE01C60109952196EFCFD8
:101CB0000688F789E02DC601DF91CF911F910F9122
:101CC000FF90EF90DF90CF90BF90AF909F908F905C
:101CD0007F906F905F904F9009948F929F92AF92F8
:101CE000BF92CF92DF92EF92FF920F931F93CF9309
:101CF000DF93EC015B014A016901E881F98102840B
:101D0000F385E02D099595012C0D3D1D21503109DC
:101D1000E881F9810488F589E02D78018401A40126
:101D2000B501CE010995E881F9810688F789E02D92
:101D3000CE01DF91CF911F910F91FF90EF90DF9037
:101D4000CF90BF90AF909F908F9009948F929F9269
:101D5000AF92BF92CF92DF92EF92FF920F931F93B9
:101D6000CF93DF93EC015B014A0169017801E881BF
:101D7000F9810284F385E02D0995C80CD91C8601F0
:101D800001501109E881F9810488F589E02D950158
:101D9000A401B501CE010995E881F9810688F7898A
:101DA000E02DCE01DF91CF911F910F91FF90EF9029
:101DB000DF90CF90BF90AF909F908F900994EF925B
:101DC000FF920F931F93DC01ED91FC9100A0F1A114
:101DD000E02D09951F910F91FF90EF9008950F93BB
:101DE0001F93DC01ED91FC91068CF78DE02D099598
:101DF0001F910F9108950F931F93DC01ED91FC91BA
:101E0000048CF58DE02D09951F910F910895DC014B
:101E1000ED91FC910084F185E02D09943F924F9261
:101E20005F926F927F928F929F92AF92BF92CF926A
:101E3000DF92EF92FF920F931F93CF93DF935C019A
:101E40007B014A016901390187E0680E711C93E04A
:101E5000759467949A95E1F72B01400E511E10E09E
:101E600000E0312CD0E0C0E0CE0187709927330C20
:101E7000892B59F4FE0183E0F595E7958A95E1F702
:101E8000E00FF11FE80DF91D349037FE0AC021E084
:101E900030E0A701B5016C0F7D1F8CE993E00E9433
:101EA000070F2196CC16DD06F9F68FEFE81AF80A2F
:101EB000060D171DE414F504A9F6DF91CF911F91CB
:101EC0000F91FF90EF90DF90CF90BF90AF909F90D9
:101ED0008F907F906F905F904F903F9008952F92DA
:101EE0003F924F925F926F927F928F929F92AF92AA
:101EF000BF92CF92DF92EF92FF920F931F93CF93F7
:101F0000DF9300D000D000D0CDB7DEB73C016A012E
:101F10003E832D83FC82EB825801A41AB50AB7FEDA
:101F200003C0B194A194B1088D809E80861A970A4F
:101F300097FE03C09194819491088A149B045CF0ED
:101F4000902F812F0D811E819D838E839C2D8D2D41
:101F50006B01692F782F0C151D055CF09D818E811A
:101F60007E836D83692F782F902F812F8601C92E54
:101F7000D82E1601201A310A2B012D813E81421ADA
:101F8000530A57FE03C0519441945108710137FE22
:101F900003C03FEFE31AF30AF594E7948D819E8125
:101FA000861797075CF5A1E0B0E0BA83A983C01655
:101FB000D1064CF1D301ED91FC910484F585E02D1F
:101FC0002B813C81A8016D817E818A149B041CF0C9
:101FD0004D815E81B801C3010995E418F508F7FE4B
:101FE0000AC02D813E8189819A81280F391F3E8345
:101FF0002D83E20CF31C0F5F1F4FD9CF2FEF3FEF64
:102000003A832983D4CF26960FB6F894DEBF0FBE4D
:10201000CDBFDF91CF911F910F91FF90EF90DF9097
:10202000CF90BF90AF909F908F907F906F905F9078
:102030004F903F902F900895089520916D02260FA4
:102040003327331F21323105ECF420919102FC013A
:1020500090E080E0243069F082E00895A0916D0264
:102060002191AC01435B5D4FA40FB52FB11D2C93A3
:102070000196861798F380916D02680F60936D0248
:1020800080E0089581E008951092910281E08093AC
:1020900093021092920261E082E10E94D70561E012
:1020A00083E10E94D705E9EBF0E080818E7F808399
:1020B00080818D7F808388E48093B80085E480935D
:1020C000BC000895CF93DF9391E090934C02882356
:1020D000B9F0C091B800D091BA008091BC008A7B61
:1020E0008093BC0060E082E10E94D70560E083E15C
:1020F0000E94D7050E944410D093BA00C093B80044
:10210000DF91CF910895E091BD028091BC02E81764
:1021100030F4F0E0E95DFD4F808190E008958FEFAD
:102120009FEF08959091BD028091BC022FEF3FEF89
:10213000981748F4E92FF0E0E95DFD4F208130E089
:102140009F5F9093BD02C90108958091BC02909158
:10215000BD02891B990B0895CF92DF92EF92FF92F7
:102160000F931F93CF93DF937C01CB018A012091C2
:10217000CD02222389F0EB016B01C40ED51ECC15D4
:10218000DD0569F06991D701ED91FC910190F08135
:10219000E02DC7010995F3CF642F0E941D10C801DF
:1021A000DF91CF911F910F91FF90EF90DF90CF9033
:1021B0000895CF93DF931F92CDB7DEB76983209147
:1021C000CD022223F9F02091CA02203258F021E0FA
:1021D00030E0FC013383228390E080E00F90DF91B8
:1021E000CF9108958091CB02E82FF0E0E95FFD4F99
:1021F000998190838F5F8093CB028093CA0281E0A4
:1022000090E0ECCF61E0CE0101960E941D10F7CF67
:10221000CF92DF92EF92FF920F931F93CF93DF93B2
:10222000D091CA0281E0D13208F09CC0C091CC02AA
:102230000E945F066B017C018091910281116CC04C
:1022400082E08093910281E0809393028FEF8093EC
:1022500090021092B502D093B402A7E0B2E0E4E994
:10226000F2E080E0D8138DC01092B6028091B602E1
:10227000CC0FC82BC093B60280919202813009F036
:1022800084C0109292020E945F066B017C018091D3
:10229000B6028093BB008091480290914902A091C0
:1022A0004A02B0914B02892B8A2B8B2BA1F00E9402
:1022B0005F06009148021091490220914A02309134
:1022C0004B026C197D098E099F090617170728070D
:1022D000390708F442C08091BC0083FDD8CF85EC5B
:1022E0008093BC000E945F066B017C01809191028B
:1022F000823009F44CC0809190028F3F09F469C08C
:1023000080919002803209F466C0809190028033FF
:1023100009F463C084E026C080914802909149028C
:10232000A0914A02B0914B02892B8A2B8B2B09F486
:1023300083CF0E945F0600914802109149022091CC
:102340004A0230914B026C197D098E099F090617CC
:1023500017072807390708F06FCF809147020E94BE
:10236000621085E01092CB021092CA021092CD0248
:10237000DF91CF911F910F91FF90EF90DF90CF9061
:1023800008959D9191938F5F6DCF85EEA9CF809138
:10239000480290914902A0914A02B0914B02892BC8
:1023A0008A2B8B2B09F4A2CF0E945F060091480272
:1023B0001091490220914A0230914B026C197D091B
:1023C0008E099F09061717072807390708F08ECFCF
:1023D000C4CF80E0C7CF82E0C5CF83E0C3CFEF9208
:1023E000FF920F931F93CF93DF937C01C62F8091B1
:1023F000B9039091BA03009709F459C02091BD0325
:1024000031E03093CD022093CC021092CB02109297
:10241000CA02DC01ED91FC910190F081E02D60E0B9
:1024200009958701EE24E394F12CD1E0C15080910D
:10243000B9039091BA03CF3F91F1B0E2EB16F104EA
:10244000D8F00E9408118091B9039091BA032091AD
:10245000BD03D093CD022093CC021092CB021092F8
:10246000CA02DC01ED91FC910190F081E02D60E069
:102470000995EE24E394F12C8091B9039091BA036D
:10248000F8016491DC01ED91FC910190F081E02D67
:102490000995BFEFEB1AFB0A0F5F1F4FC7CFDF9104
:1024A000CF911F910F91FF90EF900C940811E09144
:1024B000C903F091CA0390818091CF03809589234D
:1024C00080838701C15008F438C0F80184912091BD
:1024D000B7033091B803232B29F00E941D0A0F5F28
:1024E0001F4FF0CF28E030E040E8E091C503F091C5
:1024F000C6039091CD03582F5423D9F05081952BCA
:102500009083E091C703F091C80390815091CE036E
:10251000952B9083E091C703F091C803508190916F
:10252000CE03909595239083469521503109E9F685
:10253000D6CF508190959523E3CFDF91CF911F9116
:102540000F91FF90EF9008951F93CF93DF93EC01CD
:102550008D8D9E8D009721F1162F29A131E03093AA
:10256000CD022093CC021092CB021092CA02DC0161
:10257000ED91FC910190F081E02D60E009958D8D49
:102580009E8DDC01ED91FC910190F081E02D612F99
:1025900009958D8D9E8DDF91CF911F910C9408111F
:1025A000ADA5BEA59C918BA9809589238C938B8D1D
:1025B0009C8D892B31F0862FDF91CF911F910C9448
:1025C0001D0A28E030E080E8A9A5BAA599A9462F00
:1025D0004823C1F04C91942B9C93ABA5BCA59C9136
:1025E0004AA9942B9C93ABA5BCA54C919AA9909514
:1025F00094239C9386952150310931F7DF91CF9137
:102600001F9108954C9190959423E6CF1F93CF93FB
:10261000DF93EC01162F8D8D9E8D892BB1F12DA9A5
:102620003EA94FA958AD60E074E284EF90E00E94AB
:10263000981D205131094109510956954795379503
:1026400027952093B80066EA111167EACE010E942F
:10265000A4128D8D9E8D892B41F129AD3AAD4BADE4
:102660005CAD60E074E284EF90E00E94981D205120
:10267000310941095109569547953795279520937A
:10268000B800DF91CF911F9108958B8D9C8D892B80
:1026900021F08EAD9FAD0E94240AEFA5F8A990818C
:1026A0008CA9809589238083CECFEFA5F8A980815E
:1026B0009CA9892B8083E5CF90E080E008950F935B
:1026C0001F932FB7F8948091C2029091C302A091FA
:1026D000C402B091C5022FBF409102025091030283
:1026E00060910402709105028C019D01041B150B81
:1026F000260B370BB901A8014D3251406105710518
:1027000030F121E02093BE028093020290930302F5
:10271000A0930402B093050281E090E090939101B0
:10272000809390018091BF029091C00297FD12C0EA
:102730008091BF029091C002069764F48091BF021D
:102740009091C00201969093C0028093BF021F91A6
:102750000F9108958091BF029091C0020697B9F73A
:102760001092C0021092BF02F2CF2091A2033091CA
:10277000A303C901079697FD079623E095958795D2
:102780002A95E1F72091A0033091A103829FA00137
:10279000839F500D929F500D112470E060E0809156
:1027A000BB039091BC030C9436200E943120FB01A6
:1027B00001900020E9F73197AF01461B570BDC0170
:1027C000ED91FC910280F381E02D099485ED8093D9
:1027D000BC008091480290914902A0914A02B091B8
:1027E0004B020796A11DB11D23E0B695A7959795BD
:1027F00087952A95D1F72091BC0024FD03C0109243
:1028000091020895409148025091490260914A0214
:1028100070914B02452B462B472B69F30097A1057E
:10282000B10541F02AE22A95F1F700C00197A1090C
:10283000B109E1CF809147020C9462100F931F936E
:1028400060E089E00E94D70583E090E00197F1F70E
:1028500061E089E00E94D70583E290E00197F1F7FB
:1028600060E089E00E94D705EBE6FAE06491E7E5D5
:10287000FAE0E491F0E0EE0FFF1FE859FF4F859179
:10288000949100E412E42FE030E0462F0E943117CB
:10289000611571058105910529F06F5F7F4F8F4F9D
:1028A0009F4F9F700E94011E26E933E44BE05DE3D9
:1028B0000E94651E20E030E040E05FE30E94651E5C
:1028C0000E94C91DCB011F910F9108951F920F9275
:1028D0000FB60F9211242F933F938F939F93AF9333
:1028E000BF938091C2029091C302A091C402B091A3
:1028F000C5023091C10223E0230F2D3758F5019610
:10290000A11DB11D2093C1028093C2029093C30206
:10291000A093C402B093C5028091C6029091C702F1
:10292000A091C802B091C9020196A11DB11D80936A
:10293000C6029093C702A093C802B093C902BF9188
:10294000AF919F918F913F912F910F900FBE0F905C
:102950001F90189526E8230F0296A11DB11DD2CF16
:102960001F920F920FB60F9211242F933F934F9304
:102970005F936F937F938F939F93AF93BF93EF93E7
:10298000FF93E0910201F09103010995FF91EF910E
:10299000BF91AF919F918F917F916F915F914F9177
:1029A0003F912F910F900FBE0F901F9018951F927F
:1029B0000F920FB60F9211242F933F934F935F9373
:1029C0006F937F938F939F93AF93BF93EF93FF93F7
:1029D000E0910001F09101010995FF91EF91BF9104
:1029E000AF919F918F917F916F915F914F913F91A7
:1029F0002F910F900FBE0F901F9018951F920F925E
:102A00000FB60F9211242F933F934F935F936F93C1
:102A10007F938F939F93AF93BF93EF93FF938EEC2E
:102A200092E00E943707FF91EF91BF91AF919F9184
:102A30008F917F916F915F914F913F912F910F9067
:102A40000FBE0F901F9018951F920F920FB60F9206
:102A500011242F938F939F93EF93FF93E091DE02C6
:102A6000F091DF028081E091E402F091E50282FDC5
:102A70001BC090818091E7028F5F8F732091E802E5
:102A8000821741F0E091E702F0E0E253FD4F958FAD
:102A90008093E702FF91EF919F918F912F910F907B
:102AA0000FBE0F901F9018958081F4CF1F920F9248
:102AB0000FB60F9211242F933F934F935F936F9311
:102AC0007F938F939F93AF93BF93EF93FF938091E7
:102AD000B900887F803609F44AC0F0F5883209F4DD
:102AE000A7C018F5803109F49BC0B8F4882309F415
:102AF000F9C0883009F494C0FF91EF91BF91AF9174
:102B00009F918F917F916F915F914F913F912F9105
:102B10000F900FBE0F901F901895883109F488C050
:102B2000803251F78093900214C0803409F49DC024
:102B300040F48033B9F38833F9F68093900285EC42
:102B4000B0C0803509F485C0883509F496C0883452
:102B500099F60E94E613D0CF883909F48CC038F575
:102B6000883729F050F4883611F0803729F683E051
:102B70008093910210928F0257C0883809F47BC06D
:102B8000803919F0803809F0B7CF80918F028032F8
:102B900008F071C0E0918F0281E08E0F80938F0268
:102BA0008091BB00F0E0E159FD4F80833DC0803B48
:102BB00039F0E0F4803A09F479C0883A09F09CCF02
:102BC00084E08093910210926E0210926D02E09167
:102BD000BA02F091BB02099580916D0281110FC07C
:102BE00081E080936D0210924D0209C0803C09F48F
:102BF000A6CF883C09F4A3CF883B09F07DCFE091B4
:102C00006E0281E08E0F80936E02F0E0E35BFD4F79
:102C100080818093BB0090916E0280916D0229C0EB
:102C20008091B6028093BB0085EC8093BC0064CF9A
:102C30009091B5028091B402981758F5E091B502D1
:102C400081E08E0F8093B502F0E0EC56FD4F80815D
:102C5000E9CFE091B50281E08E0F8093B5028091BB
:102C6000BB00F0E0EC56FD4F80839091B50280915F
:102C7000B4029817C8F285E8D8CFE091B50281E098
:102C80008E0F8093B5028091BB00F0E0EC56FD4FB3
:102C900080838091930281115CCF81E080939202C6
:102CA00084EA8093BC001092910226CF85EC809339
:102CB000BC001092910280918F02803230F4E0913A
:102CC0008F02F0E0E159FD4F108260918F0270E0B9
:102CD000E091B802F091B9028FE692E00995109266
:102CE0008F020ACF1092900234CF1F920F920FB62C
:102CF0000F9211242F933F934F935F936F937F9382
:102D00008F939F93AF93BF93CF93DF93EF93FF93F3
:102D100080910602C0918F03D0E087FF24C01092FB
:102D2000850010928400809106028F5F80930602D6
:102D300080910602082E000C990B8C179D0724F435
:102D4000809106028C30C4F18091840090918500BE
:102D5000049680349C4908F47AC080918400909154
:102D60008500049676C080910602082E000C990B0F
:102D70008C179D07C4F6E09106028E2FEE0F990B7B
:102D8000FC01EE0FFF1FE80FF91FE559FC4F808192
:102D900086FFC9CFE09106028E2FEE0F990BFC0142
:102DA000EE0FFF1FE80FF91FE559FC4F808160E02F
:102DB0008F730E94D705B7CF209184003091850092
:102DC000E09106028E2FEE0F990BFC01EE0FFF1F14
:102DD000E80FF91FE559FC4F81819281820F931F03
:102DE0009093890080938800E09106028E2FEE0F69
:102DF000990BFC01EE0FFF1FE80FF91FE559FC4F7F
:102E0000808186FF11C0E09106028E2FEE0F990B94
:102E1000FC01EE0FFF1FE80FF91FE559FC4F808101
:102E200061E08F730E94D705FF91EF91DF91CF9101
:102E3000BF91AF919F918F917F916F915F914F91D2
:102E40003F912F910F900FBE0F901F90189580E427
:102E50009CE990938900809388008FEF809306020D
:102E6000E3CFCF92DF92EF92FF920F931F93E82F61
:102E7000F92F05C0015011092109310961F1908133
:102E800096239417B9F305C001501109210931099E
:102E900011F1908196239413F7CFC12CD12CE12C02
:102EA000F12C0AC08FEFC81AD80AE80AF80A0C15E4
:102EB0001D052E053F0579F080818623841791F347
:102EC0006C2D7D2D8E2D9F2D1F910F91FF90EF90DA
:102ED000DF90CF90089560E070E080E090E01F9177
:102EE0000F91FF90EF90DF90CF9008951092D10254
:102EF0001092D00288EE93E0A0E0B0E08093D2027E
:102F00009093D302A093D402B093D5022CE931E080
:102F10003093CF022093CE0225EC30E03093DB02D9
:102F20002093DA0224EC30E03093DD022093DC02BF
:102F300020EC30E03093DF022093DE0221EC30E021
:102F40003093E1022093E00222EC30E03093E30280
:102F50002093E20226EC30E03093E5022093E40275
:102F60001092E7021092E8021092E9021092EA022F
:102F7000109293031092920380939403909395037D
:102F8000A0939603B09397038EEA91E090939103F8
:102F90008093900380918F038C3008F089C091E07A
:102FA000980F90938F038093DC0390E0FC01EE0F69
:102FB000FF1FE80FF91FE559FC4F88EB9BE0928358
:102FC000818310929F0310929E0320E830E030939B
:102FD000A1032093A00380E490E09093A303809347
:102FE000A2033093A5032093A4039093A703809397
:102FF000A6031092B2031092A9031092A803109294
:10300000AB031092AA0381E08093B1038093B003D5
:103010002FEF3FEF3093AF032093AE033093AD0318
:103020002093AC038093B3031092B4031092B603C1
:103030001092B50380EC91E090939D0380939C03E4
:103040001092B8031092B70380E993E09093BA030B
:103050008093B9031092BC031092BB038FEF80934F
:10306000C0038093C1038093C2038093C30384E0B1
:103070008093C40380E89AE1A6E0B0E08093D10396
:103080009093D203A093D303B093D40380EA96E83D
:10309000A1E0B0E08093D5039093D603A093D7032B
:1030A000B093D80380E58093DA031092DB03089590
:1030B0008FEF8093DC0385CFCF93DF93CDB7DEB75F
:1030C000A1970FB6F894DEBF0FBECDBF789484B53C
:1030D000826084BD84B5816084BD85B5826085BD14
:1030E00085B5816085BD80916E00816080936E00A2
:1030F0001092810080918100826080938100809194
:103100008100816080938100809180008160809344
:1031100080008091B10084608093B1008091B00004
:1031200081608093B00080917A00846080937A00FF
:1031300080917A00826080937A0080917A00816029
:1031400080937A0080917A00806880937A00109250
:10315000C100E091DE02F091DF0282E08083E09125
:10316000DA02F091DB021082E091DC02F091DD02E4
:103170008FEC80831092E602E091E202F091E3028C
:1031800086E08083E091E002F091E102808180613D
:103190008083E091E002F091E10280818860808389
:1031A000E091E002F091E102808180688083E0910B
:1031B000E002F091E10280818F7D808361E089E00F
:1031C0000E94230660E08AE00E94230662E083E01A
:1031D0000E9423068FE593E19093030180930201FF
:1031E000809169008C6080936900E99A8091DC038A
:1031F0008C3008F051C061E086E00E942306809187
:10320000DC03282F30E0F901EE0FFF1FE20FF31F60
:10321000E559FC4F9081907C966090831092DD037D
:103220001092DE032CE0622F0E94FA1E829FB001F2
:10323000112430E020E0AB01420F531FFA01EE0FE2
:10324000FF1FE40FF51FE559FC4F908196FD16C056
:103250002F5F3F4F2C30310571F781110FC0109255
:10326000800082E08093810010928500109284009B
:10327000B19A80916F00826080936F00E091DC03CF
:103280008E2F90E0FC01EE0FFF1FE80FF91FE559AC
:10329000FC4F808180648083812C04E2902E04EFB7
:1032A000A02EB12C66246394712C1AE0212E312CAF
:1032B000412C512C68EE71E08EEC92E00E94D71305
:1032C0000E941E149C0150E040E019A28E010F5D87
:1032D0001F4FCA01B901A20191010E94981D605DB2
:1032E000D8016E938D01211531054105510589F7EE
:1032F000109729F0BD018EEC92E00E94D71363EF86
:1033000071E08EEC92E00E94D71380919001909131
:103310009101019709F059C3E090BF02F090C002FB
:103320008091BB039091BC03892B11F10E94B513CE
:103330002091A2033091A3038091A0039091A10357
:10334000213231050CF013C1B9016052710977FFC8
:1033500002C06F5F7F4F759567958357910997FD01
:10336000019600E210E023E730E044E955E012C1A5
:103370002091A2033091A303C901079697FD0796F8
:10338000B3E095958795BA95E1F72091A003309128
:10339000A103FC01E29FC001E39F900DF29F900DFD
:1033A00011240E940C1F9093BC038093BB03892BB4
:1033B00009F0BCCF7092AF036092AE037092AD0380
:1033C0006092AC030E94B513F2E0F093B003F09367
:1033D000B1031092A9031092A8031092AB031092AC
:1033E000AA0366EF71E08CE993E00E94D71363EFC4
:1033F00071E08CE993E00E94D7131092A903109218
:10340000A80320E130E03093AB032093AA0334E11A
:103410003E9DB0013F9D700D11246C5F7E4F8CE985
:1034200093E00E94D71363EF71E08CE993E00E9470
:10343000D7138091B9039091BA03892B09F489C2FB
:103440002091D1033091D2034091D3035091D40302
:10345000C501B4010E94981D20513109410951094B
:1034600056954795379527952093B80065E084E3F6
:103470009AE00E94EF116091A00361508CE993E003
:103480000E94A4122091A2033091A303C9010796C0
:1034900097FD079633E0959587953A95E1F720914A
:1034A000A0033091A103829F7001839FF00C929F33
:1034B000F00C11240091BB031091BC038091B9035F
:1034C0009091BA03E00EF11E009709F494C2209186
:1034D000BD0331E03093CD022093CC021092CB0299
:1034E0001092CA02DC01ED91FC910190F081E02D77
:1034F00060E40995CC24C394D12C8091B9039091B8
:10350000BA03E016F10609F43BC2B0E2CB16D104CF
:10351000E0F00E9408118091B9039091BA032091C4
:10352000BD03E1E0E093CD022093CC021092CB02E8
:103530001092CA02DC01ED91FC910190F081E02D26
:1035400060E40995CC24C394D12C8091B903909167
:10355000BA03F80161918F01DC01ED91FC910190BA
:10356000F081E02D0995BFEFCB1ADB0AC6CFB90178
:103570006054710977FF02C06F5F7F4F7595679543
:103580008255910997FD019600E410E022E530E0B4
:1035900044E757E0959587950E940E0FF2E0F0936F
:1035A000BE038091B9039091BA03892B09F4DBC063
:1035B0008CE38093BD031092BD021092BC02109266
:1035C000CB021092CA020E94441026EB36E03093E0
:1035D000BB022093BA0247EB56E05093B9024093E6
:1035E000B8028091C40387FD1EC061E00E942306DB
:1035F00061E08091C4030E94D70561E070E080E043
:1036000090E00E94840660E08091C4030E94D70588
:103610006AE070E080E090E00E94840661E08091C2
:10362000C4030E94D7058091B9039091BA03892BF6
:1036300009F458C12091D1033091D2034091D303B2
:103640005091D403C501B4010E94981D2051310945
:103650004109510956954795379527952093B8000C
:1036600064E080E995E00E94EF116091A20361504F
:103670008CE993E00E94A41264E08CE895E00E943B
:10368000EF118091BE0360E1813009F064E18CE9C3
:1036900093E00E94A41264E088E895E00E94EF1194
:1036A0008FE88093D9038091A0039091A103803883
:1036B000910509F030C18091A2039091A303803459
:1036C000910509F038C18091BE03813009F021C114
:1036D0008FE98093D90312E16AED8CE993E00E94AF
:1036E000A412612F8CE993E00E94A41261E88CE996
:1036F00093E00E94A4126091D9038CE993E00E94A8
:10370000A41269ED8CE993E00E94A4128091BE039B
:1037100062E2813009F061EF8CE993E00E94A4122B
:1037200066E082E895E00E94EF118091B9039091E4
:10373000BA03892B09F403C12091D5033091D60334
:103740004091D7035091D803C501B4010E94981D40
:1037500020513109410951095695479537952795CB
:103760002093B80027CE61E08091C2030E94230617
:1037700061E08091C3030E9423068091C203082E5A
:10378000000C990BFC01E35BF54FE491F0E0EE0FC8
:10379000FF1FED5BF54F259134913093CA032093C1
:1037A000C903FC01EF59F54FE491E093CF038091F9
:1037B000C303082E000C990BFC01E35BF54FE49169
:1037C000F0E0EE0FFF1FED5BF54FA591B491B093C4
:1037D000CC03A093CB03FC01EF59F54FE491E093A8
:1037E000D0038C91E82BEC938091B7039091B803B0
:1037F000892B09F434C01FB7F8948091B702811166
:1038000027C0E7E5FAE08491EBE6FAE09491E82F2F
:10381000F0E0EE0FFF1FE75CF54FA591B4918C919E
:10382000982321F461E08AE00E94D70561E08AE0F4
:103830000E9423068CB580618CBD8CB580648CBDE4
:1038400061E08DE00E94230661E08BE00E94230688
:103850008091B7028F5F8093B7021FBFC2CE61E035
:103860008091C0030E94230661E08091C1030E9401
:1038700023068091C003082E000C990BFC01E35B2A
:10388000F54FE491F0E0EE0FFF1FED5BF54F259152
:1038900034913093C6032093C503FC01EF59F54FD3
:1038A000E491E093CD038091C103082E000C990BA5
:1038B000FC01E35BF54FE491F0E0EE0FFF1FED5BE1
:1038C000F54FA591B491B093C803A093C703FC0131
:1038D000EF59F54FE491E093CE038C91E095E82306
:1038E000EC937FCE8091B7039091B803892B31F090
:1038F0008091DA039091DB030E94240AE091CB03CC
:10390000F091CC0390818091D003809589238083AE
:10391000A7CE8FECDECE8036910569F48091A203AC
:103920009091A303409739F48091BE03813029F42C
:1039300080E18093D90312E0CFCE8FEAFACFE091F5
:10394000CB03F091CC0380819091D003892B8083AD
:1039500031CD8091B7039091B803892B31F08091DC
:10396000DA039091DB030E94240AE091CB03F091EB
:10397000CC0390818091D00380958923808376CD7C
:103980000E9408118091B9039091BA03892B09F420
:1039900076C02091D5033091D6034091D703509142
:1039A000D803C501B4010E94981D20513109410975
:1039B000510956954795379527952093B800109251
:1039C0009101109290011092BE020E941E140B975A
:1039D00008F05FC090E080E00E94710520E030E0D8
:1039E000232B09F467CC0E942307882309F462CCB7
:1039F0000E9400005ACCE091C903F091CA03808173
:103A00009091CF03892B8083E016F10609F4BACF99
:103A1000F80181918F012091B7033091B803232BD6
:103A200019F00E941D0AF0CF28E030E040E8E09154
:103A3000C503F091C6039091CD03542F5823D9F0BC
:103A40005081952B9083E091C703F091C80390813A
:103A50005091CE03952B9083E091C703F091C8035A
:103A600050819091CE039095952390834695215057
:103A70003109E9F6C9CF508190959523E3CFE091C4
:103A8000CB03F091CC0380819091D003892B80836C
:103A900096CF0E941E140B9738F00E941E14459773
:103AA00018F48AE590E098CF84EB90E095CF80EC15
:103AB00091E090939D0380939C038091BB03909130
:103AC000BC03009711F00C94A81F0895052E97FBD6
:103AD0001EF400940E947D1D57FD07D00E94981D82
:103AE00007FC03D04EF40C947D1D50954095309505
:103AF00021953F4F4F4F5F4F08959095809570955A
:103B000061957F4F8F4F9F4F08950E94BA1DA59FCB
:103B1000900DB49F900DA49F800D911D11240895C8
:103B2000B7FF0C94851D0E94851D821B930B089581
:103B3000A1E21A2EAA1BBB1BFD010DC0AA1FBB1FB1
:103B4000EE1FFF1FA217B307E407F50720F0A21B23
:103B5000B30BE40BF50B661F771F881F991F1A9490
:103B600069F760957095809590959B01AC01BD01BA
:103B7000CF010895A29FB001B39FC001A39F700D14
:103B8000811D1124911DB29F700D811D1124911D65
:103B900008950E94D01D6894B1110C945F1E089581
:103BA0000E94441E88F09F5798F0B92F9927B7516B
:103BB000B0F0E1F0660F771F881F991F1AF0BA95D1
:103BC000C9F714C0B13091F00E945E1EB1E00895B3
:103BD0000C945E1E672F782F8827B85F39F0B93FA5
:103BE000CCF3869577956795B395D9F73EF4909584
:103BF0008095709561957F4F8F4F9F4F0895E89402
:103C000009C097FB3EF490958095709561957F4F24
:103C10008F4F9F4F9923A9F0F92F96E9BB279395D2
:103C2000F695879577956795B795F111F8CFFAF4E2
:103C3000BB0F11F460FF1BC06F5F7F4F8F4F9F4F13
:103C400016C0882311F096E911C0772321F09EE871
:103C5000872F762F05C0662371F096E8862F70E0D7
:103C600060E02AF09A95660F771F881FDAF7880FB1
:103C70009695879597F9089557FD9058440F551FCD
:103C800059F05F3F71F04795880F97FB991F61F0DE
:103C90009F3F79F087950895121613061406551F55
:103CA000F2CF4695F1DF08C0161617061806991FC1
:103CB000F1CF86957105610508940895E894BB27B6
:103CC00066277727CB0197F908950E94781E0C94F8
:103CD000E91E0E94DB1E38F00E94E21E20F09523B0
:103CE00011F00C94D21E0C94D81E11240C945F1E5B
:103CF0000E943C1E70F3959FC1F3950F50E0551F35
:103D0000629FF001729FBB27F00DB11D639FAA2730
:103D1000F00DB11DAA1F649F6627B00DA11D661F7F
:103D2000829F2227B00DA11D621F739FB00DA11DA0
:103D3000621F839FA00D611D221F749F3327A00D5A
:103D4000611D231F849F600D211D822F762F6A2FF6
:103D500011249F5750409AF0F1F088234AF0EE0F5B
:103D6000FF1FBB1F661F771F881F91505040A9F788
:103D70009E3F510580F00C94D21E0C945F1E5F3F55
:103D8000E4F3983ED4F3869577956795B795F795C4
:103D9000E7959F5FC1F7FE2B880F911D969587953C
:103DA00097F9089597F99F6780E870E060E00895BB
:103DB0009FEF80EC089500240A9416161706180643
:103DC0000906089500240A9412161306140605061F
:103DD0000895092E0394000C11F4882352F0BB0FB0
:103DE00040F4BF2B11F460FF04C06F5F7F4F8F4F13
:103DF0009F4F0895991B79E004C0991F961708F00A
:103E0000961B881F7A95C9F780950895EE0FFF1FBE
:103E10000590F491E02D09940F931F93CF93DF93B6
:103E20008230910510F482E090E0E091E103F0919E
:103E3000E20330E020E0B0E0A0E0309799F42115F3
:103E4000310509F44AC0281B390B24303105D8F557
:103E50008A819B816115710589F1FB0193838283BE
:103E6000FE0111C040815181028113814817590719
:103E7000E0F04817590799F4109761F012960C93E7
:103E8000129713961C933296CF01DF91CF911F9119
:103E90000F9108950093E1031093E203F4CF2115ED
:103EA000310551F04217530738F0A901DB019A019F
:103EB000BD01DF01F801C1CFEF01F9CF9093E2031B
:103EC0008093E103CDCFFE01E20FF31F8193919325
:103ED0002250310939832883D7CF2091DF033091D5
:103EE000E003232B41F4209194013091950130930C
:103EF000E0032093DF03209192013091930121157B
:103F0000310541F42DB73EB740919601509197018C
:103F1000241B350BE091DF03F091E003E217F30778
:103F2000A0F42E1B3F0B2817390778F0AC014E5F29
:103F30005F4F2417350748F04E0F5F1F5093E00383
:103F40004093DF03819391939FCFF0E0E0E09CCF1B
:103F5000CF93DF930097E9F0FC013297138212822E
:103F6000A091E103B091E203ED0130E020E0109771
:103F7000A1F420813181820F931F2091DF033091C2
:103F8000E0032817390709F061C0F093E003E093DC
:103F9000DF03DF91CF910895EA01CE17DF07E8F53F
:103FA0004A815B819E0141155105B1F7E901FB830F
:103FB000EA8349915991C40FD51FEC17FD0761F4AD
:103FC000808191810296840F951FE90199838883EE
:103FD000828193819B838A83F0E0E0E012968D9149
:103FE0009C9113970097B9F52D913C911197CD01B4
:103FF0000296820F931F2091DF033091E003281770
:10400000390739F6309751F51092E2031092E10327
:10401000B093E003A093DF03BCCFD383C28340817E
:104020005181840F951FC817D90761F44E5F5F4F08
:1040300088819981480F591F518340838A819B81D0
:10404000938382832115310509F0B0CFF093E20309
:10405000E093E1039ECFFD01DC01C0CF1382128209
:10406000D7CF81E090E0F8940C943D20DC0101C0B2
:104070006D9341505040E0F7089515E0C6E4D5E057
:1040800004C0FE010E94061F2196C734D107C9F75C
:04409000F894FFCFD2
:10409400B806B8064D6F6E64617900000000000038
:1040A400000000000000000054756573646179002D
:1040B4000000000000000000000000005765646E6E
:1040C40065736461790000000000000000000000D6
:1040D4005468757273646179000000000000000088
:1040E400000000004672696461790000000000006D
:1040F400000000000000000053617475726461796F
:1041040000000000000000000000000053756E6411
:1041140061790000000000000000000000000000C1
:1041240001000000E3038000000000005907B90605
:10413400E606A6071707F506090700000000D910D0
:10414400AC105C13D605A51092108310000000007B
:10415400620CB9065C131C106D09D605070FDF0E3F
:10416400FB0EEF0E6F0FD605280A0613DD0826098D
:10417400280E0B0E930D340D44697374616E6365E0
:104184003A20000D0A002D4E616D654C6973742D43
:02419400000029
:00000001FF
