:020000040000FA
:100000000C945E000C9486000C9486000C94860080
:100010000C9486000C9486000C9486000C941203B9
:100020000C9486000C9486000C9486000C94860038
:100030000C9486000C9486000C9486000C94860028
:100040000C94C8020C9486000C94BA030C9494038C
:100050000C9486000C9486000C9486000C94860008
:100060000C9486000C948600020000000800020137
:100070000000030407000000000000000000000072
:1000800000250028002B0000000000240027002A83
:100090000004040404040404040202020202020331
:1000A000030303030301020408102040800102043B
:1000B00008102001020408102000200711241FBE90
:1000C000CFEFD8E0DEBFCDBF11E0A0E0B1E0E0ECC3
:1000D000F2E102C005900D92AE3CB107D9F722E0E3
:1000E000AEECB1E001C01D92A938B207E1F710E013
:1000F000CEE5D0E004C02197FE010E945809CD351D
:10010000D107C9F70E94EC030C945E090C9400001F
:1001100090E0FC01EB55FF4F24918F569F4FFC015F
:100120008491882399F090E0880F991FFC01E9578A
:10013000FF4FA591B491FC01E358FF4F8591949135
:100140008FB7F894EC91E22BEC938FBF089590E079
:10015000FC01E759FF4F2491FC01EB55FF4F34910F
:10016000FC01EF56FF4FE491EE23C9F0222339F052
:10017000233001F1A8F4213019F1223029F1F0E007
:10018000EE0FFF1FE358FF4FA591B4918FB7F8947E
:10019000EC91611126C030953E233C938FBF0895AA
:1001A0002730A9F02830C9F0243049F78091800029
:1001B0008F7D03C0809180008F7780938000DFCF98
:1001C00084B58F7784BDDBCF84B58F7DFBCF8091E5
:1001D000B0008F778093B000D2CF8091B0008F7D38
:1001E000F9CF3E2BDACF8E50806480937C008091D3
:1001F0007A00806480937A0080917A0086FDFCCF3B
:10020000809178009091790008953FB7F89480919B
:10021000E8019091E901A091EA01B091EB0126B5C6
:10022000A89B05C02F3F19F00196A11DB11D3FBF2E
:10023000BA2FA92F982F8827BC01CD01620F711DFD
:10024000811D911D42E0660F771F881F991F4A95F7
:10025000D1F708958F929F92AF92BF92CF92DF9283
:10026000EF92FF924B015C010E9405016B017C0142
:100270000E9405016C197D098E099F09683E734033
:1002800081059105A8F321E0821A9108A108B1081F
:1002900088EEC80E83E0D81EE11CF11C8114910485
:1002A000A104B10429F7FF90EF90DF90CF90BF90A9
:1002B000AF909F908F900895AF92BF92CF92DF92B0
:1002C000EF92FF920F931F93CF93DF936C017B010B
:1002D0008B01040F151FEB015E01AE18BF08C0179C
:1002E000D10759F06991D601ED91FC910190F0810F
:1002F000E02DC6010995892B79F7C501DF91CF91D2
:100300001F910F91FF90EF90DF90CF90BF90AF9033
:100310000895FC01538D448D252F30E0842F90E00B
:10032000821B930B541710F0CF96089501970895F0
:10033000FC01918D828D981761F0A28DAE0FBF2FB9
:10034000B11D5D968C91928D9F5F9F73928F90E00F
:1003500008958FEF9FEF0895FC01918D828D98177E
:1003600031F0828DE80FF11D858D90E008958FEFBB
:100370009FEF0895FC01918D228D892F90E0805C84
:100380009F4F821B91098F73992708958CEE91E0FE
:100390000E94BA0121E0892B09F420E0822F089500
:1003A00080E090E0892B29F00E94C60181110C9415
:1003B00000000895FC01A48DA80FB92FB11DA35A08
:1003C000BF4F2C91848D90E001968F739927848F75
:1003D000A689B7892C93A089B1898C918370806498
:1003E0008C93938D848D981306C00288F389E02D39
:1003F00080818F7D80830895EF92FF920F931F93EA
:10040000CF93DF93EC0181E0888F9B8D8C8D9813C7
:100410001AC0E889F989808185FF15C09FB7F894D3
:10042000EE89FF896083E889F9898081837080641F
:1004300080839FBF81E090E0DF91CF911F910F916A
:10044000FF90EF900895F62E0B8D10E00F5F1F4F79
:100450000F731127E02E8C8D8E110CC00FB607FC88
:10046000FACFE889F989808185FFF5CFCE010E9416
:10047000DA01F1CFEB8DEC0FFD2FF11DE35AFF4FA9
:10048000F0829FB7F8940B8FEA89FB8980818062A4
:10049000CFCFCF93DF93EC01888D8823B9F0AA8961
:1004A000BB89E889F9898C9185FD03C0808186FD2F
:1004B0000DC00FB607FCF7CF8C9185FFF2CF80817E
:1004C00085FFEDCFCE010E94DA01E9CFDF91CF9118
:1004D0000895FC0101900020E9F73197AF01481B16
:1004E000590BBC018CEE91E00C945C018F929F92B1
:1004F000AF92BF920F931F93CF93DF93CDB7DEB729
:10050000A1970FB6F894DEBF0FBECDBF19A242303F
:1005100008F44AE08E010F5D1F4F842E912CB12C00
:10052000A12CA50194010E941709E62FB901CA0167
:10053000EA30F4F4E05DD801EE938D01232B242BF7
:10054000252B79F790E080E0109719F0CD010E94FB
:100550006902A1960FB6F894DEBF0FBECDBFDF9142
:10056000CF911F910F91BF90AF909F908F90089562
:10057000E95CE1CFCF93DF930E946902EC0183E154
:1005800091E00E9469028C0F9D1FDF91CF91089529
:100590001F920F920FB60F9211242F933F938F93B8
:1005A0009F93AF93BF938091E4019091E501A09157
:1005B000E601B091E7013091E30123E0230F2D37ED
:1005C00058F50196A11DB11D2093E3018093E4012C
:1005D0009093E501A093E601B093E7018091E801D3
:1005E0009091E901A091EA01B091EB010196A11D62
:1005F000B11D8093E8019093E901A093EA01B093C3
:10060000EB01BF91AF919F918F913F912F910F90EF
:100610000FBE0F901F90189526E8230F0296A11D7C
:10062000B11DD2CF1F920F920FB60F9211242F93AC
:100630003F934F935F936F937F938F939F93AF936A
:10064000BF93EF93FF938091D3019091D401A09138
:10065000D501B091D601892B8A2B8B2BD1F19091AA
:10066000CE01E091CF01F091D00180818927808374
:100670008091D3019091D401A091D501B091D60180
:10068000181619061A061B069CF48091D301909146
:10069000D401A091D501B091D6010197A109B1096A
:1006A0008093D3019093D401A093D501B093D60148
:1006B000FF91EF91BF91AF919F918F917F916F913A
:1006C0005F914F913F912F910F900FBE0F901F9010
:1006D000189580910001E8E6F0E0E4919FEF909397
:1006E0000001E13051F030F0E23069F060E00E944A
:1006F000A700DECF10926E00F9CF90916F009D7F22
:1007000090936F00F3CF909170009D7F9093700055
:1007100091E09093B0009091B100987F9460909395
:10072000B1001092B300E2CF1F920F920FB60F925A
:1007300011242F933F934F935F936F937F938F93E6
:100740009F93AF93BF93EF93FF938CEE91E00E9442
:10075000DA01FF91EF91BF91AF919F918F917F91BE
:100760006F915F914F913F912F910F900FBE0F901E
:100770001F9018951F920F920FB60F9211242F936E
:100780008F939F93EF93FF93E091FC01F091FD0114
:100790008081E0910202F091030282FD1BC09081F2
:1007A000809105028F5F8F7320910602821741F0BE
:1007B000E0910502F0E0E451FE4F958F8093050231
:1007C000FF91EF919F918F912F910F900FBE0F90FE
:1007D0001F9018958081F4CF789484B5826084BD91
:1007E00084B5816084BD85B5826085BD85B5816035
:1007F00085BD80916E00816080936E0010928100B3
:10080000809181008260809381008091810081606D
:10081000809381008091800081608093800080912E
:10082000B10084608093B1008091B00081608093BA
:10083000B00080917A00846080937A0080917A0081
:10084000826080937A0080917A00816080937A0040
:1008500080917A00806880937A001092C10082E0D3
:100860000E94880083E00E94880060E083E00E948C
:10087000A70060E082E00E94A70087E00E94880055
:100880008DE00E9488008CE00E94880060E087E094
:100890000E94A70060E08DE00E94A70060E08CE06D
:1008A0000E94A700E091FC01F091FD0182E08083AD
:1008B000E091F801F091F9011082E091FA01F091D4
:1008C000FB0180E1808310920402E0910002F0912C
:1008D000010286E08083E091FE01F091FF018081BA
:1008E00080618083E091FE01F091FF01808188604A
:1008F0008083E091FE01F091FF0180818068808318
:10090000E091FE01F091FF0180818F7D808386E17F
:1009100091E00E94BA0288248A94982C540148E9F4
:10092000242E40E0342E61E087E00E94A7006AE0B8
:1009300070E080E090E00E942A018EE00E94F300C7
:10094000EC0160E087E00E94A7008DE291E00E9448
:1009500069026E010D2E000CEE08FF084AE0C70187
:10096000B601F7FE0DC06DE28CEE91E00E94FC0135
:1009700066277727CB016C197D098E099F094AE00C
:100980000E94760283E191E00E946902C43F81E007
:10099000D80754F48DE391E00E94BA0260E08DE044
:1009A0000E94A70061E00FC0C45FD140CA3FD105DB
:1009B00008F0B9C085E591E00E94BA0261E08DE0DF
:1009C0000E94A70060E08CE00E94A70080E10E94E6
:1009D000F300BC01990F880B990B0E94F0076093FC
:1009E000DF017093E0018093E1019093E2018FE9D0
:1009F00091E00E946902C090DF01D090E001E09098
:100A0000E101F090E201A7019601C701B6010E9441
:100A10001209882309F48DC08EEA91E00E946902D0
:100A200020E030E046E953E46091DF017091E0019D
:100A30008091E1019091E2010E94A00818160CF04B
:100A4000DCC18AEB91E00E94690238ECC32ED12C04
:100A5000E12CF12CCCEAD0E080910001873009F044
:100A6000FAC0E8E6F0E0149117FDB4C187E00E94F7
:100A70008800112319F0123009F05DC168E478EEA6
:100A800081E090E0A70196010E943909BA01A9010D
:100A90004150510961097109112309F484C11230CF
:100AA00009F047C14F3F51056105710509F00CF48C
:100AB00083C164E274EF80E090E0A70196010E9498
:100AC0003909BA01A901415051096109710995E03B
:100AD0004F3F51056105710509F008F46EC162E1EF
:100AE0007AE780E090E0A70196010E943909BA01F7
:100AF000A901415051096109710911119FC194E087
:100B000085B5887F892B85BD47BD8092DB0190929A
:100B1000DC01A092DD01B092DE0180916E00826066
:100B200080936E0057C186E791E00E94BA0261E0AF
:100B300036CF26013701E89477F82FEF3FEF4FE7E4
:100B40005FE7C301B2010E94120981110DC02FEFAE
:100B50003FEF4FE75FE7C301B2010E94BA071816E3
:100B60001CF482EB91E05ACF2FEF3FEF4FE75FE4A9
:100B7000C701B6010E94A00818161CF486EB91E08C
:100B80004DCF2FEF3FEF4FE75FECC701B6010E945B
:100B9000BA0787FDF3CF20E030E0A901C701B60115
:100BA0000E94BA0787FF09C06DE28CEE91E00E94B7
:100BB000FC01F7FAF094F7F8F0942AE037ED43EAF5
:100BC0005BE3C701B6010E944E072B013C010E9466
:100BD000BF076B017C010E94EE079B01AC01C301C2
:100BE000B2010E944D072B013C014AE0C701B6014A
:100BF0000E9476026EE28CEE91E00E94FC0120E001
:100C000030E040E251E4C301B2010E94A5082B018B
:100C10003C010E94BF076B01F12CE12C4AE0C701A7
:100C2000B6010E947602C701B6010E94EE079B0141
:100C3000AC01C301B2010E944D0720E030E040E268
:100C400051E40E94A5080E94BF0790E080E04AE0BE
:100C50000E947602E5CE8F3F09F0BCC087E080930A
:100C60000001E8E6F0E014911F3F09F4B3C0113031
:100C700011F148F0123009F43BC017FDABC087E01A
:100C80000E948800F8CE14BC15BC84B5826084BD77
:100C900085B5816085BDF1018491E82FF0E0EE0F0C
:100CA000FF1FE358FF4F85919491FE01849180933B
:100CB000D20110E0DBCE1092800010928100809172
:100CC00081008860809381008091810081608093A1
:100CD0008100F1018491E82FF0E0EE0FFF1FE3584F
:100CE000FF4F85919491FE0184918093D101BECEF6
:100CF0001092B0001092B1008091B0008260809399
:100D0000B0008091B10081608093B100F1018491C5
:100D1000E82FF0E0EE0FFF1FE358FF4F859194910D
:100D20009093D0018093CF01FE0184918093CE01F6
:100D30009DCE94E0CDCE60E072E18AE790E0A7011D
:100D400096010E943909BA01A9014150510961096E
:100D500071091130C1F580918100887F8160809395
:100D6000810050938900409388008092D70190922F
:100D7000D801A092D901B092DA0180916F0082600F
:100D800080936F0027C04093B3008092D30190926C
:100D9000D401A092D501B092D601809170008260FA
:100DA0008093700017C093E04F3F510561057105B6
:100DB00011F00CF094CEA4CE94E08091B100887F25
:100DC000892B8093B100113061F21230E1F21123CE
:100DD00009F49ACE65E070E080E090E00E942A017C
:100DE000FFEFCF1ADF0AEF0AFF0A81E2C81683E09D
:100DF000D806E104F10409F02FCE85E191E00E94CC
:100E0000BA0260ED77E080E090E00E942A0168EE8F
:100E100073E080E090E00E942A0183E191E00E946B
:100E2000690280E090E0892B09F47DCD0E94C60123
:100E3000882309F474CD0E94000071CD96E0BDCFE7
:100E4000ECEEF1E01382128288EE93E0A0E0B0E0D5
:100E500084839583A683B78385E091E09183808323
:100E600085EC90E09587848784EC90E0978786876F
:100E700080EC90E0918B808B81EC90E0938B828B67
:100E800082EC90E0958B848B86EC90E0978B868B40
:100E9000118E128E138E148E08955058BB27AA27D8
:100EA0000E9465070C9466080E94580838F00E945A
:100EB0005F0820F039F49F3F19F426F40C9455088C
:100EC0000EF4E095E7FB0C944F08E92F0E94770899
:100ED00058F3BA17620773078407950720F079F46F
:100EE000A6F50C9499080EF4E0950B2EBA2FA02DC0
:100EF0000B01B90190010C01CA01A0011124FF27C7
:100F0000591B99F0593F50F4503E68F11A16F040C1
:100F1000A22F232F342F4427585FF3CF46953795C0
:100F20002795A795F0405395C9F77EF41F16BA0B85
:100F3000620B730B840BBAF09150A1F0FF0FBB1F33
:100F4000661F771F881FC2F70EC0BA0F621F731F7C
:100F5000841F48F4879577956795B795F7959E3FD9
:100F600008F0B0CF9395880F08F09927EE0F97956A
:100F7000879508950E942B0808F481E008950E9447
:100F80007F0888F09F5798F0B92F9927B751B0F094
:100F9000E1F0660F771F881F991F1AF0BA95C9F7FD
:100FA00014C0B13091F00E949908B1E008950C94FA
:100FB0009908672F782F8827B85F39F0B93FCCF3AD
:100FC000869577956795B395D9F73EF4909580957A
:100FD000709561957F4F8F4F9F4F0895E89409C09A
:100FE00097FB3EF490958095709561957F4F8F4F5C
:100FF0009F4F9923A9F0F92F96E9BB279395F69572
:10100000879577956795B795F111F8CFFAF4BB0FEF
:1010100011F460FF1BC06F5F7F4F8F4F9F4F16C053
:10102000882311F096E911C0772321F09EE8872FDD
:10103000762F05C0662371F096E8862F70E060E099
:101040002AF09A95660F771F881FDAF7880F969512
:10105000879597F90895990F0008550FAA0BE0E8B6
:10106000FEEF16161706E807F907C0F0121613066A
:10107000E407F50798F0621B730B840B950B39F4AA
:101080000A2661F0232B242B252B21F408950A2610
:1010900009F4A140A6958FEF811D811D089597F950
:1010A0009F6780E870E060E008959FEF80EC08950E
:1010B00000240A9416161706180609060895002437
:1010C0000A9412161306140605060895092E0394B1
:1010D000000C11F4882352F0BB0F40F4BF2B11F425
:1010E00060FF04C06F5F7F4F8F4F9F4F089557FD84
:1010F0009058440F551F59F05F3F71F04795880F86
:1011000097FB991F61F09F3F79F08795089512161C
:1011100013061406551FF2CF4695F1DF08C01616C8
:1011200017061806991FF1CF869571056105089479
:101130000895E894BB2766277727CB0197F9089590
:101140000E942B0808F48FEF08950E94B8080C94B1
:1011500066080E94580838F00E945F0820F0952326
:1011600011F00C944F080C94550811240C949A0813
:101170000E94770870F3959FC1F3950F50E0551FBB
:10118000629FF001729FBB27F00DB11D639FAA27DC
:10119000F00DB11DAA1F649F6627B00DA11D661F2B
:1011A000829F2227B00DA11D621F739FB00DA11D4C
:1011B000621F839FA00D611D221F749F3327A00D06
:1011C000611D231F849F600D211D822F762F6A2FA2
:1011D00011249F5750409AF0F1F088234AF0EE0F07
:1011E000FF1FBB1F661F771F881F91505040A9F734
:1011F0009E3F510580F00C944F080C949A085F3F75
:10120000E4F3983ED4F3869577956795B795F7956F
:10121000E7959F5FC1F7FE2B880F911D96958795E7
:1012200097F908950E942B08880B990B0895A1E265
:101230001A2EAA1BBB1BFD010DC0AA1FBB1FEE1F50
:10124000FF1FA217B307E407F50720F0A21BB30B9B
:10125000E40BF50B661F771F881F991F1A9469F717
:1012600060957095809590959B01AC01BD01CF0173
:101270000895052E97FB1EF400940E94500957FD17
:1012800007D00E94170907FC03D04EF40C945009B4
:1012900050954095309521953F4F4F4F5F4F0895A2
:1012A00090958095709561957F4F8F4F9F4F0895D2
:1012B000EE0FFF1F0590F491E02D0994F894FFCFF5
:1012C000FF00000000FC015C0189014902BA01989D
:1012D00001AC010D0A004761732073656E736F7274
:1012E000207761726D696E672075702100416E61B3
:1012F0006C6F67204F75747075743A200053746179
:101300007475733A20536F696C20697320746F6F22
:1013100020776574005374617475733A20536F6954
:101320006C206D6F697374757265206973207065C8
:101330007266656374005374617475733A20536FF9
:10134000696C20697320746F6F20647279202D207E
:1013500074696D6520746F20776174657221005324
:10136000656E736F722056616C75653A20006E6110
:101370006E00696E66006F766600207C20536D6F8C
:0E1380006B652064657465637465642100000C
:107E0000112484B714BE81FFF0D085E080938100F7
:107E100082E08093C00088E18093C10086E0809377
:107E2000C20080E18093C4008EE0C9D0259A86E02C
:107E300020E33CEF91E0309385002093840096BBD3
:107E4000B09BFECF1D9AA8958150A9F7CC24DD24C4
:107E500088248394B5E0AB2EA1E19A2EF3E0BF2EE7
:107E6000A2D0813461F49FD0082FAFD0023811F036
:107E7000013811F484E001C083E08DD089C08234E0
:107E800011F484E103C0853419F485E0A6D080C0E4
:107E9000853579F488D0E82EFF2485D0082F10E0AE
:107EA000102F00270E291F29000F111F8ED06801E7
:107EB0006FC0863521F484E090D080E0DECF843638
:107EC00009F040C070D06FD0082F6DD080E0C81688
:107ED00080E7D80618F4F601B7BEE895C0E0D1E017
:107EE00062D089930C17E1F7F0E0CF16F0E7DF06D8
:107EF00018F0F601B7BEE89568D007B600FCFDCFD4
:107F0000A601A0E0B1E02C9130E011968C91119780
:107F100090E0982F8827822B932B1296FA010C0160
:107F200087BEE89511244E5F5F4FF1E0A038BF0790
:107F300051F7F601A7BEE89507B600FCFDCF97BE46
:107F4000E89526C08437B1F42ED02DD0F82E2BD052
:107F50003CD0F601EF2C8F010F5F1F4F84911BD097
:107F6000EA94F801C1F70894C11CD11CFA94CF0C13
:107F7000D11C0EC0853739F428D08EE10CD085E9AC
:107F80000AD08FE07ACF813511F488E018D01DD067
:107F900080E101D065CF982F8091C00085FFFCCF94
:107FA0009093C60008958091C00087FFFCCF809118
:107FB000C00084FD01C0A8958091C6000895E0E648
:107FC000F0E098E1908380830895EDDF803219F02E
:107FD00088E0F5DFFFCF84E1DECF1F93182FE3DFCA
:107FE0001150E9F7F2DF1F91089580E0E8DFEE27F6
:047FF000FF270994CA
:027FFE00040479
:00000001FF
