:020000040000FA
:100000000C9447050C946F050C946F050C946F05C8
:100010000C946F050C946F050C946F050C946F0590
:100020000C946F050C946F050C946F050C946F0580
:100030000C946F050C946F050C946F050C946F0570
:100040000C940C140C946F050C947C140C945614A2
:100050000C946F050C946F050C946F050C946F0550
:100060000C94AE140C946F0500000000003E5B4F32
:100070005B3E3E6B4F6B3E1C3E7C3E1C183C7E3C08
:10008000181C577D571C1C5E7F5E1C00183C180016
:10009000FFE7C3E7FF0018241800FFE7DBE7FF30A6
:1000A000483A060E2629792926407F050507407F14
:1000B00005253F5A3CE73C5A7F3E1C1C08081C1C87
:1000C0003E7F14227F22145F5F005F5F06097F017D
:1000D0007F006689956A606060606094A2FFA29468
:1000E00008047E040810207E201008082A1C080836
:1000F0001C2A08081E101010100C1E0C1E0C303884
:100100003E3830060E3E0E06000000000000005F84
:1001100000000007000700147F147F14242A7F2AA0
:100120001223130864623649562050000807030062
:10013000001C2241000041221C002A1C7F1C2A08AE
:10014000083E080800807030000808080808000011
:1001500060600020100804023E5149453E00427F85
:10016000400072494949462141494D331814127FD4
:100170001027454545393C4A494931412111090774
:100180003649494936464949291E000014000000F5
:1001900040340000000814224114141414140041C7
:1001A00022140802015909063E415D594E7C121184
:1001B000127C7F494949363E414141227F414141BC
:1001C0003E7F494949417F090909013E4141517337
:1001D0007F0808087F00417F41002040413F017FA8
:1001E000081422417F404040407F021C027F7F0470
:1001F00008107F3E4141413E7F090909063E4151B9
:10020000215E7F09192946264949493203017F01A8
:10021000033F4040403F1F2040201F3F4038403FA9
:10022000631408146303047804036159494D4300BF
:100230007F4141410204081020004141417F0402F6
:10024000010204404040404000030708002054548D
:1002500078407F284444383844444428384444286B
:100260007F385454541800087E090218A4A49C78BE
:100270007F0804047800447D40002040403D007F1A
:100280001028440000417F40007C047804787C08FA
:100290000404783844444438FC18242418182424CE
:1002A00018FC7C08040408485454542404043F44B3
:1002B000243C4040207C1C2040201C3C4030403CE2
:1002C00044281028444C9090907C4464544C440042
:1002D00008364100000077000000413608000201A6
:1002E0000204023C2623263C1EA1A161123A404092
:1002F000207A38545455592155557941225454780F
:1003000042215554784020545579400C1E527212A7
:100310003955555559395454545939555454580030
:1003200000457C410002457D420001457C407D1234
:1003300011127DF0282528F07C5455450020545496
:100340007C547C0A097F4932494949323A44444441
:100350003A324A4848303A4141217A3A424020787C
:10036000009DA0A07D3D4242423D3D4040403D3C7D
:1003700024FF2424487E4943662B2FFC2F2BFF09A2
:1003800029F620C0887E0903205454794100004496
:100390007D413048484A32384040227A007A0A0A81
:1003A000727D0D19317D2629292F282629292926F4
:1003B00030484D4020380808080808080808382F39
:1003C00010C8ACBA2F102834FA00007B00000814C3
:1003D0002A142222142A14085500550055AA55AA99
:1003E00055AAFF55FF55FF000000FF00101010FF39
:1003F00000141414FF001010FF00FF1010F010F094
:10040000141414FC001414F700FF0000FF00FF1484
:1004100014F404FC141417101F10101F101F1414D0
:10042000141F00101010F0000000001F101010101A
:100430001F10101010F010000000FF10101010100E
:1004400010101010FF10000000FF140000FF00FF4C
:1004500000001F10170000FC04F4141417101714E8
:1004600014F404F40000FF00F7141414141414140A
:10047000F700F7141414171410101F101F1414147D
:10048000F4141010F010F000001F101F0000001FE7
:1004900014000000FC140000F010F01010FF10FF1A
:1004A000141414FF141010101F00000000F010FFAF
:1004B000FFFFFFFFF0F0F0F0F0FFFFFF0000000093
:1004C00000FFFF0F0F0F0F0F3844443844FC4A4A17
:1004D0004A347E02020606027E027E0263554941CC
:1004E000633844443C04407E201E2006027E020203
:1004F00099A5E7A5991C2A492A1C4C7201724C3017
:100500004A4D4D303048784830BC625A463D3E49ED
:100510004949007E0101017E2A2A2A2A2A44445F91
:10052000444440514A444040444A51400000FF0185
:1005300003E080FF000008086B6B08361236243693
:10054000060F090F060000181800000010100030F8
:1005500040FF0101001F01011E00191D1712003C80
:100560003C3C3C0000000000000103070F1F3F7FE0
:100570000080C0E0F0F8FCFEDB40A4A62EAF200017
:10058000A1C8D300408DAED580A800006000000057
:100590000000000000000000000000E0000000007B
:1005A00000000000000000000001E000000000006A
:1005B000000000000000000001F00000000000004A
:1005C0000000000000000003F00000000000000038
:1005D00000000000000007F0000000000000000024
:1005E000000000000007F80000000000000000000C
:1005F000000000000FF800000003C0007E000001B2
:10060000E0007F0FF800000003C000FE000001E0E2
:1006100000FFEFF800000003C000FE000001E00052
:10062000FFFFF800000003C000F00000000F007F93
:10063000FE7FC0000003C000F00000000F003FFE7E
:100640007FF83FF1FBCFFCFEF3BC3DEFE01FFE7FE8
:10065000FF7FFBFFDFFEFEFFBC3DEFE01FC6FFFF9D
:100660007FFBFFDFFEFEFFBC3DEFE00FE3C7FE7840
:100670007BC3DE1EF0FFBC3DEF0007FF87FC787BED
:10068000C3DE1EF0F83C3DEF0001FFFFF0007BC32E
:10069000C01EF0F03C3DEF0001F37FE03FFBC3CF15
:1006A000FEF0F03C3DEF0003E33F807FFBC3DFFE45
:1006B000F0F03C3DEF0007E73C00787BC3DE1EF026
:1006C000F03C3DEF0007FFBE00787BC3DE1EF0F07C
:1006D0003C3DEF0007FFFE00787BC3DE1EF0F03CE0
:1006E0003DEF000FFFFE007FFBFFDFFEF0F03FFD60
:1006F000EFE00FFFFF007FFBFFDFFEF0F03FFDEFBD
:10070000E00FF9FF003E79F9CF9EF0F01F3DE7E0E2
:100710001FF1FF0000000000000000000000001FAB
:1007200080FF007FFFFFFFFFFFFFFFFFFFE01C00D8
:100730007F007FFFFFFFFEB46D888D18E000001F73
:10074000007FFFFFFFFE95AD7DB577E000000F0055
:100750007FFFFFFFFEA5AD9D8D19E0000006007F25
:10076000FFFFFFFEB5ADEDB57EE00000000000012B
:100770008000000000000000000003800000000076
:10078000000000000007C0000000000000000000A2
:1007900007C00000000000000000000FC0000000C3
:1007A0000000000000001FE000000000000000004A
:1007B000001FE00000000000000000003FE000001B
:1007C000000000000000003FF000000000000000FA
:1007D00000007FF0000000000000001FF87FF00024
:1007E0000000000000003FFE7FF00000000000005D
:1007F000003FFF7FF0000000000000001FFFFBE053
:10080000000000000000000FFFF9FFC00000000022
:1008100000000FFFF9FFF800000000000007FFF1E3
:10082000FFFF00000000000003FC73FFFF800000DA
:1008300000000001FE3FFFFF80000000000000FFFD
:100840001E0FFF000000000000007FFE1FFC0000E4
:1008500000000000003FFFFFF80000000000000063
:100860000FDFFFE0000000000000001F19FFC000C4
:100870000000000000003F3CFF00000000000000FE
:10088000007E7CF800000000000000007FFE7C007D
:1008900000000000000000FFFFFC0000000000005E
:1008A0000000FFFFFE0000000000000000FFFFFE50
:1008B0000000000000000001FFEFFE00000000004B
:1008C000000001FFCFFE0000000000000003FF0752
:1008D000FE0000000000000003FC07FE0000000016
:1008E00000000003F003FE00000000000000018093
:1008F00000FE000000000000000000007E0000007C
:10090000000000000000003E0000000000000000A9
:1009100000000C000000000000078000FC00000345
:10092000C0000000078001FC000003C000000007B9
:100930008001FC000003C0000000078001E000000F
:10094000001E000000078001E00000001E007FE3A1
:10095000F79FF9FDE7787BDFC0FFF7FFBFFDFDFFE5
:10096000787BDFC0FFF7FFBFFDFDFF787BDFC0F0C6
:10097000F787BC3DE1FF787BDE00F0F787BC3DE107
:10098000F0787BDE0000F787803DE1E0787BDE00D9
:100990007FF7879FFDE1E0787BDE00FFF787BFFDF3
:1009A000E1E0787BDE00F0F787BC3DE1E0787BDEBC
:1009B00000F0F787BC3DE1E0787BDE00F0F787BC14
:1009C0003DE1E0787BDE00FFF7FFBFFDE1E07FFB6C
:1009D000DFC0FFF7FFBFFDE1E07FFBDFC07CF3F38B
:1009E0009F3DE1E03E7BCFC0000000000000000022
:1009F000000000FFFFFFFFFFFFFFFFFFFFC0FFFF43
:100A0000FFFFFD68DB111A31C0FFFFFFFFFD2B5A0E
:100A1000FB6AEFC0FFFFFFFFFD4B5B3B1A33C0FFDC
:100A2000FFFFFFFD6B5BDB6AFDC02200FF210000C2
:100A3000000000240027002A0000000000250028F4
:100A4000002B0000000000230026002900040404FD
:100A50000404040404020202020202030303030367
:100A60000301020408102040800102040810200144
:100A70000204081020000000080002010000030426
:100A800007000000000000000000CD15A51B112488
:100A90001FBECFEFD8E0DEBFCDBF23E0A6EDB1E0B3
:100AA00001C01D92AA38B207E1F711E0A0E0B1E061
:100AB000E8E9F1E402C005900D92A63DB107D9F72F
:100AC00015E0C6E4D5E004C02197FE010E940D1C8C
:100AD000C534D107C9F70E946B160C94BF200C9443
:100AE00000000895833081F028F4813099F082303D
:100AF000A9F008958730A9F08830C9F08430B1F4A6
:100B0000809180008F7D03C0809180008F778093DB
:100B10008000089584B58F7784BD089584B58F7D56
:100B2000FBCF8091B0008F778093B00008958091C3
:100B3000B0008F7DF9CF1F93CF93DF93282F30E044
:100B4000F901EB58F54F8491F901EF59F54FD49124
:100B5000F901E35BF54FC491CC23A9F0162F811165
:100B60000E947205EC2FF0E0EE0FFF1FE75CF54FDF
:100B7000A591B4918FB7F894EC91111108C0D0955C
:100B8000DE23DC938FBFDF91CF911F910895DE2B81
:100B9000F8CFCF93DF9390E0FC01EF59F54F24910C
:100BA000835B954FFC0184918823D1F090E0880FFE
:100BB000991FFC01E15DF54FA591B491FC01E75C43
:100BC000F54FC591D49161110EC09FB7F8948C91E7
:100BD000E22FE0958E238C932881E223E8839FBF48
:100BE000DF91CF9108958FB7F894EC91E22BEC93BD
:100BF0008FBFF6CF3FB7F894809192029091930205
:100C0000A0919402B091950226B5A89B05C02F3FF4
:100C100019F00196A11DB11D3FBFBA2FA92F982F22
:100C20008827BC01CD01620F711D811D911D42E01D
:100C3000660F771F881F991F4A95D1F708958F92E5
:100C40009F92AF92BF92CF92DF92EF92FF924B01B1
:100C50005C010E94FA056B017C010E94FA056C1987
:100C60007D098E099F09683E734081059105A8F3AF
:100C700021E0821A9108A108B10888EEC80E83E02D
:100C8000D81EE11CF11C81149104A104B10429F7C0
:100C9000FF90EF90DF90CF90BF90AF909F908F909C
:100CA000089508950895AF92BF92CF92DF92EF9288
:100CB000FF920F931F93CF93DF936C017B018B0106
:100CC000040F151FEB015E01AE18BF08C017D10756
:100CD00059F06991D601ED91FC910190F081E02DE0
:100CE000C6010995892B79F7C501DF91CF911F9135
:100CF0000F91FF90EF90DF90CF90BF90AF9008954D
:100D0000FC01538D448D252F30E0842F90E0821B11
:100D1000930B541710F0CF96089501970895FC0196
:100D2000918D828D981761F0A28DAE0FBF2FB11DEE
:100D30005D968C91928D9F5F9F73928F90E0089546
:100D40008FEF9FEF0895FC01918D828D981731F000
:100D5000828DE80FF11D858D90E008958FEF9FEF54
:100D60000895FC01918D228D892F90E0805C9F4F2A
:100D7000821B91098F73992708958AE992E00E9456
:100D8000B10621E0892B09F420E0822F089580E04C
:100D900090E0892B29F00E94BD0681110C9400007F
:100DA0000895FC01A48DA80FB92FB11DA35ABF4F00
:100DB0002C91848D90E001968F739927848FA6895A
:100DC000B7892C93A089B1898C91837080648C93AE
:100DD000938D848D981306C00288F389E02D80815D
:100DE0008F7D80830895EF92FF920F931F93CF938F
:100DF000DF93EC0181E0888F9B8D8C8D98131AC056
:100E0000E889F989808185FF15C09FB7F894EE893C
:100E1000FF896083E889F989808183708064808399
:100E20009FBF81E090E0DF91CF911F910F91FF90E4
:100E3000EF900895F62E0B8D10E00F5F1F4F0F738C
:100E40001127E02E8C8D8E110CC00FB607FCFACF47
:100E5000E889F989808185FFF5CFCE010E94D1060E
:100E6000F1CFEB8DEC0FFD2FF11DE35AFF4FF08218
:100E70009FB7F8940B8FEA89FB8980818062CFCF7E
:100E8000CF93DF93EC01888D8823B9F0AA89BB89C1
:100E9000E889F9898C9185FD03C0808186FD0DC0AC
:100EA0000FB607FCF7CF8C9185FFF2CF808185FFCD
:100EB000EDCFCE010E94D106E9CFDF91CF91089509
:100EC000EF92FF920F931F93CF93DF93EC01EC808F
:100ED000FD806E157F050CF070C057FF04C0240F15
:100EE000351F50E040E08E819F81FA01E20FF31F31
:100EF0008E179F071CF49C01241B350B121613063A
:100F00000CF05BC0922F842F8695869586958E9DDA
:100F1000D0018F9DB00D11246A0F7B1FAF8DB8A13A
:100F2000A60FB71F477049F188E0841B482F682F30
:100F300070E0FB01E059FA4FE491281708F063C014
:100F4000621B71092FEF30E002C0359527956A9535
:100F5000E2F7E2230130110539F0B0F1023011055A
:100F600061F58C91E82702C08C91E82BEC939417E3
:100F700020F12C813D81A20FB31FE92FE41BE83043
:100F800078F00230110521F58E2F9C9190959C935D
:100F90002C813D81A20FB31F88508830B0F7E770D5
:100FA000EE2359F0F0E0E859FA4FE49101301105D1
:100FB000F9F010F10230110519F1DF91CF911F9175
:100FC0000F91FF90EF900895E0958C91E823CECF9C
:100FD00081E00115110509F480E081959E2F8C9325
:100FE0002C813D81A20FB31F98509830C0F7D7CF06
:100FF0008C91E82BEC93E1CFE0958C91E823FACF2C
:101000008C91E827F7CF0130110509F4ADCFE0F25C
:101010000230110509F4A5CFAE0DBF1DAECF0F9361
:101020001F93CF93DF9377FF04C0260F371F70E025
:1010300060E0DC011496CD91DC91FB01E20FF31F1F
:10104000CE17DF071CF49E01261B370B1216130662
:101050004CF5FA0157FD3796A3E0F595E795AA956B
:10106000E1F7EC9FD001ED9FB00DFC9FB00D112476
:101070006A0F7B1FDC015F96ED91FC91E60FF71F75
:101080004770552781E090E001C0880F4A95EAF744
:10109000482F0130110559F0A8F02E0F3F1F0230E4
:1010A0001105E1F0DF91CF911F910F9108952E0F5F
:1010B0003F1FE217F307B1F38191DF011197842BF2
:1010C0008C93F7CF80952E0F3F1FE217F30751F354
:1010D0009191DF01119798239C93F7CFE217F307C3
:1010E00009F38191DF01119784278C93F7CF0F9338
:1010F0001F93FA01DC0156964C9156974230E9F065
:101100004330A1F1413061F514964D915C91DA01C3
:10111000AE1BBF0BFD01E21BF30B77FD0BC0DC0127
:1011200016964D915C916417750724F4AB01BF01CD
:101130000E940F081F910F91089514964D915C9194
:10114000DA01A61BB70BBD0161507109DC011696CF
:101150004D915C91DA01AE1BBF0BFD01E21BF30B5D
:1011600077FDE8CFAF010E946007E4CF16964D915E
:101170005C91DA01A61BB70BBD0161507109CDCF9F
:101180000F931F93FA01DC0156964C91569742300B
:10119000A9F0433091F1413019F514964D915C91CD
:1011A000DA01AE1BBF0BFD013197F7FD04C0AB01A7
:1011B000BF010E9460071F910F91089514964D91F1
:1011C0005C91DA01A61BB70BBD01DC0116964D91AF
:1011D0005C91DA01AE1BBF0BFD013197621B730BF3
:1011E000F7FDE9CFDC0116964D915C91E417F50708
:1011F00014F7AF010E940F08DECF16964D915C9157
:10120000DA01A61BB70BBD01621B730BCECFFC012D
:1012100077FD64C080859185681779070CF05EC002
:1012200057FD5CC082859385481759070CF056C05E
:1012300086898230B1F0833029F1813041F4848194
:101240009581841B950BAB01BC0161507109213064
:10125000310509F108F443C02230310509F463C0B7
:10126000089584819581DC01A61BB70BBD016150F7
:10127000710986819781DC01A41BB50BAD0141503A
:101280005109E5CF86819781861B970BBA01AC0186
:1012900041505109DCCFCA0157FD0796A3E095954F
:1012A0008795AA95E1F7A481B5818A9F90018B9FCC
:1012B000300D9A9F300D1124620F731F078CF0A11F
:1012C000E02DE60FF71F4770552721E030E001C001
:1012D000220F4A95EAF78081822B80830895CA0104
:1012E00057FD079633E0959587953A95E1F7A481E8
:1012F000B5818A9F90018B9F300D9A9F300D1124EC
:10130000620F731F078CF0A1E02DE60FF71F4770E7
:10131000552781E090E001C0880F4A95EAF7809553
:1013200090818923DACFCA0157FD079623E095956E
:1013300087952A95E1F7A481B5818A9F90018B9FBB
:10134000300D9A9F300D1124620F731F078CF0A18E
:10135000E02DE60FF71F4770552721E030E001C070
:10136000220F4A95EAF780818227B7CF08958EBD74
:1013700000000DB407FEFDCF8EB508958CBD9DBD58
:1013800008950895FC016370668B848195812681A0
:101390003781613039F0633029F091878087338756
:1013A00022870895318720879387828708952F9217
:1013B0003F924F925F926F927F928F929F92AF92E5
:1013C000BF92CF92DF92EF92FF920F931F93CF9332
:1013D000DF93CDB7DEB76A970FB6F894DEBF0FBEC6
:1013E000CDBF9A8F898F7A8369834A01D22E18875D
:1013F0000F833701BC2CDC0159962D913C915A97F3
:101400002115310509F015C118968D919C911997F8
:10141000681779070CF0D7C11A968D919C914817DF
:1014200059070CF0D0C14C2C512CB6E0CB9E600D6E
:10143000711D11247C876B87161617060CF0C3C12B
:10144000EA2DF0E0FA87E98793E0EE0FFF1F9A9507
:10145000E1F7F88BEF87CF01840F951F1816190657
:101460000CF0B1C1A98DBA8D58968C91811104C030
:10147000BFEABD1508F4D394A98DBA8DED91FC9106
:1014800011970284F385E02DCD010995B5E0DB9E2F
:10149000C0011124E981FA81FC83EB83312C212CDA
:1014A0009C0128593F4F388F2F8B4A2D50E05E8B7F
:1014B0004D8BEF89F88DE20DF31D44919E828D8254
:1014C000D12CC12C69817A81620D731D7A8B698B55
:1014D000842F90E09C8B8B8BE98DFA8DA081B1815C
:1014E00040FF82C0F1E0BF126FC0AF126DC01C960A
:1014F000ED91FC912F813885A4014C0D5D1D69890A
:101500007A89898D9A8D0995EB89FC89F595E795FE
:101510004E2F5FEFC51AD50A6D817E818D899E8918
:10152000680F791F7E836D8398E0C916D10481F618
:10153000AFEF2A1A3A0AEB81FC81E40DF51DFC831A
:10154000EB83F5E02F16310409F0B3CF2F813885F6
:1015500026153705B9F0A98DBA8DED91FC91B1E052
:10156000BB1257C0AB1255C069817A816B5F7F4F48
:101570000088F189E02D830128E030E0A401898D05
:101580009A8D0995A98DBA8DED91FC9111970688D8
:10159000F789E02DCD016A960FB6F894DEBF0FBE35
:1015A000CDBFDF91CF911F910F91FF90EF90DF9012
:1015B000CF90BF90AF909F908F907F906F905F90F3
:1015C0004F903F902F9009941E96ED91FC91EF80E3
:1015D000F88409851A8592014D815E816B817C8139
:1015E000898D9A8D099590CF2F81388526153705DD
:1015F00009F48ACF31E0B31207C0A31205C01C96CC
:10160000ED91FC91930178CF1E96ED91FC917301C1
:10161000E0CF6B857C85641975090684F785E02D1C
:1016200073010F8518899201A401898D9A8D0995FE
:10163000A9CFF90134969491329745915491D91AD2
:10164000B7E0DB9E400D511D1124F9012591349125
:101650003C8B2B8BFA0125903490FA0132967490D2
:1016600031963491398B329664903196449041E0B2
:101670004C1518F04A1508F07FC0662D062C000C9A
:10168000770B7C836B83842D042C000C990B9E8339
:101690008D83A98DBA8DED91FC9111970284F3850C
:1016A000E02DCD010995512CD12CC12CEA2DF0E073
:1016B000FA87E9872B2D30E03C872B87A401440D66
:1016C000511D47FC5A95588F4F8B69817A81660D61
:1016D000711D67FC7A957E876D877989C71608F03A
:1016E00051CF2C2D30E04D815E81420F531FA985D3
:1016F000BA854A9FC0014B9F900D5A9F900D1124AF
:10170000FC01E80DF91DF88BEF87852D612C4F89C1
:10171000588D420F531F5E8B4D8B671408F050C0DD
:1017200044244394480E877041F4C1010196EB892B
:10173000FC89E20DF31DD4901C01D7FE19C0A98DC0
:10174000BA8DED91FC91662D70E0B1E0BB1219C02D
:10175000AB1217C02D853E85620F731F0484F5857B
:10176000E02D2F8138854D895E89898D9A8D099567
:10177000DD0C6394842DD1CF1E821D821C821B82BE
:1017800088CF4B815C81640F751FAB85BC856A9FD8
:10179000C0016B9F900D7A9F900D112469817A8111
:1017A000680F791F0684F785E02DEF80F88409859E
:1017B0001A859D014F855889898D9A8D0995D8CFB5
:1017C000570CC3948ACF6A960FB6F894DEBF0FBE4B
:1017D000CDBFDF91CF911F910F91FF90EF90DF90E0
:1017E000CF90BF90AF909F908F907F906F905F90C1
:1017F0004F903F902F9008958F929F92AF92CF92EB
:10180000EF92FF920F931F93CF93DF93EC01262F5C
:10181000898D9A8D009709F051C06A30D1F41D86E8
:101820001C868D8948E0849F900111248E859F85B8
:10183000820F931F9F878E8781E090E0DF91CF9189
:101840001F910F91FF90EF90CF90AF909F908F904E
:1018500008956D3089F3CC88AD888F898823C1F0D5
:101860008C859D8536E0C39E800D911D1124488591
:1018700059854817590764F44E855F851D861C8677
:1018800038E0A39EC0011124840F951F9F878E8787
:10189000EA88FB88088919894E855F856C857D8576
:1018A000CE010E94D7092C898C859D8546E0249F16
:1018B000800D911D11249D878C87BECF6A3069F4FD
:1018C0001D861C86FC013896E4912D898E859F85A6
:1018D000E29F800D911D1124ADCF6D3009F4ACCF86
:1018E000FC0134963491631708F4A6CF3296E49144
:1018F000E61708F4A1CFFC01329685909490462F0C
:10190000431B342F47E0349F800C911C1124F401B9
:10191000329634913196E4913323A9F1EE2399F173
:10192000CC88F4013596E491AD884F89442301F1C8
:101930000E2E000CFF0BE30FF11DCE9EA001CF9EDB
:10194000500D11246C857D85460F571F688579855C
:10195000641775076CF44E855F851D861C86FC0137
:101960003896E491AE9E400D511D11245F874E873D
:10197000EA88FB88088919894E855F856C857D8595
:10198000CE010E94D709F4013496E4912C898C850C
:101990009D85E29F800D911D11248DCF6F927F92C6
:1019A0008F929F92AF92BF92CF92DF92EF92FF926F
:1019B0000F931F93CF93DF93EC016B015A01390111
:1019C0004801E881F9810284F385E02D0995E881D9
:1019D000F9810288F389E02D87019301A501B60101
:1019E000CE010995A501480D591D41505109E881C5
:1019F000F9810288F389E02D9301B601CE010995A2
:101A0000E881F9810088F189E02D9401A501B601F2
:101A1000CE010995C60CD71CB60161507109E88149
:101A2000F9810088F189E02D9401A501CE01099585
:101A3000E881F9810688F789E02DCE01DF91CF9109
:101A40001F910F91FF90EF90DF90CF90BF90AF90DC
:101A50009F908F907F906F9009946F927F928F925A
:101A60009F92AF92BF92CF92DF92EF92FF920F932D
:101A70001F93CF93DF935C01EB016A0149013801A9
:101A80008701DC01ED91FC916217730719F564166B
:101A900075062CF0962D872D3A01C92ED82E960169
:101AA000261937092F5F3F4F048CF58DE02DA301D8
:101AB000BE01C5010995DF91CF911F910F91FF9054
:101AC000EF90DF90CF90BF90AF909F908F907F90DE
:101AD0006F9008954615570591F42617370724F09F
:101AE000892D4B01C22FD82F9E01281939092F5F4C
:101AF0003F4F068CF78DE02DA601B401DACF0284AA
:101B0000F385E02D0995D501ED91FC910488F589C7
:101B1000E02D83019401A601BE01C5010995D501FF
:101B2000ED91FC910688F789E02DC501DF91CF91F9
:101B30001F910F91FF90EF90DF90CF90BF90AF90EB
:101B40009F908F907F906F900994EF92FF920F93E8
:101B50001F93DC011A960D911C911B9718962D91DD
:101B60003C911997ED91FC9100A0F1A1E02D7B0132
:101B700050E040E070E060E009951F910F91FF9008
:101B8000EF9008954F925F926F927F928F929F9203
:101B9000AF92BF92CF92DF92EF92FF920F931F937B
:101BA000CF93DF936C012B015A0139014801DC010D
:101BB000ED91FC910284F385E02D0995E201640C1E
:101BC000751CD601ED91FC91C615D7055CF4008813
:101BD000F189E02D87019401A501BE01C601099597
:101BE0002196EFCF0688F789E02DC601DF91CF91CE
:101BF0001F910F91FF90EF90DF90CF90BF90AF902B
:101C00009F908F907F906F905F904F9009948F92EC
:101C10009F92AF92BF92CF92DF92EF92FF920F937B
:101C20001F93CF93DF93EC015B014A016901E881C7
:101C3000F9810284F385E02D099595012C0D3D1D58
:101C400021503109E881F9810488F589E02D780176
:101C50008401A401B501CE010995E881F9810688C6
:101C6000F789E02DCE01DF91CF911F910F91FF9069
:101C7000EF90DF90CF90BF90AF909F908F9009949E
:101C80008F929F92AF92BF92CF92DF92EF92FF928C
:101C90000F931F93CF93DF93EC015B014A0169011E
:101CA0007801E881F9810284F385E02D0995C80C5B
:101CB000D91C860101501109E881F9810488F58950
:101CC000E02D9501A401B501CE010995E881F981C6
:101CD0000688F789E02DCE01DF91CF911F910F91FA
:101CE000FF90EF90DF90CF90BF90AF909F908F903C
:101CF0000994EF92FF920F931F93DC01ED91FC91F9
:101D000000A0F1A1E02D09951F910F91FF90EF9098
:101D100008950F931F93DC01ED91FC91068CF78DD4
:101D2000E02D09951F910F9108950F931F93DC01EA
:101D3000ED91FC91048CF58DE02D09951F910F918B
:101D40000895DC01ED91FC910084F185E02D09946A
:101D50003F924F925F926F927F928F929F92AF923B
:101D6000BF92CF92DF92EF92FF920F931F93CF9388
:101D7000DF935C017B014A016901390187E0680E4C
:101D8000711C93E0759467949A95E1F72B01400ECE
:101D9000511E10E000E0312CD0E0C0E0CE01877091
:101DA0009927330C892B59F4FE0183E0F595E795CB
:101DB0008A95E1F7E00FF11FE80DF91D349037FE29
:101DC0000AC021E030E0A701B5016C0F7D1F86E459
:101DD00093E00E94A10E2196CC16DD06F9F68FEF56
:101DE000E81AF80A060D171DE414F504A9F6DF91A8
:101DF000CF911F910F91FF90EF90DF90CF90BF9008
:101E0000AF909F908F907F906F905F904F903F909A
:101E100008952F923F924F925F926F927F928F928E
:101E20009F92AF92BF92CF92DF92EF92FF920F9369
:101E30001F93CF93DF9300D000D000D0CDB7DEB793
:101E40003C016A013E832D83FC82EB825801A41A77
:101E5000B50AB7FE03C0B194A194B1088D809E80ED
:101E6000861A970A97FE03C09194819491088A1468
:101E70009B045CF0902F812F0D811E819D838E83AA
:101E80009C2D8D2D6B01692F782F0C151D055CF095
:101E90009D818E817E836D83692F782F902F812F76
:101EA0008601C92ED82E1601201A310A2B012D8148
:101EB0003E81421A530A57FE03C05194419451087F
:101EC000710137FE03C03FEFE31AF30AF594E7947C
:101ED0008D819E81861797075CF5A1E0B0E0BA83FB
:101EE000A983C016D1064CF1D301ED91FC91048475
:101EF000F585E02D2B813C81A8016D817E818A14BE
:101F00009B041CF04D815E81B801C3010995E41862
:101F1000F508F7FE0AC02D813E8189819A81280F3C
:101F2000391F3E832D83E20CF31C0F5F1F4FD9CF67
:101F30002FEF3FEF3A832983D4CF26960FB6F8943C
:101F4000DEBF0FBECDBFDF91CF911F910F91FF90EC
:101F5000EF90DF90CF90BF90AF909F908F907F9049
:101F60006F905F904F903F902F900895089520912B
:101F70003C02260F3327331F21323105ECF4209128
:101F80006002FC0190E080E0243069F082E0089576
:101F9000A0913C022191AC01445E5D4FA40FB52F8E
:101FA000B11D2C930196861798F380913C02680F1F
:101FB00060933C0280E0089581E0089510926002F1
:101FC00081E0809362021092610261E082E10E94EE
:101FD0009B0561E083E10E949B05E9EBF0E08081D5
:101FE0008E7F808380818D7F808388E48093B8009A
:101FF00085E48093BC000895CF93DF9391E09093A4
:102000001B028823B9F0C091B800D091BA0080912A
:10201000BC008A7B8093BC0060E082E10E949B054B
:1020200060E083E10E949B050E94DE0FD093BA001E
:10203000C093B800DF91CF910895E0918C02809118
:102040008B02E81730F4F0E0EA50FE4F808190E018
:1020500008958FEF9FEF089590918C0280918B02ED
:102060002FEF3FEF981748F4E92FF0E0EA50FE4FCA
:10207000208130E09F5F90938C02C9010895809188
:102080008B0290918C02891B990B0895CF92DF925D
:10209000EF92FF920F931F93CF93DF937C01CB01BD
:1020A0008A0120919902222389F0EB016B01C40E71
:1020B000D51ECC15DD0569F06991D701ED91FC9134
:1020C0000190F081E02DC7010995F3CF642F0E94A4
:1020D000B70FC801DF91CF911F910F91FF90EF9043
:1020E000DF90CF900895CF93DF931F92CDB7DEB7E7
:1020F0006983209199022223F9F0209196022032DF
:1021000058F021E030E0FC013383228390E080E04E
:102110000F90DF91CF91089580919702E82FF0E022
:10212000EA52FE4F998190838F5F8093970280934C
:10213000960281E090E0ECCF61E0CE0101960E9432
:10214000B70FF7CFCF92DF92EF92FF920F931F93CB
:10215000CF93DF93D091960281E0D13208F09CC0FA
:10216000C09198020E94FA056B017C018091600287
:1021700081116CC082E08093600281E080936202F2
:102180008FEF80935F0210928402D0938302A6EDBA
:10219000B1E0E3E6F2E080E0D8138DC01092850252
:1021A00080918502CC0FC82BC0938502809161027B
:1021B000813009F084C0109261020E94FA056B011F
:1021C0007C01809185028093BB00809117029091E1
:1021D0001802A0911902B0911A02892B8A2B8B2B1D
:1021E000A1F00E94FA0500911702109118022091A7
:1021F000190230911A026C197D098E099F09061780
:1022000017072807390708F442C08091BC0083FDF6
:10221000D8CF85EC8093BC000E94FA056B017C014D
:1022200080916002823009F44CC080915F028F3F40
:1022300009F469C080915F02803209F466C0809120
:102240005F02803309F463C084E026C080911702E6
:1022500090911802A0911902B0911A02892B8A2B31
:102260008B2B09F483CF0E94FA050091170210917D
:1022700018022091190230911A026C197D098E09F9
:102280009F09061717072807390708F06FCF8091B5
:1022900016020E94FC0F85E010929702109296029F
:1022A00010929902DF91CF911F910F91FF90EF90C3
:1022B000DF90CF9008959D9191938F5F6DCF85EEC4
:1022C000A9CF8091170290911802A0911902B091A4
:1022D0001A02892B8A2B8B2B09F4A2CF0E94FA05B4
:1022E00000911702109118022091190230911A02E0
:1022F0006C197D098E099F090617170728073907EA
:1023000008F08ECFC4CF80E0C7CF82E0C5CF83E096
:10231000C3CFEF92FF920F931F93CF93DF937C0174
:10232000C62F8091630390916403009709F459C00C
:102330002091670331E03093990220939802109224
:10234000970210929602DC01ED91FC910190F081D0
:10235000E02D60E009958701EE24E394F12CD1E0B3
:10236000C1508091630390916403CF3F91F1B0E23B
:10237000EB16F104D8F00E94A210809163039091B3
:10238000640320916703D0939902209398021092DE
:10239000970210929602DC01ED91FC910190F08180
:1023A000E02D60E00995EE24E394F12C8091630325
:1023B00090916403F8016491DC01ED91FC9101902E
:1023C000F081E02D0995BFEFEB1AFB0A0F5F1F4F5D
:1023D000C7CFDF91CF911F910F91FF90EF900C9499
:1023E000A210E0917303F0917403908180917903BE
:1023F0008095892380838701C15008F438C0F80193
:1024000084912091610330916203232B29F00E9473
:10241000B7090F5F1F4FF0CF28E030E040E8E091B0
:102420006F03F091700390917703582F5423D9F0E4
:102430005081952B9083E0917103F091720390810C
:1024400050917803952B9083E0917103F091720382
:1024500050819091780390959523908346952150D3
:102460003109E9F6D6CF508190959523E3CFDF91DE
:10247000CF911F910F91FF90EF9008951F93CF93ED
:10248000DF93EC018D8D9E8D009721F1162F29A1F0
:1024900031E03093990220939802109297021092A3
:1024A0009602DC01ED91FC910190F081E02D60E05D
:1024B00009958D8D9E8DDC01ED91FC910190F0814F
:1024C000E02D612F09958D8D9E8DDF91CF911F910C
:1024D0000C94A210ADA5BEA59C918BA980958923D3
:1024E0008C938B8D9C8D892B31F0862FDF91CF9132
:1024F0001F910C94B70928E030E080E8A9A5BAA59F
:1025000099A9462F4823C1F04C91942B9C93ABA5DD
:10251000BCA59C914AA9942B9C93ABA5BCA54C91BE
:102520009AA9909594239C9386952150310931F76F
:10253000DF91CF911F9108954C9190959423E6CF10
:102540001F93CF93DF93EC01162F8D8D9E8D892BDA
:10255000B1F12DA93EA94FA958AD60E074E284EF16
:1025600090E00E94EB1B2051310941095109569519
:102570004795379527952093B80066EA111167EAC9
:10258000CE010E943E128D8D9E8D892B41F129AD89
:102590003AAD4BAD5CAD60E074E284EF90E00E9438
:1025A000EB1B205131094109510956954795379543
:1025B00027952093B800DF91CF911F9108958B8DBF
:1025C0009C8D892B21F08EAD9FAD0E94BE09EFA599
:1025D000F8A990818CA9809589238083CECFEFA51F
:1025E000F8A980819CA9892B8083E5CF90E080E0C9
:1025F0000895FF920F931F93CF93DF9360E0809134
:1026000038030E94C90500E0D0E0C0E061E080919D
:1026100039030E949B0560E0809139030E949B056D
:102620002091380330E0F901EB58F54F8491F9011E
:10263000EF59F54FF490F901E35BF54F1491112335
:1026400019F181110E947205E12FF0E0EE0FFF1FDA
:10265000ED5BF54FA591B491EC91FE2231E009F4C8
:1026600030E0832F0C2E01C0880F0A94EAF7082B64
:102670002196C830D10509F0C9CF802FDF91CF91C5
:102680001F910F91FF90089580E0ECCF20914C03B3
:1026900030914D03C901079697FD079623E0959564
:1026A00087952A95E1F720914A0330914B03829F49
:1026B000A001839F500D929F500D112470E060E0A7
:1026C00080916503909166030C94031E0E94F51D92
:1026D000FB0101900020E9F73197AF01461B570B32
:1026E000DC01ED91FC910280F381E02D09940F93C0
:1026F0001F93CF93DF93EC010E9468138C0166E572
:1027000071E0CE010E946813800F911FDF91CF917D
:102710001F910F910895EF92FF920F931F93CF9304
:10272000DF93EC017B01198218821B821A821D82C1
:102730001C82FB0101900020E9F731978F01061BF5
:10274000170BB8016F5F7F4F90E080E00E94381D4B
:102750000097B9F0998388831B830A832C813D817C
:10276000232B11F4FC0110821D830C83B701888197
:102770009981DF91CF911F910F91FF90EF900C9471
:102780000A1E88819981009711F00E94AF1C19825E
:1027900018821D821C821B821A82DF91CF911F91A9
:1027A0000F91FF90EF90089585ED8093BC0080918C
:1027B000170290911802A0911902B0911A0207967F
:1027C000A11DB11D23E0B695A795979587952A95EC
:1027D000D1F72091BC0024FD03C01092600208953F
:1027E00040911702509118026091190270911A02DB
:1027F000452B462B472B69F30097A105B10541F006
:102800002AE22A95F1F700C00197A109B109E1CFA9
:10281000809116020C94FC0F1F920F920FB60F922C
:1028200011242F933F938F939F93AF93BF938091E6
:102830008E0290918F02A0919002B09191023091FE
:102840008D0223E0230F2D3758F50196A11DB11DF0
:1028500020938D0280938E0290938F02A09390021A
:10286000B09391028091920290919302A091940270
:10287000B09195020196A11DB11D80939202909393
:102880009302A0939402B0939502BF91AF919F9150
:102890008F913F912F910F900FBE0F901F90189521
:1028A00026E8230F0296A11DB11DD2CF1F920F92D1
:1028B0000FB60F9211242F933F934F935F936F9313
:1028C0007F938F939F93AF93BF93EF93FF938AE987
:1028D00092E00E94D106FF91EF91BF91AF919F913D
:1028E0008F917F916F915F914F913F912F910F90B9
:1028F0000FBE0F901F9018951F920F920FB60F9258
:1029000011242F938F939F93EF93FF93E091AA024B
:10291000F091AB028081E091B002F091B10282FDB2
:102920001BC090818091B3028F5F8F732091B4029E
:10293000821741F0E091B302F0E0E656FD4F958F2B
:102940008093B302FF91EF919F918F912F910F9000
:102950000FBE0F901F9018958081F4CF1F920F9299
:102960000FB60F9211242F933F934F935F936F9362
:102970007F938F939F93AF93BF93EF93FF93809138
:10298000B900887F803609F44AC0F0F5883209F42E
:10299000A7C018F5803109F49BC0B8F4882309F466
:1029A000F9C0883009F494C0FF91EF91BF91AF91C5
:1029B0009F918F917F916F915F914F913F912F9157
:1029C0000F900FBE0F901F901895883109F488C0A2
:1029D000803251F780935F0214C0803409F49DC0A7
:1029E00040F48033B9F38833F9F680935F0285ECC5
:1029F000B0C0803509F485C0883509F496C08834A4
:102A000099F60E94D413D0CF883909F48CC038F5D8
:102A1000883729F050F4883611F0803729F683E0A2
:102A20008093600210925E0257C0883809F47BC020
:102A3000803919F0803809F0B7CF80915E0280327A
:102A400008F071C0E0915E0281E08E0F80935E021B
:102A50008091BB00F0E0E25CFD4F80833DC0803B95
:102A600039F0E0F4803A09F479C0883A09F09CCF53
:102A700084E08093600210923D0210923C02E0914B
:102A80008902F0918A02099580913C0281110FC060
:102A900081E080933C0210921C0209C0803C09F442
:102AA000A6CF883C09F4A3CF883B09F07DCFE09105
:102AB0003D0281E08E0F80933D02F0E0E45EFD4F29
:102AC00080818093BB0090913D0280913C0229C09F
:102AD000809185028093BB0085EC8093BC0064CF1D
:102AE0009091840280918302981758F5E0918402B6
:102AF00081E08E0F80938402F0E0ED59FD4F8081DC
:102B0000E9CFE091840281E08E0F8093840280916E
:102B1000BB00F0E0ED59FD4F8083909184028091DD
:102B200083029817C8F285E8D8CFE091840281E04B
:102B30008E0F809384028091BB00F0E0ED59FD4F31
:102B400080838091620281115CCF81E08093610279
:102B500084EA8093BC001092600226CF85EC8093BB
:102B6000BC001092600280915E02803230F4E091ED
:102B70005E02F0E0E25CFD4F108260915E0270E068
:102B8000E0918702F09188028EE392E0099510921D
:102B90005E020ACF10925F0234CFEAE9F2E01382BC
:102BA000128248EE53E060E070E044835583668310
:102BB00077838AE091E09183808385EC90E095872C
:102BC000848784EC90E09787868780EC90E0918BF7
:102BD000808B81EC90E0938B828B82EC90E0958BE4
:102BE000848B86EC90E0978B868B118E128E138EE1
:102BF000148EAAE3B3E013961C921E9212971496B9
:102C00004D935D936D937C9317978CE191E01196B2
:102C10009C938E93E6E4F3E01382128220E830E086
:102C20003583248380E490E09783868331872087EF
:102C300093878287168A158614861786168681E002
:102C4000858B848B2FEF3FEF338B228B318B208B47
:102C5000878B108E128E118E8EE291E0918380838D
:102C6000148E138EB68FA58F10A2178E8FEF84A3AC
:102C700085A386A387A384E080A740E85AE166E0A5
:102C800070E045AB56AB67AB70AF40EA56E861E029
:102C900070E041AF52AF63AF74AF90E596AF17AE3F
:102CA000E7E3F3E092E0908393E09183828360E036
:102CB00082E00E949B0561E082E00E94C90560E01D
:102CC00083E00E94C90560E084E00E949B0561E00A
:102CD00084E00C94C905CF93DF93CDB7DEB7EC97B2
:102CE0000FB6F894DEBF0FBECDBF789484B5826076
:102CF00084BD84B5816084BD85B5826085BD85B5A0
:102D0000816085BD80916E00816080936E0010921D
:102D10008100809181008260809381008091810098
:102D20008160809381008091800081608093800029
:102D30008091B10084608093B1008091B000816087
:102D40008093B00080917A00846080937A008091B3
:102D50007A00826080937A0080917A00816080930B
:102D60007A0080917A00806880937A001092C10086
:102D7000E091AA02F091AB0282E08083E091A6028A
:102D8000F091A7021082E091A802F091A9028FECC5
:102D900080831092B202E091AE02F091AF0286E021
:102DA0008083E091AC02F091AD02808180618083EC
:102DB000E091AC02F091AD02808188608083E09167
:102DC000AC02F091AD02808180688083E091AC021A
:102DD000F091AD0280818F7D808380916503909119
:102DE0006603892B11F10E94461320914C03309108
:102DF0004D0380914A0390914B03213231050CF031
:102E000011C1B9016052710977FF02C06F5F7F4F36
:102E1000759567958357910997FD019600E210E03B
:102E200023E730E04AE855E010C120914C0330918F
:102E30004D03C901079697FD0796B3E095958795D1
:102E4000BA95E1F720914A0330914B03AC01429FC0
:102E5000C001439F900D529F900D11240E94131C9E
:102E60009093660380936503892B09F0BCCF81E0C2
:102E700090E0909359038093580390935703809365
:102E800056030E94461381E080935A0380935B03AC
:102E900083E290E0909353038093520385E090E0A7
:102EA000909355038093540369E571E086E493E0C1
:102EB0000E94771382E080935A0380935B038FE034
:102EC00090E090935303809352038EE190E09093AF
:102ED00055038093540364E671E086E493E00E9416
:102EE00077138091630390916403892B09F490C256
:102EF00020917B0330917C0340917D0350917E03B0
:102F000060E074E284EF90E00E94EB1B20513109F5
:102F10004109510956954795379527952093B80053
:102F200065E08AE29AE00E94891160914A0361504B
:102F300086E493E00E943E1220914C0330914D03B1
:102F4000C901079697FD0796A3E095958795AA95E1
:102F5000E1F720914A0330914B03829F7001839FD8
:102F6000F00C929FF00C1124009165031091660300
:102F70008091630390916403E00EF11E009709F4C1
:102F800030C32091670331E0309399022093980277
:102F90001092970210929602DC01ED91FC91019043
:102FA000F081E02D60E40995CC24C394D12CBB249E
:102FB000B3948091630390916403E016F10609F4E1
:102FC0003EC2B0E2CB16D104D8F00E94A21080918C
:102FD00063039091640320916703B0929902209358
:102FE00098021092970210929602DC01ED91FC91EA
:102FF0000190F081E02D60E40995CC24C394D12C9C
:103000008091630390916403F80161918F01DC0169
:10301000ED91FC910190F081E02D0995BFEFCB1A65
:10302000DB0AC7CFB9016054710977FF02C06F5F37
:103030007F4F759567958255910997FD019600E43C
:1030400010E022E530E04AE657E0959587950E942A
:10305000A80E82E0809368038091630390916403DB
:10306000892B09F4DFC08CE38093670310928C02F4
:1030700010928B0210929702109296020E94DE0F1D
:1030800081E596E090938A028093890282E596E03A
:10309000909388028093870280916E0387FD1EC003
:1030A00061E00E94C90561E080916E030E949B056A
:1030B00061E070E080E090E00E941F0660E0809197
:1030C0006E030E949B056AE070E080E090E00E9441
:1030D0001F0661E080916E030E949B05809163034F
:1030E00090916403892B09F45CC120917B0330919A
:1030F0007C0340917D0350917E0360E074E284EF95
:1031000090E00E94EB1B205131094109510956956D
:103110004795379527952093B80064E086E895E0B9
:103120000E94891160914C03615086E493E00E94F3
:103130003E1264E082E895E00E9489118091680364
:1031400060E1813009F064E186E493E00E943E1280
:1031500064E08EE795E00E9489118FE880938303F5
:1031600080914A0390914B038038910509F032C158
:1031700080914C0390914D038034910509F03AC140
:1031800080916803813009F023C18FE98093830324
:1031900012E16AED86E493E00E943E12612F86E41C
:1031A00093E00E943E1261E886E493E00E943E12A2
:1031B0006091830386E493E00E943E1269ED86E409
:1031C00093E00E943E128091680362E2813009F030
:1031D00061EF86E493E00E943E1266E088E795E0A6
:1031E0000E9489118091630390916403892B09F4F3
:1031F00005C120917F03309180034091810350915C
:10320000820360E074E284EF90E00E94EB1B2051A7
:1032100031094109510956954795379527952093CE
:10322000B80025CE61E080916C030E94C90561E081
:1032300080916D030E94C90580916C03082E000CDB
:10324000990BFC01E35BF54FE491F0E0EE0FFF1FFB
:10325000E75CF54F25913491309374032093730309
:10326000FC01EF59F54FE491E093790380916D03F0
:10327000082E000C990BFC01E35BF54FE491F0E0A4
:10328000EE0FFF1FE75CF54FA591B491B093760365
:10329000A0937503FC01EF59F54FE491E0937A0395
:1032A0008C91E82BEC938091610390916203892BC0
:1032B00009F434C01FB7F89480918602811127C0A9
:1032C000E7E5FAE08491EBE6FAE09491E82FF0E08C
:1032D000EE0FFF1FE15DF54FA591B491EC91E9234D
:1032E00021F461E08AE00E949B0561E08AE00E948F
:1032F000C9058CB580618CBD8CB580648CBD61E0E6
:103300008DE00E94C90561E08BE00E94C9058091B3
:1033100086028F5F809386021FBFBECE61E08091E0
:103320006A030E94C90561E080916B030E94C90590
:1033300080916A03082E000C990BFC01E35BF54FAA
:10334000E491F0E0EE0FFF1FE75CF54F259134911B
:103350003093700320936F03FC01EF59F54FE49114
:10336000E093770380916B03082E000C990BFC010E
:10337000E35BF54FE491F0E0EE0FFF1FE75CF54FE4
:10338000A591B491B0937203A0937103FC01EF591E
:10339000F54FE491E09378038C91E095E823EC936A
:1033A0007BCE8091610390916203892B31F08091F3
:1033B0008403909185030E94BE09E0917503F0910A
:1033C0007603908180917A03809589238083A5CEAE
:1033D0008FECDCCE8036910569F480914C0390919E
:1033E0004D03409739F480916803813029F480E1DE
:1033F0008093830312E0CDCE8FEAFACFE09175037C
:10340000F0917603808190917A03892B80832FCD70
:103410008091610390916203892B31F08091840344
:10342000909185030E94BE09E0917503F0917603A7
:10343000908180917A0380958923808371CD0E9449
:10344000A2108091630390916403892B09F40DC14C
:1034500020917F033091800340918103509182033A
:1034600060E074E284EF90E00E94EB1B2051310990
:103470004109510956954795379527952093B800EE
:103480002BE0E22EF12C3FEB632E712C4AE0542E00
:1034900055EBC52E51E0D52E9E012F5F3F4F5901B0
:1034A00060E0862E60E0962E4090370360E08091C9
:1034B00039030E949B0561E0842D0E949B05C70192
:1034C0000197F1F761E0809138030E94C90510E08F
:1034D00000E0B301002E02C0759567950A94E2F7EB
:1034E0006170809138030E949B0561E080913903EF
:1034F0000E949B0560E00730110509F0C0C0809173
:1035000038030E94C9050F5F1F4F0830110509F7E6
:103510000E94F912982F929597708F70282E959D82
:10352000200C11240E94F912982F92959F708F7091
:10353000959D800D11248CAF0E94F912282F30E048
:1035400087FFA2C085FB222720F93CE0239F202D86
:1035500011248F70820F8BAF0E94F912982F9295D1
:103560009F708F70959D800D11248AAF0E94F91273
:10357000982F92959F708F70959D800D112489AF23
:103580000E94F912982F92959F708F70382E959DFA
:10359000300C11240E94F912982F92959F708F7011
:1035A000959D800D1124082F10E00053184F60E006
:1035B000842D0E949B05C7010197F1F7EFEFE30D02
:1035C00067EA71E0E73008F06BC0F0E0E651F54ED5
:1035D0000C940D1C4E1B931B961B991B9C1B9F1B35
:1035E000A21BE0917303F0917403808190917903A1
:1035F000892B8083E016F10609F423CFF80181912D
:103600008F012091610330916203232B19F00E94F6
:10361000B709F0CF28E030E040E8E0916F03F09187
:10362000700390917703582F5423D9F05081952B34
:103630009083E0917103F09172039081509178032F
:10364000952B9083E0917103F091720350819091DA
:103650007803909595239083469521503109E9F69A
:10366000C9CF508190959523E3CFE0917503F091F8
:103670007603808190917A03892B808301CF80919A
:1036800039030E949B053FCF94E0359527959A9585
:10369000E1F72370259D202D11245BCF6EE671E0AC
:1036A000CE01C3960E948B131F922F921F924CAD96
:1036B0004F931F925BAD5F931F928AAD8F931F92C2
:1036C00099AD9F931F930F938CA98F938BA98F9381
:1036D000DF92CF921F92A2E3AF93BF92AF920E946C
:1036E000111EB5018AE992E00E9477138BA99CA96B
:1036F0000FB6F894DEBF0FBECDBF009711F00E9449
:10370000AF1C68EE73E080E090E00E941F06811419
:10371000910409F4C9CE0E94BD06882309F4C4CEE1
:103720000E940000C1CE65E771E0BACF6CE771E09E
:10373000B7CF64E871E0B4CF6EE871E0B1CF67E96C
:1037400071E0AECF6EE971E0ABCF8EE291E0909385
:103750004703809346038091650390916603009729
:1037600011F00C94AF1C08952F923F924F925F92EC
:103770006F927F928F929F92AF92BF92CF92DF9281
:10378000EF92FF920F931F93CF93DF93CDB7DEB7E6
:10379000CA1BDB0B0FB6F894DEBF0FBECDBF09947A
:1037A0002A88398848885F846E847D848C849B84D1
:1037B000AA84B984C884DF80EE80FD800C811B81DF
:1037C000AA81B981CE0FD11D0FB6F894DEBF0FBE0E
:1037D000CDBFED010895A1E21A2EAA1BBB1BFD016E
:1037E0000DC0AA1FBB1FEE1FFF1FA217B307E407E0
:1037F000F50720F0A21BB30BE40BF50B661F771F38
:10380000881F991F1A9469F7609570958095909517
:103810009B01AC01BD01CF010895EE0FFF1F059084
:10382000F491E02D09940F931F93CF93DF9382308F
:10383000910510F482E090E0E0918803F091890313
:1038400030E020E0B0E0A0E0309799F42115310598
:1038500009F44AC0281B390B24303105D8F58A8178
:103860009B816115710589F1FB0193838283FE01C0
:1038700011C0408151810281138148175907E0F03E
:103880004817590799F4109761F012960C93129704
:1038900013961C933296CF01DF91CF911F910F9118
:1038A00008950093880310938903F4CF21153105FF
:1038B00051F04217530738F0A901DB019A01BD010D
:1038C000DF01F801C1CFEF01F9CF90938903809315
:1038D0008803CDCFFE01E20FF31F81939193225015
:1038E000310939832883D7CF20918603309187030C
:1038F000232B41F42091020130910301309387037F
:10390000209386032091000130910101211531059A
:1039100041F42DB73EB74091040150910501241B9D
:10392000350BE0918603F0918703E217F307A0F4CB
:103930002E1B3F0B2817390778F0AC014E5F5F4F05
:103940002417350748F04E0F5F1F509387034093AD
:103950008603819391939FCFF0E0E0E09CCFCF93DB
:10396000DF930097E9F0FC01329713821282A09155
:103970008803B0918903ED0130E020E01097A1F4B5
:1039800020813181820F931F20918603309187031C
:103990002817390709F061C0F0938703E093860385
:1039A000DF91CF910895EA01CE17DF07E8F54A814C
:1039B0005B819E0141155105B1F7E901FB83EA8363
:1039C00049915991C40FD51FEC17FD0761F480810F
:1039D00091810296840F951FE901998388838281E2
:1039E00093819B838A83F0E0E0E012968D919C9115
:1039F00013970097B9F52D913C911197CD0102963F
:103A0000820F931F2091860330918703281739076F
:103A100039F6309751F51092890310928803B093CC
:103A20008703A0938603BCCFD383C2834081518197
:103A3000840F951FC817D90761F44E5F5F4F8881C7
:103A40009981480F591F518340838A819B819383B9
:103A500082832115310509F0B0CFF0938903E093FB
:103A600088039ECFFD01DC01C0CF13821282D7CF25
:103A7000B0E0A0E0EEE3FDE10C94B61B8C010097F2
:103A800051F4CB010E94131C8C01C801CDB7DEB7E5
:103A9000E0E10C94D21BFC01E60FF71F9C012250C1
:103AA0003109E217F30708F49DC0D901CD91DC91EB
:103AB0001197C617D70798F0C530D10530F3CE015E
:103AC00004978617970708F3C61BD70B2297C19355
:103AD000D1936D937C93CF010E94AF1CD6CF5B0135
:103AE000AC1ABD0A4C018C0E9D1EA0918803B091AA
:103AF0008903512C412CF12CE12C109731F5809148
:103B00008603909187038815990509F05CC04616D5
:103B1000570608F058C0809100019091010100976C
:103B200041F48DB79EB74091040150910501841B6B
:103B3000950BE817F90708F055C0F0938703E09359
:103B40008603F90171836083A0CF8D919C911197B9
:103B500012966C90129713967C901397A815B9053E
:103B600059F56C0142E0C40ED11CCA14DB0420F1EB
:103B7000AC014A195B09DA011296159780F062824E
:103B8000738251834083D9016D937C93E114F104D6
:103B900071F0D7011396FC93EE93129776CF22968D
:103BA0008C0F9D1FF90191838083F301EFCFF09378
:103BB0008903E093880369CF4816590608F42C015D
:103BC0007D01D3019ACFCB010E94131C7C01009789
:103BD00049F0AE01B8010E94FA1DC8010E94AF1C55
:103BE000870153CF10E000E050CF81E090E0F894DF
:103BF0000C94BF20FB01DC0102C001900D924150EA
:103C00005040D8F70895DC0101C06D9341505040F9
:103C1000E0F70895FB01DC0101900D920020E1F72F
:103C20000895AEE0B0E0E7E1FEE10C94C21B0D891F
:103C30001E898F89988D26E02C831A83098397FF2C
:103C400002C080E090E801979E838D83AE01455EBF
:103C50005F4F698D7A8DCE0101960E94411E4D8184
:103C60005E8157FD0AC02F813885421753070CF437
:103C70009A01020F131FF80110822E96E4E00C94B3
:103C8000DE1BABE0B0E0E7E4FEE10C94B41B7C018A
:103C90003B018A01FC0117821682838181FFC8C122
:103CA000CE0101965C01F7019381F30193FD8591AB
:103CB00093FF81913F01882309F453C1853239F480
:103CC00093FD859193FF81913F01853229F4B701DE
:103CD00090E00E943120E7CF912C212C312CFFE184
:103CE000F31538F08B3211F190F4803209F1833200
:103CF00029F137FC3CC020ED280F2A3050F536FE64
:103D000020C08AE0989E200D1124922E06C08D328C
:103D100091F0803371F7689430F8F30193FD859149
:103D200093FF81913F018111DACF21C0689431F86E
:103D3000689432F8F2CF689433F8EFCF689434F88F
:103D4000ECCFEAE02E9E200D1124222E689435F847
:103D5000E4CF8E3229F436FC04C1689436F8DDCF06
:103D60008C3619F4689437F8D8CF8836B1F2982F8A
:103D70009F7D95549330E0F08336A1F18337C1F1F4
:103D8000833509F063C02801F2E04F0E511CF801A1
:103D9000C080D180692D70E036FC02C06FEF7FEFEC
:103DA000C6010E941B204C01689437F882010AC0AA
:103DB0000C5F1F4FFFE3F98388248394912C6501E6
:103DC000E89437F833FE2DC0522C8114910471F51C
:103DD000552009F468CFB70180E290E00E943120BD
:103DE0005A94F6CFF801808189830E5F1F4FE4CF8C
:103DF0002801F2E04F0E511CF801C080D180692DDE
:103E000070E036FC02C06FEF7FEFC6010E942620F3
:103E10004C018201D5CFB70180E290E00E943120B1
:103E20002A942814190409F0B0F7CECFF60137FC14
:103E3000859137FE81916F01B70190E00E9431209A
:103E400051105A94F1E08F1A9108BFCF843619F0BF
:103E5000893609F077C0F80137FE6BC06081718147
:103E6000828193810C5F1F4FF32DFF763F2E97FFCA
:103E700009C090958095709561957F4F8F4F9F4FAA
:103E8000689437F82AE030E0A5010E946120C82E2E
:103E9000CA188C2C432C36FE0CC0E89440F8C91488
:103EA00040F434FE05C032FC03C0F32DFE7E4F2EDD
:103EB000892C44FE95C0FE01EC0DF11D80818033FC
:103EC00009F087C0242D297E422E842D8870582E1B
:103ED00043FC95C040FE8FC09C2C821418F42C0C1F
:103EE000922C981844FE91C0B70180E390E00E94A4
:103EF000312042FE09C088E790E041FE02C088E51B
:103F000090E0B7010E943120C91408F48AC0CA9415
:103F1000D12C9FEFC91AD90ACA0CDB1CF601829179
:103F20006F01B70190E00E943120AC14BD04B1F7DD
:103F30004FCF60817181072E000C880B990B0E5FAB
:103F40001F4F92CFD32CE894D4F82AE030E0853785
:103F500039F1232D297FD22E8F3601F148F488358F
:103F6000A9F0F701868197812B96E2E10C94D01B92
:103F7000803749F08837A9F7D4FE02C06894D2F898
:103F800020E130E00DC06894D4F8F6CF34FE03C0D1
:103F9000822F8660D82E20E132E002C028E030E097
:103FA000F801D7FE0FC060817181828193810C5F1F
:103FB0001F4FA5010E946120C82ECA183D2CE8940D
:103FC00037F867CF6081718190E080E00E5F1F4F0E
:103FD000F0CF42FC02C0839478CF8394839475CF52
:103FE000842D867809F471CFF6CFB70180E290E096
:103FF0000E94312083948214C0F3512C73CF522C31
:104000005818821408F46ECFF8CF842D867809F4FE
:104010007BCF8BE241FE80E247FC8DE2B70190E06E
:1040200071CFB70180E390E00E9431209A946CCF69
:104030008FEF9FEF99CFFC01059061507040011008
:10404000D8F7809590958E0F9F1F0895FC016150C1
:10405000704001900110D8F7809590958E0F9F1FAA
:1040600008950F931F93CF93DF93182F092FEB0120
:104070008B8181FD09C01FEF0FEF812F902FDF9102
:10408000CF911F910F91089582FF14C02E813F811F
:104090008C819D81281739073CF4E881F981CF0193
:1040A00001969983888310838E819F8101969F83D7
:1040B0008E83E3CFE885F985812F0995892BA1F3BC
:1040C000DACFFA01AA27283051F1203181F1E894A2
:1040D0006F936E7F6E5F7F4F8F4F9F4FAF4FB1E0FB
:1040E0003ED0B4E03CD0670F781F891F9A1FA11DF6
:1040F000680F791F8A1F911DA11D6A0F711D811DF7
:10410000911DA11D20D009F468943F912AE0269FBB
:1041100011243019305D3193DEF6CF010895462F1A
:104120004770405D4193B3E00FD0C9F7F6CF462FFB
:104130004F70405D4A3318F0495D31FD4052419364
:1041400002D0A9F7EACFB4E0A69597958795779521
:104150006795BA95C9F700976105710508959B01A8
:10416000AC010A2E06945795479537952795BA9531
:10417000C9F7620F731F841F951FA01D089515E0D6
:10418000C6E4D5E004C0FE010E940D1C2196C73490
:10419000D107C9F7F894FFCF00008A038000000020
:1041A0000000F306530680064007B1068F06A306FB
:1041B0000000000073104610F61271053F102C101D
:1041C0001D1000000000FC0B5306F612B60F070985
:1041D0007105A10E790E950E890E090F7105C209A0
:1041E000A0127708C008C20DA50D2D0DCE0C0D0A2A
:1041F000002D546F6E79436F64652D004F4C45441C
:1042000020544553540053756E646179004D6F6EB0
:104210006461790054756573646179005765646EF3
:1042200065736461790054687572736461790046DE
:1042300072696461790053617475726461790028F0
:10424000756E6B6E6F776E2064617929002573201F
:10425000253034642D253032642D253032642025FC
:0E4260003032643A253032643A253032640040
:107E0000112484B714BE81FFF0D085E080938100F7
:107E100082E08093C00088E18093C10086E0809377
:107E2000C20080E18093C4008EE0C9D0259A86E02C
:107E300020E33CEF91E0309385002093840096BBD3
:107E4000B09BFECF1D9AA8958150A9F7CC24DD24C4
:107E500088248394B5E0AB2EA1E19A2EF3E0BF2EE7
:107E6000A2D0813461F49FD0082FAFD0023811F036
:107E7000013811F484E001C083E08DD089C08234E0
:107E800011F484E103C0853419F485E0A6D080C0E4
:107E9000853579F488D0E82EFF2485D0082F10E0AE
:107EA000102F00270E291F29000F111F8ED06801E7
:107EB0006FC0863521F484E090D080E0DECF843638
:107EC00009F040C070D06FD0082F6DD080E0C81688
:107ED00080E7D80618F4F601B7BEE895C0E0D1E017
:107EE00062D089930C17E1F7F0E0CF16F0E7DF06D8
:107EF00018F0F601B7BEE89568D007B600FCFDCFD4
:107F0000A601A0E0B1E02C9130E011968C91119780
:107F100090E0982F8827822B932B1296FA010C0160
:107F200087BEE89511244E5F5F4FF1E0A038BF0790
:107F300051F7F601A7BEE89507B600FCFDCF97BE46
:107F4000E89526C08437B1F42ED02DD0F82E2BD052
:107F50003CD0F601EF2C8F010F5F1F4F84911BD097
:107F6000EA94F801C1F70894C11CD11CFA94CF0C13
:107F7000D11C0EC0853739F428D08EE10CD085E9AC
:107F80000AD08FE07ACF813511F488E018D01DD067
:107F900080E101D065CF982F8091C00085FFFCCF94
:107FA0009093C60008958091C00087FFFCCF809118
:107FB000C00084FD01C0A8958091C6000895E0E648
:107FC000F0E098E1908380830895EDDF803219F02E
:107FD00088E0F5DFFFCF84E1DECF1F93182FE3DFCA
:107FE0001150E9F7F2DF1F91089580E0E8DFEE27F6
:047FF000FF270994CA
:027FFE00040479
:00000001FF
