:020000040000FA
:100000000C9462000C948A000C948A000C948A0070
:100010000C948A000C948A000C948A000C948A0038
:100020000C948A000C948A000C948A000C948A0028
:100030000C948A000C948A000C948A000C948A0018
:100040000C94A5030C948A000C9415040C94EF03F3
:100050000C948A000C948A000C948A000C948A00F8
:100060000C9447040C948A00000000002400270030
:100070002A0000000000250028002B0000000000DE
:1000800023002600290004040404040404040202DA
:100090000202020203030303030301020408102007
:1000A0004080010204081020010204081020000012
:1000B0000008000201000003040700000000000027
:1000C0000000620511241FBECFEFD8E0DEBFCDBF18
:1000D00022E0A4E8B1E001C01D92A23AB207E1F724
:1000E00011E0A0E0B1E0EAE8F8E102C005900D926D
:1000F000A438B107D9F710E0C2E6D0E004C02197D8
:10010000FE010E949D07C136D107C9F70E94AA05CA
:100110000C94430C0C940000833081F028F481305F
:1001200099F08230A9F008958730A9F08830C9F09D
:100130008430B1F4809180008F7D03C08091800075
:100140008F7780938000089584B58F7784BD08955C
:1001500084B58F7DFBCF8091B0008F778093B00006
:1001600008958091B0008F7DF9CF1F93CF93DF93D7
:10017000282F30E0F901E255FF4F8491F901E6564E
:10018000FF4FD491F901EA57FF4FC491CC23A9F056
:10019000162F81110E948C00EC2FF0E0EE0FFF1F54
:1001A000EE58FF4FA591B4918FB7F894EC911111CF
:1001B00008C0D095DE23DC938FBFDF91CF911F91D4
:1001C0000895DE2BF8CFCF93DF9390E0FC01E65645
:1001D000FF4F24918A579F4FFC0184918823D1F0CF
:1001E00090E0880F991FFC01E859FF4FA591B49149
:1001F000FC01EE58FF4FC591D49161110EC09FB71D
:10020000F8948C91E22FE0958E238C932881E22341
:10021000E8839FBFDF91CF9108958FB7F894EC9159
:10022000E22BEC938FBFF6CF3FB7F8948091FA01A1
:100230009091FB01A091FC01B091FD0126B5A89B16
:1002400005C02F3F19F00196A11DB11D3FBFBA2F68
:10025000A92F982F8827BC01CD01620F711D811D28
:10026000911D42E0660F771F881F991F4A95D1F7AD
:100270000895AF92BF92CF92DF92EF92FF920F93C9
:100280001F93CF93DF936C017B018B01040F151F2C
:10029000EB015E01AE18BF08C017D10759F0699194
:1002A000D601ED91FC910190F081E02DC6010995F8
:1002B000892B79F7C501DF91CF911F910F91FF90A5
:1002C000EF90DF90CF90BF90AF900895FC01538DD9
:1002D000448D252F30E0842F90E0821B930B541720
:1002E00010F0CF96089501970895FC01918D828DAD
:1002F000981761F0A28DAE0FBF2FB11D5D968C9146
:10030000928D9F5F9F73928F90E008958FEF9FEF84
:100310000895FC01918D828D981731F0828DE80F40
:10032000F11D858D90E008958FEF9FEF0895FC01FA
:10033000918D228D892F90E0805C9F4F821B9109C7
:100340008F73992708958EEF91E00E94970121E025
:10035000892B09F420E0822F089580E090E0892B1A
:1003600029F00E94A30181110C9400000895FC0162
:10037000A48DA80FB92FB11DA35ABF4F2C91848D06
:1003800090E001968F739927848FA689B7892C9363
:10039000A089B1898C91837080648C93938D848DB6
:1003A000981306C00288F389E02D80818F7D8083B9
:1003B0000895EF92FF920F931F93CF93DF93EC0179
:1003C00081E0888F9B8D8C8D98131AC0E889F989FC
:1003D000808185FF15C09FB7F894EE89FF896083FF
:1003E000E889F98980818370806480839FBF81E080
:1003F00090E0DF91CF911F910F91FF90EF900895C2
:10040000F62E0B8D10E00F5F1F4F0F731127E02E9C
:100410008C8D8E110CC00FB607FCFACFE889F989D4
:10042000808185FFF5CFCE010E94B701F1CFEB8D22
:10043000EC0FFD2FF11DE35AFF4FF0829FB7F894A8
:100440000B8FEA89FB8980818062CFCFCF93DF93C6
:10045000EC01888D8823B9F0AA89BB89E889F989DC
:100460008C9185FD03C0808186FD0DC00FB607FC11
:10047000F7CF8C9185FFF2CF808185FFEDCFCE0144
:100480000E94B701E9CFDF91CF9108952091AB0190
:10049000260F3327331F21323105ECF42091CF0191
:1004A000FC0190E080E0243069F082E00895A091A2
:1004B000AB012191AC0145575E4FA40FB52FB11D83
:1004C0002C930196861798F38091AB01680F609387
:1004D000AB0180E0089581E0089508958FEF9FEFCC
:1004E00008958FEF9FEF08958091840190E091959A
:1004F000819591090895CF93DF93CB01EA01642F91
:100500000E944602CE01DF91CF910895CF93DF93F1
:100510001F92CDB7DEB7698361E0CE0101960E94DC
:10052000460281E090E00F90DF91CF91089590E036
:1005300080E00895FF920F931F93CF93DF9360E0C5
:1005400080919C020E94E30000E0D0E0C0E061E006
:1005500080919D020E94B50060E080919D020E9402
:10056000B50020919C0230E0F901E255FF4F8491E3
:10057000F901E656FF4FF490F901EA57FF4F149145
:10058000112319F181110E948C00E12FF0E0EE0F90
:10059000FF1FE458FF4FA591B491EC91FE2231E08A
:1005A00009F430E0832F0C2E01C0880F0A94EAF77B
:1005B000082B2196C830D10509F0C9CF802FDF91D3
:1005C000CF911F910F91FF90089580E0ECCFEF92B3
:1005D000FF920F931F93CF93DF93EC017B0119825E
:1005E00018821B821A821D821C82FB01019000204E
:1005F000E9F731978F01061B170BB8016F5F7F4F2B
:1006000090E080E00E94C8080097B9F09983888341
:100610001B830A832C813D81232B11F4FC01108262
:100620001D830C83B70188819981DF91CF911F9140
:100630000F91FF90EF900C948E098881998100971B
:1006400011F00E943F08198218821D821C821B82B1
:100650001A82DF91CF911F910F91FF90EF90089533
:100660001F93CF93DF9385ED8093BC00809187012A
:1006700090918801A0918901B0918A010796A11DEE
:10068000B11D23E0B695A795979587952A95D1F743
:100690002091BC0024FD03C01092CF0152C04091B4
:1006A0008701509188016091890170918A01452BE1
:1006B000462B472B69F30097A105B10541F02AE2CB
:1006C0002A95F1F700C00197A109B109E1CF809106
:1006D0008601C1E0C0938501882399F1D091B800CB
:1006E0001091BA008091BC008A7B8093BC0060E0CE
:1006F00082E10E94B50060E083E10E94B5001092A3
:10070000CF01C093D1011092D00161E082E10E943B
:10071000B50061E083E10E94B5008091B9008E7F51
:100720008093B9008091B9008D7F8093B90088E4EF
:100730008093B80085E48093BC001093BA00D093F6
:10074000B800DF91CF911F9108951F920F920FB6BD
:100750000F9211242F933F938F939F93AF93BF9347
:100760008091F6019091F701A091F801B091F90103
:100770003091F50123E0230F2D3758F50196A11D87
:10078000B11D2093F5018093F6019093F701A0939A
:10079000F801B093F9018091FA019091FB01A091C9
:1007A000FC01B091FD010196A11DB11D8093FA01DC
:1007B0009093FB01A093FC01B093FD01BF91AF9119
:1007C0009F918F913F912F910F900FBE0F901F908F
:1007D000189526E8230F0296A11DB11DD2CF1F92B6
:1007E0000F920FB60F9211242F933F934F935F9365
:1007F0006F937F938F939F93AF93BF93EF93FF93E9
:100800008EEF91E00E94B701FF91EF91BF91AF9100
:100810009F918F917F916F915F914F913F912F9118
:100820000F900FBE0F901F9018951F920F920FB64A
:100830000F9211242F938F939F93EF93FF93E09147
:100840000E02F0910F028081E0911402F0911502E6
:1008500082FD1BC09081809117028F5F8F73209162
:100860001802821741F0E0911702F0E0E250FE4FCB
:10087000958F80931702FF91EF919F918F912F9108
:100880000F900FBE0F901F9018958081F4CF1F928C
:100890000F920FB60F9211242F933F934F935F93B4
:1008A0006F937F938F939F93AF93BF93EF93FF9338
:1008B0008091B900887F803609F44AC0F0F588320B
:1008C00009F4A5C018F5803109F499C0B8F488235B
:1008D00009F4F5C0883009F492C0FF91EF91BF91FF
:1008E000AF919F918F917F916F915F914F913F91C8
:1008F0002F910F900FBE0F901F901895883109F41B
:1009000086C0803251F78093CE0114C0803409F440
:100910009BC040F48033B9F38833F9F68093CE015D
:1009200085ECAEC0803509F483C0883509F494C0E5
:10093000883499F60E943003D0CF883909F48AC0F0
:1009400038F5883729F050F4883611F0803729F6C9
:1009500083E08093CF011092CD0155C0883809F40F
:1009600079C0803919F0803809F0B7CF8091CD0176
:10097000803208F06FC0E091CD0181E08E0F80934E
:10098000CD018091BB00F0E0E355FE4F80833BC07A
:10099000803B39F0D0F4803A09F477C0883A09F006
:1009A0009CCF84E08093CF011092AC011092AB01F8
:1009B000F0E0E0E009958091AB0181110FC081E08A
:1009C0008093AB0110928B0109C0803C09F4A8CF41
:1009D000883C09F4A5CF883B09F07FCFE091AC01BA
:1009E00081E08E0F8093AC01F0E0E557FE4F8081EF
:1009F0008093BB009091AC018091AB0129C08091A4
:100A0000F4018093BB0085EC8093BC0066CF90918D
:100A1000F3018091F201981758F5E091F30181E01C
:100A20008E0F8093F301F0E0EE52FE4F8081E9CF0C
:100A3000E091F30181E08E0F8093F3018091BB0080
:100A4000F0E0EE52FE4F80839091F3018091F2012D
:100A50009817C8F285E8D8CFE091F30181E08E0FB6
:100A60008093F3018091BB00F0E0EE52FE4F808353
:100A70008091D10181115ECF81E08093D00184EA21
:100A80008093BC001092CF0128CF85EC8093BC00EE
:100A90001092CF018091CD01803230F4E091CD01F0
:100AA000F0E0E355FE4F10826091CD0170E08DEAD9
:100AB00091E0F0E0E0E009951092CD010ECF1092A8
:100AC000CE0138CFEEEFF1E01382128288EE93E090
:100AD000A0E0B0E084839583A683B7838AE091E0A9
:100AE0009183808385EC90E09587848784EC90E007
:100AF0009787868780EC90E0918B808B81EC90E0EB
:100B0000938B828B82EC90E0958B848B86EC90E0CB
:100B1000978B868B118E128E138E148EEBE9F2E07A
:100B200082E0808383E0818384E0828360E082E0EE
:100B30000E94B50061E082E00E94E30060E083E093
:100B40000E94E30060E084E00E94B50061E084E080
:100B50000C94E300CF93DF93CDB7DEB7E8970FB6E1
:100B6000F894DEBF0FBECDBF789484B5826084BD9B
:100B700084B5816084BD85B5826085BD85B58160A1
:100B800085BD80916E00816080936E00109281001F
:100B900080918100826080938100809181008160DA
:100BA000809381008091800081608093800080919B
:100BB000B10084608093B1008091B0008160809327
:100BC000B00080917A00846080937A0080917A00EE
:100BD000826080937A0080917A00816080937A00AD
:100BE00080917A00806880937A001092C100E09131
:100BF0000E02F0910F0282E08083E0910A02F091F0
:100C00000B021082E0910C02F0910D028FEC8083B8
:100C100010921602E0911202F091130286E0808396
:100C2000E0911002F0911102808180618083E09157
:100C30001002F0911102808188608083E09110029F
:100C4000F0911102808180688083E0911002F09120
:100C5000110280818F7D80832AE0F22E3FE5232ED2
:100C600031E0332E9E012F5F3F4F690170909B0250
:100C700060E080919D020E94B50061E0872D0E9496
:100C8000B5008BE090E00197F1F761E080919C0264
:100C90000E94E30010E000E06FEB70E0002E02C065
:100CA000759567950A94E2F7617080919C020E94A5
:100CB000B50061E080919D020E94B50060E00730C0
:100CC000110509F071C080919C020E94E3000F5F42
:100CD0001F4F0830110501F70E949A02982F929534
:100CE00097708F70582E9F9D500C11240E949A026D
:100CF000982F92959F708F70482E9F9D400C1124C5
:100D00000E949A02282F30E087FF53C085FB2227DC
:100D100020F93CE0239FE02C11248F70E80E0E9404
:100D20009A02982F92959F708F70A82E9F9DA00C6D
:100D300011240E949A02982F92959F708F70B82E5E
:100D40009F9DB00C11240E949A02982F92959F703B
:100D50008F70682E9F9D600C11240E949A02982F1C
:100D600092959F708F709F9D800D1124082F10E029
:100D70000053184F60E0872D0E94B5008BE090E093
:100D80000197F1F7EFEFE60D61E571E0E730E8F488
:100D9000F0E0E353F94F0C949D07E306540757071F
:100DA0005A075D076007630780919D020E94B500A6
:100DB0008ECF94E0359527959A95E1F723702F9D76
:100DC000E02C1124AACF68E171E0CE01C3960E9405
:100DD000E7021F925F921F924F921F92EF921F9213
:100DE000AF921F92BF921F930F938CA98F938BA9E1
:100DF0008F933F922F921F9282E38F93DF92CF9235
:100E00000E949509F60101900020E9F73197AF01A2
:100E10004C195D09B6018EEF91E00E94390142E064
:100E200050E060E871E08EEF91E00E9439018BA9FB
:100E30009CA90FB6F894DEBF0FBECDBF009711F08E
:100E40000E943F080E9414014B015C0188EE482E6D
:100E500083E0582E612C712C0E94140168197909C5
:100E60008A099B09683E734081059105A8F331E02A
:100E7000431A51086108710888EE880E83E0981EB5
:100E8000A11CB11C411451046104710429F780E0D4
:100E900090E0892B09F4EACE0E94A301882309F48B
:100EA000E5CE0E940000E2CE6FE171E08ECF66E2F7
:100EB00071E08BCF6EE271E088CF68E371E085CF9F
:100EC00061E471E082CF68E471E07FCF2F923F92BE
:100ED0004F925F926F927F928F929F92AF92BF924A
:100EE000CF92DF92EF92FF920F931F93CF93DF93F6
:100EF000CDB7DEB7CA1BDB0B0FB6F894DEBF0FBE53
:100F0000CDBF09942A88398848885F846E847D849F
:100F10008C849B84AA84B984C884DF80EE80FD80A1
:100F20000C811B81AA81B981CE0FD11D0FB6F89417
:100F3000DEBF0FBECDBFED010895EE0FFF1F059080
:100F4000F491E02D09940F931F93CF93DF93823098
:100F5000910510F482E090E0E091A002F091A102EE
:100F600030E020E0B0E0A0E0309799F421153105A1
:100F700009F44AC0281B390B24303105D8F58A8181
:100F80009B816115710589F1FB0193838283FE01C9
:100F900011C0408151810281138148175907E0F047
:100FA0004817590799F4109761F012960C9312970D
:100FB00013961C933296CF01DF91CF911F910F9121
:100FC00008950093A0021093A102F4CF21153105DA
:100FD00051F04217530738F0A901DB019A01BD0116
:100FE000DF01F801C1CFEF01F9CF9093A102809307
:100FF000A002CDCFFE01E20FF31F81939193225007
:10100000310939832883D7CF20919E0230919F02E6
:10101000232B41F4209102013091030130939F0270
:1010200020939E022091000130910101211531058C
:1010300041F42DB73EB74091040150910501241BA6
:10104000350BE0919E02F0919F02E217F307A0F4A6
:101050002E1B3F0B2817390778F0AC014E5F5F4F0E
:101060002417350748F04E0F5F1F50939F0240939F
:101070009E02819391939FCFF0E0E0E09CCFCF93CD
:10108000DF930097E9F0FC01329713821282A0915E
:10109000A002B091A102ED0130E020E01097A1F490
:1010A00020813181820F931F20919E0230919F02F7
:1010B0002817390709F061C0F0939F02E0939E0260
:1010C000DF91CF910895EA01CE17DF07E8F54A8155
:1010D0005B819E0141155105B1F7E901FB83EA836C
:1010E00049915991C40FD51FEC17FD0761F4808118
:1010F00091810296840F951FE901998388838281EB
:1011000093819B838A83F0E0E0E012968D919C911D
:1011100013970097B9F52D913C911197CD01029647
:10112000820F931F20919E0230919F02281739074A
:1011300039F6309751F51092A1021092A002B093A7
:101140009F02A0939E02BCCFD383C2834081518172
:10115000840F951FC817D90761F44E5F5F4F8881D0
:101160009981480F591F518340838A819B819383C2
:1011700082832115310509F0B0CFF093A102E093ED
:10118000A0029ECFFD01DC01C0CF13821282D7CF17
:10119000B0E0A0E0EEECF8E00C9468078C0100975A
:1011A00051F4CB010E94A3078C01C801CDB7DEB773
:1011B000E0E10C948407FC01E60FF71F9C0122502C
:1011C0003109E217F30708F49DC0D901CD91DC91F4
:1011D0001197C617D70798F0C530D10530F3CE0167
:1011E00004978617970708F3C61BD70B2297C1935E
:1011F000D1936D937C93CF010E943F08D6CF5B01C2
:10120000AC1ABD0A4C018C0E9D1EA091A002B0919B
:10121000A102512C412CF12CE12C109731F5809139
:101220009E0290919F028815990509F05CC04616B0
:10123000570608F058C08091000190910101009775
:1012400041F48DB79EB74091040150910501841B74
:10125000950BE817F90708F055C0F0939F02E0934B
:101260009E02F90171836083A0CF8D919C911197AB
:1012700012966C90129713967C901397A815B90547
:1012800059F56C0142E0C40ED11CCA14DB0420F1F4
:10129000AC014A195B09DA011296159780F0628257
:1012A000738251834083D9016D937C93E114F104DF
:1012B00071F0D7011396FC93EE93129776CF229696
:1012C0008C0F9D1FF90191838083F301EFCFF09381
:1012D000A102E093A00269CF4816590608F42C0138
:1012E0007D01D3019ACFCB010E94A3077C01009717
:1012F00049F0AE01B8010E948509C8010E943F086B
:10130000870153CF10E000E050CFFB01DC0102C0A9
:1013100001900D9241505040D8F70895FB01DC0137
:1013200001900D920020E1F70895AEE0B0E0EBE906
:10133000F9E00C9474070D891E898F89988D26E039
:101340002C831A83098397FF02C080E090E80197FD
:101350009E838D83AE01455E5F4F698D7A8DCE0190
:1013600001960E94C5094D815E8157FD0AC02F81FB
:101370003885421753070CF49A01020F131FF80126
:1013800010822E96E4E00C949007ABE0B0E0EBEC1A
:10139000F9E00C9466077C013B018A01FC0117828D
:1013A0001682838181FFC8C1CE0101965C01F701DD
:1013B0009381F30193FD859193FF81913F018823F0
:1013C00009F453C1853239F493FD859193FF8191DE
:1013D0003F01853229F4B70190E00E94B50BE7CFB9
:1013E000912C212C312CFFE1F31538F08B3211F1C7
:1013F00090F4803209F1833229F137FC3CC020EDB2
:10140000280F2A3050F536FE20C08AE0989E200D25
:101410001124922E06C08D3291F0803371F76894BA
:1014200030F8F30193FD859193FF81913F01811184
:10143000DACF21C0689431F8689432F8F2CF68941A
:1014400033F8EFCF689434F8ECCFEAE02E9E200D0D
:101450001124222E689435F8E4CF8E3229F436FC1C
:1014600004C1689436F8DDCF8C3619F4689437F8E7
:10147000D8CF8836B1F2982F9F7D95549330E0F005
:101480008336A1F18337C1F1833509F063C02801A8
:10149000F2E04F0E511CF801C080D180692D70E040
:1014A00036FC02C06FEF7FEFC6010E949F0B4C011C
:1014B000689437F882010AC00C5F1F4FFFE3F9837D
:1014C00088248394912C6501E89437F833FE2DC06D
:1014D000522C8114910471F5552009F468CFB7019D
:1014E00080E290E00E94B50B5A94F6CFF80180811B
:1014F00089830E5F1F4FE4CF2801F2E04F0E511C8D
:10150000F801C080D180692D70E036FC02C06FEF19
:101510007FEFC6010E94AA0B4C018201D5CFB70113
:1015200080E290E00E94B50B2A942814190409F077
:10153000B0F7CECFF60137FC859137FE81916F0170
:10154000B70190E00E94B50B51105A94F1E08F1A48
:101550009108BFCF843619F0893609F077C0F801B9
:1015600037FE6BC060817181828193810C5F1F4F58
:10157000F32DFF763F2E97FF09C0909580957095CB
:1015800061957F4F8F4F9F4F689437F82AE030E086
:10159000A5010E94E50BC82ECA188C2C432C36FEE0
:1015A0000CC0E89440F8C91440F434FE05C032FC85
:1015B00003C0F32DFE7E4F2E892C44FE95C0FE0104
:1015C000EC0DF11D8081803309F087C0242D297E28
:1015D000422E842D8870582E43FC95C040FE8FC04B
:1015E0009C2C821418F42C0C922C981844FE91C058
:1015F000B70180E390E00E94B50B42FE09C088E786
:1016000090E041FE02C088E590E0B7010E94B50B72
:10161000C91408F48AC0CA94D12C9FEFC91AD90AF8
:10162000CA0CDB1CF60182916F01B70190E00E94A9
:10163000B50BAC14BD04B1F74FCF60817181072E9B
:10164000000C880B990B0E5F1F4F92CFD32CE894A0
:10165000D4F82AE030E0853739F1232D297FD22EC6
:101660008F3601F148F48835A9F0F701868197811A
:101670002B96E2E10C948207803749F08837A9F76E
:10168000D4FE02C06894D2F820E130E00DC0689426
:10169000D4F8F6CF34FE03C0822F8660D82E20E126
:1016A00032E002C028E030E0F801D7FE0FC06081D0
:1016B0007181828193810C5F1F4FA5010E94E50B10
:1016C000C82ECA183D2CE89437F867CF6081718125
:1016D00090E080E00E5F1F4FF0CF42FC02C0839489
:1016E00078CF8394839475CF842D867809F471CF55
:1016F000F6CFB70180E290E00E94B50B839482148C
:10170000C0F3512C73CF522C5818821408F46ECFAA
:10171000F8CF842D867809F47BCF8BE241FE80E2FE
:1017200047FC8DE2B70190E071CFB70180E390E014
:101730000E94B50B9A946CCF8FEF9FEF99CFFC016D
:101740000590615070400110D8F7809590958E0FEC
:101750009F1F0895FC016150704001900110D8F75F
:10176000809590958E0F9F1F08950F931F93CF9391
:10177000DF93182F092FEB018B8181FD09C01FEF2B
:101780000FEF812F902FDF91CF911F910F9108952F
:1017900082FF14C02E813F818C819D8128173907DB
:1017A0003CF4E881F981CF01019699838883108305
:1017B0008E819F8101969F838E83E3CFE885F98593
:1017C000812F0995892BA1F3DACFFA01AA272830B6
:1017D00051F1203181F1E8946F936E7F6E5F7F4FFE
:1017E0008F4F9F4FAF4FB1E03ED0B4E03CD0670F7A
:1017F000781F891F9A1FA11D680F791F8A1F911DCD
:10180000A11D6A0F711D811D911DA11D20D009F41C
:1018100068943F912AE0269F11243019305D31935E
:10182000DEF6CF010895462F4770405D4193B3E047
:101830000FD0C9F7F6CF462F4F70405D4A3318F0EE
:10184000495D31FD4052419302D0A9F7EACFB4E09F
:10185000A6959795879577956795BA95C9F7009757
:101860006105710508959B01AC010A2E06945795F8
:10187000479537952795BA95C9F7620F731F841F4F
:10188000951FA01D0895F894FFCF0000A2028000CC
:1018900000000000D9013901660126029701750197
:1018A000890153756E646179004D6F6E64617900D2
:1018B00054756573646179005765646E657364611E
:1018C0007900546875727364617900467269646165
:1018D000790053617475726461790028756E6B6E5E
:1018E0006F776E2064617929002573202530346478
:1018F0002D253032642D2530326420253032643A73
:0E190000253032643A25303264000D0A0000B2
:107E0000112484B714BE81FFF0D085E080938100F7
:107E100082E08093C00088E18093C10086E0809377
:107E2000C20080E18093C4008EE0C9D0259A86E02C
:107E300020E33CEF91E0309385002093840096BBD3
:107E4000B09BFECF1D9AA8958150A9F7CC24DD24C4
:107E500088248394B5E0AB2EA1E19A2EF3E0BF2EE7
:107E6000A2D0813461F49FD0082FAFD0023811F036
:107E7000013811F484E001C083E08DD089C08234E0
:107E800011F484E103C0853419F485E0A6D080C0E4
:107E9000853579F488D0E82EFF2485D0082F10E0AE
:107EA000102F00270E291F29000F111F8ED06801E7
:107EB0006FC0863521F484E090D080E0DECF843638
:107EC00009F040C070D06FD0082F6DD080E0C81688
:107ED00080E7D80618F4F601B7BEE895C0E0D1E017
:107EE00062D089930C17E1F7F0E0CF16F0E7DF06D8
:107EF00018F0F601B7BEE89568D007B600FCFDCFD4
:107F0000A601A0E0B1E02C9130E011968C91119780
:107F100090E0982F8827822B932B1296FA010C0160
:107F200087BEE89511244E5F5F4FF1E0A038BF0790
:107F300051F7F601A7BEE89507B600FCFDCF97BE46
:107F4000E89526C08437B1F42ED02DD0F82E2BD052
:107F50003CD0F601EF2C8F010F5F1F4F84911BD097
:107F6000EA94F801C1F70894C11CD11CFA94CF0C13
:107F7000D11C0EC0853739F428D08EE10CD085E9AC
:107F80000AD08FE07ACF813511F488E018D01DD067
:107F900080E101D065CF982F8091C00085FFFCCF94
:107FA0009093C60008958091C00087FFFCCF809118
:107FB000C00084FD01C0A8958091C6000895E0E648
:107FC000F0E098E1908380830895EDDF803219F02E
:107FD00088E0F5DFFFCF84E1DECF1F93182FE3DFCA
:107FE0001150E9F7F2DF1F91089580E0E8DFEE27F6
:047FF000FF270994CA
:027FFE00040479
:00000001FF
